:100000000C94AC010C94E4010C94E4010C94E40114
:100010000C94E4010C94E4010C94E4010C94E401CC
:100020000C94E4010C94E4010C94EF1E0C94C21F98
:100030000C94F9190C94E4010C94E4010C94E4017F
:100040000C94E4010C94E4010C94E4010C94E4019C
:100050000C94E4010C94911A0C94E4010C94E401C6
:100060000C94E4010C94E4010C94E4010C94E4017C
:100070000C94E4010C94E4010C94E4010C94E4016C
:100080000C94E4010C94E4010C94E4010C94E4015C
:100090000C94E4010C94E4010C94E4010C94E4014C
:1000A0000C94E4010C94E4010C94E401A900AA006E
:1000B0004F005000AB00AC00520051001D001B006F
:1000C0000600190005001100100036003700380046
:1000D0001E001F00200021002200230029002B0009
:1000E0003900E10024002500260027002D002E0005
:1000F000E000E300E2002C0014001A0008001500E4
:1001000017001C002A0031002800E50018000C0030
:10011000120013002F0030004C00350065002C0049
:1001200004001600070009000A000B00E641E40085
:10013000500051000D000E000F003300340000008D
:10014000000000004F00520001000100010001000A
:10015000010001000100010001002C003A003B00F9
:100160003C003D003E003F00007C0100010001001A
:1001700040004100420043004400450001000100EE
:100180000100010001000100010001000100010067
:100190000100010001000100010001000100010057
:1001A00001000100460001004800010001000100BB
:1001B0000100010001000100010049004A004E0059
:1001C000010001000100010001000000000000002A
:1001D0004D004B002003730061006D006D006F0047
:1001E00074006800780063005F00360037006B0021
:1001F0006500790000001403730061006D006D005C
:100200006F007400680078006300000004030904B4
:1002100009023B00020100A0FA09040000010301E9
:100220000100092111010001224400070581030892
:10023000000109040100010300000009211101006F
:100240000122B6000705820320000112010002000E
:10025000000008EDFE000000010102000105010997
:1002600002A10185020901A100050919012908154A
:100270000025019508750181020501093009311534
:1002800081257F95027508810609381581257F959E
:100290000175088106050C0A38021581257F950134
:1002A00075088106C0C005010980A10185031901F7
:1002B0002AB700150126B700950175108100C00509
:1002C0000C0901A101850419012AA002150126A02B
:1002D00002950175108100C005010906A10185067E
:1002E000050719E029E71500250195087501810228
:1002F0000507190029EF1500250195F07501810208
:1003000005081901290595057501910295017503E7
:100310009101C005010906A101050719E029E715AA
:100320000025019508750181029501750881010577
:1003300007190029FF150026FF00950675088100A2
:10034000050819012905150025019505750191027A
:10035000950175039101C00011241FBECFEFDAE0B3
:10036000DEBFCDBF04B603FE18C08091F6029091A7
:10037000F702A091F802B091F9028730904BA740A4
:10038000B04B59F41092F6021092F7021092F80254
:100390001092F902E0E0F8E3099511E0A0E0B1E085
:1003A000EAE1F5E402C005900D92A83AB107D9F749
:1003B00022E0A8EAB1E001C01D92A63FB207E1F732
:1003C0000E9489110C943A220C940000811105C0FE
:1003D000662319F08EEA0E94280481E00895823095
:1003E000B8F46730A8F44A3098F4E42FF0E09AE0CB
:1003F000699FE00DF11D112496E4899FE00DF11D28
:100400001124EE0FFF1FE454FF4F8591949108953E
:1004100081E090E008950E94EF010895982F962BB7
:10042000923098F4E82FF0E0EE0FFF1FE60FF11D79
:10043000EE0FFF1F81E04827E40FF11DEE0FFF1FB5
:10044000E455FF4F85919491089581E090E00895DF
:100450000E940E02089581E008950E942B020895E3
:1004600081E008950E942B0208950E9432020895AF
:1004700008950E9438020895A6E0B0E0E2E4F2E0B8
:100480000C94962149835A839E833091AF018981D0
:100490009A8131111AC03E81332399F0222389F0C9
:1004A0000E94F207182F682F89819A810E94BF0746
:1004B00069817A81812F0E94180F2696E3E00C94BF
:1004C000B2210E94D907182FF3CF0E94F207698149
:1004D0007A81F1CFFC01262F4081518162817381A5
:1004E000848195810E943C020895CF93DF93D82F99
:1004F000C92F61E00E946A026D2F7C2F0E942D029D
:10050000DF91CF910895CF93DF93D82FC92F60E06B
:100510000E946A026D2F7C2F0E943902DF91CF91D9
:10052000089581E008950E9491020895CF93C82F05
:100530000E9491068C2F0E9493022FEF84E39CE08F
:10054000215080409040E1F700C00000CF91089515
:1005500081E00E9496020E94B51A089580E00E94F0
:1005600096020E94D91A08950F931F93CF93DF9399
:100570008C0161E00E946A02EC01B8010E94350220
:100580008823B1F1B801CE010E94CB17882381F1F5
:10059000B801CE010E94EA13882351F1B801CE01BF
:1005A0000E94BF13882321F1F8018581882381F0FF
:1005B000CA35FCE7DF0739F178F4C130ECE7DE0734
:1005C000F9F0C330FCE7DF07C9F0C115DC4771F073
:1005D000C8010E9430020DC0CB35ECE7DE07B1F058
:1005E000CC35DC47A9F70E94260CF2CF0E94A80266
:1005F00080E0DF91CF911F910F9108950E94380CF8
:100600000E94AE02F5CF0E94300CE2CF0E94340C63
:10061000DFCF0E94D5190E94300308950E94340351
:100620000E94DA190895089581E008950895CF93FE
:10063000DF93D82F0E941403C82F882319F08D2F21
:100640000E9416038C2FDF91CF9108950895CF93C8
:10065000C82F0E9413038C2F0E941703CF91089577
:1006600080E00E94270308950E9411180E9427032A
:100670000895CF930E941118C82F8091AA018C175A
:1006800079F0C093AA010E94651A6093AB01709340
:10069000AC018093AD019093AE018C2F0E94270393
:1006A000CF910895ADE0B0E0E8E5F3E00C94972138
:1006B000488759876A877B878C879D8791110E941D
:1006C000310B1F8286E0FE013896DE011196019003
:1006D0000D928A95E1F78D8181110DC029813A81B2
:1006E0004B815C816D817E818F810E94770A2D967E
:1006F000E2E00C94B321CE0101960E9475028111B3
:10070000EDCFF5CFFC018481813021F4808191818E
:100710000E9424080895662329F00E9458150E941B
:100720002E1608950E94B615FACFCF93C82F8823AE
:1007300099F08CEF8C0F813A88F48C2F0E94B418BA
:10074000882329F08C2F0E9459190E94C90B8C2FE5
:100750000E9442190E94C90BCF91089580E28C0F2C
:10076000883048F4C77081E001C0880FCA95EAF765
:100770000E94120BEFCF8BE58C0F833038F42C2FB7
:100780002452330BC9010E944718E6CFE8E5EC0F6D
:10079000EB3150F4F0E0EE0FFF1FE95EFE4F808179
:1007A00091810E946D18D8CF83E38C0F8331A0F61E
:1007B00061E08C2F0E948B03CFCF882381F19CEFC7
:1007C000980F913A28F40E9459190E94C90B089574
:1007D00090E2980F983050F4877091E001C0990F23
:1007E0008A95EAF7892F0E94180BEFCF9BE5980FA7
:1007F000933028F480E090E00E944718089598E52F
:10080000980F9B3128F480E090E00E946D180895C5
:1008100093E3980F933118F460E00E948B030895DE
:100820001F93CF93DF93182FEB010E94950320971E
:1008300039F4812F0E94DD03DF91CF911F9108953C
:100840008FE99FE00197F1F700C000002197EFCFFB
:1008500060E070E0893311F460E570E00E941004FC
:100860000895882321F00E94120B0E94C90B08955D
:10087000882321F00E94180B0E94C90B0895A0E064
:10088000B0E0E5E4F4E00C9491216C01D62FC72F81
:10089000FC011581068102950F700E94070BE82E5E
:1008A0008823F9F0E12E1123E1F08C2F807F803432
:1008B00061F080E28D0F8830F0F08C2F807E8032E6
:1008C00021F4D230C0F00023B1F08091C80282FF41
:1008D00012C082E00E94F90B0E94070B91E0E82E03
:1008E000E926EC2FE295EF70C03CB0F5F0E0E45C57
:1008F000FD4D0C948121E12CF4CF0C2F0F70C031F1
:1009000010F00295007F112399F0002359F080E246
:100910008D0F883010F0D11107C0802F0E94120B6C
:100920000E94C90B8D2F51C0802F0E94230BF8CF3E
:100930008D2F0E94DD03002379F080E28D0F883037
:1009400010F0D11104C0802F0E94180B03C0802F1B
:100950000E94290B0E94C90BEE2089F00E94030B14
:1009600080FD0DC0F60115820E94FD0A0E941C0741
:10097000C6010E9458060E94FD0A0E942C07CDB7AE
:10098000DEB7E8E00C94AD21FC2FFF70FF2EC07F96
:10099000C03219F0F29480EFF822DD2341F0D1301B
:1009A000D1F1112309F444C00023F1F0BBCF8091B1
:1009B000C80282FD15C0112359F0FF2029F08F2DA8
:1009C0000E94120B0E94C90B80E00E949503C4CFC5
:1009D00080E00E94DD03FF2009F4BECF8F2DB4CF4D
:1009E000112369F0011104C08F2D0E943104B4CF8E
:1009F000013009F0B1CF8F2D0E94490BADCF01110D
:100A0000ABCF8F2D0E9438048F2D0E94550B8F2D58
:100A10000E94380BA1CF112321F0063008F09CCFA3
:100A2000E3CF053008F098CF8F2D0E94380494CF83
:100A30000023D1F3D93349F42FEF87EE93E021500F
:100A400080409040E1F700C000008D2F0E94DD0340
:100A500083CF8C2F869586958370882369F08130AB
:100A600009F07ACF8D2F9C2F9370111102C080E076
:100A700090E00E946D1870CF8D2F9C2F93701111F4
:100A800002C080E090E00E94471866CF612F8D2F52
:100A90000E948B0361CF8C2F8370811139C011119B
:100AA00029C04D2F429546954770440F440F2D2F76
:100AB0002F7030E0042E02C0220F331F0A94E2F799
:100AC00080E090E0D4FF09C08FE090E002C0880F82
:100AD000991F4A95E2F780959095C695C695C37083
:100AE000822B932BC23071F0C33079F0C13039F0D2
:100AF0000E94EC060E9411180E9427032DCF0E942D
:100B0000E306F8CF0E94F506F5CF0E94E006F2CF8B
:100B1000112361F1C0FFEECF4D2F429546954770EE
:100B2000440F440F2D2F2F7030E0042E02C0220FEF
:100B3000331F0A94E2F780E090E0D4FF09C08FE011
:100B400090E002C0880F991F4A95E2F78095909532
:100B5000C695C695C370822B932BC23069F0C33003
:100B600071F0C13031F00E945707C4CF823010F2CB
:100B7000D3CF0E944E07BECF0E946007BBCF0E941A
:100B80000407B8CFCF70112339F08C2F0E941C07B7
:100B90008D2F0E943104AECF8D2F0E9438048C2FF0
:100BA0000E942C07A7CFD23F31F170F4D03FB9F0AB
:100BB000D13FB1F1112309F451C0002309F44BC016
:100BC0008D2F0E94950396CFD33FE1F0D43F21F1C2
:100BD0001111F3CF011150C08C2F8F71E1CF112370
:100BE00041F0053008F086CF8C2F8F710E943E07B0
:100BF00081CF0530F7CF8C2F8F711111D1CF0E948B
:100C00001C0778CF112329F08C2F8F710E941007B9
:100C100071CF0E940B076ECF8091C80282FD06C083
:100C20008C2F8F71112309F4BBCFE9CF112349F029
:100C3000CF718C2F0E941C0763E08C2F0E94DB0B6E
:100C400059CF81E00E94F90B023008F453CF82E0C3
:100C50000E94F90B4FCF8C2F8F71D1CF002309F455
:100C6000BBCFD93349F4EFEFF7EE23E0E150F0408A
:100C70002040E1F700C000008D2F0E94DD033ACF35
:100C80000F931F93CF93DF93EC01688179818D815E
:100C90000E9431088C010E9469070E94DF06B8019A
:100CA000CE010E943F04DF91CF911F910F910895D3
:100CB000CF93DF93EC018C81882399F0CE010E94C1
:100CC000B402811111C00E94070B882351F08D815D
:100CD000882339F08091C80282FF03C082E00E941D
:100CE000F90BDF91CF910895CE010E944006CE010D
:100CF0000E948302F6CF80E090E00E94471880E0D7
:100D000090E00E946D180E94310B0E94C90B0E9456
:100D10004B160E942E1608950E9470190E947B06A1
:100D200008950E94200B0E948C060895282F92950A
:100D30009F70963091F060F4925F9F70923030F423
:100D400081E0203F79F030F4283E30F080E00895D3
:100D50009A5FF3CF243FD1F7089581E0283EE0F376
:100D6000213FF9CF0895FC018481882339F08081E7
:100D700091810E9424080E949606089580E00895BB
:100D8000A6E0B0E0E6ECF6E00C9497212696E2E0CF
:100D90000C94B321A7E0B0E0E0EDF6E00C949721CD
:100DA0002796E2E00C94B32108950E94D40608959A
:100DB0000E94D5069093DB018093DA01089508958F
:100DC0000E94D80608952091DA013091DB01822B30
:100DD000932B0E94D80608952091DA013091DB010F
:100DE000822393230E94D80608952091DA0130913E
:100DF000DB01822793270E94D80608950E94D4061B
:100E000008950E94FE0608950E9401079093D9015B
:100E10008093D801089580E090E00E94040708952F
:100E200021E030E0A90102C0440F551F8A95E2F786
:100E3000CA010E940407089521E030E002C0220F99
:100E4000331F8A95E2F78091D8019091D901822BC6
:100E5000932B0E940407089521E030E002C0220F86
:100E6000331F8A95E2F7209530958091D8019091B3
:100E7000D901822393230E940407089521E030E0E2
:100E800002C0220F331F8A95E2F78091D80190911A
:100E9000D901822793270E94040708952091D80141
:100EA0003091D901822B932B0E9404070895209141
:100EB000D8013091D901822393230E940407089519
:100EC0002091D8013091D901822793270E940407ED
:100ED000089508959B01677091E001C0990F6A958C
:100EE000EAF763E0369527956A95E1F7220F331FFD
:100EF000220F331FFA01E20FF31F40E050E0682F8A
:100F000070E08191DF0111979B01042E02C036959C
:100F100027950A94E2F7217021952827292328276D
:100F20002C934F5F5F4F4430510559F708959C0152
:100F3000982F977083E0369527958A95E1F7220FD1
:100F4000331F220F331FFB01E20FF31F40E050E07D
:100F500080E0219130E0092E02C0369527950A9451
:100F6000E2F721703327042E01C0220F0A94EAF71A
:100F7000822B4F5F5F4F4430510559F70895282F5A
:100F8000862F973070F42A3058F4622F70E02AE0F0
:100F9000929F600D711D112444EB51E00E946A077D
:100FA00008959C5F9230E0F7622F70E040EB51E0D3
:100FB000F5CF292F973068F48A3090F490E064EBF5
:100FC00071E03AE0239F800D911D11240E94970744
:100FD00008952C5F223020F460EB71E090E0F6CFB2
:100FE00080E00895A0E0B0E0E8EFF7E00C949021F5
:100FF0008C01E090D801F090D9018091DA019091B4
:10100000DB01E82AF92ACFE0D0E0CC24C394D12C2C
:10101000C6010C2E02C0880F991F0A94E2F78E2198
:101020009F21892B49F4219798F7B12C8B2DCDB7AF
:10103000DEB7E9E00C94AC21BC2EB8018C2F0E94E5
:10104000310F019781F3F2CFCF93DF93D82FC92FC0
:101050000E94F2076D2F7C2F0E94310FDF91CF91FC
:1010600008951F93CF93DF93162FD72F9091AF0141
:10107000992341F0862F972F0E942408DF91CF916A
:101080001F910895882381F0862F972F0E94F207E1
:10109000C82F682F812F9D2F0E94BF07612F7D2FA2
:1010A0008C2F0E94310FEACF862F972F0E94D907ED
:1010B000C82FF4CF0F931F93CF93E091DC01C7E0CB
:1010C0008091DD018E1304C0CF911F910F9108957F
:1010D0000E2F10E0CE9FF0011124E252FE4F20812E
:1010E0003181428153816481758186810E94CA0663
:1010F000F8013196E770E4CF209116023091170283
:10110000409118025091190260911A0270911B02CD
:1011100080911C020E94CA06089580911C028031B1
:1011200078F480911B02882359F0E091DC01209132
:10113000DD01309117024091160257E02E1301C0D5
:1011400008956E2F70E05E9FF0011124DF01A2521E
:10115000BE4F14968C911497882361F111968C914F
:101160001197831327C08C91841324C015968C91FA
:10117000159781111FC012968D919C91A091180214
:10118000B09119028A1B9B0B883C910598F48091C1
:101190001C028F70806180931C02EC51FE4F808195
:1011A0008F708061808386E192E00E9458060E94E1
:1011B0005A080895FB013196E770C0CFE091DC0139
:1011C0009091DD0127E0E91302C080E00895AE2F81
:1011D000B0E02E9FF0011124E252FE4F3181361310
:1011E00006C03081381303C03581341304C0FD01BB
:1011F0003196E770E8CF81E008958F929F92AF9289
:10120000BF92DF92EF92FF920F931F93CF93DF93E2
:10121000CDB7DEB72D970FB6F894DEBF0FBECDBFAA
:101220008C0186E0F801DE01189601900D928A95F6
:10123000E1F7F801E080F580A280B380848196E137
:10124000892E92E0992E90911A0291111BC0882349
:1012500009F4FCC0FF2009F43DC1C8010E94B30697
:10126000882309F437C187E0F801D40101900D9279
:101270008A95E1F7C4010E9482030E948D080E94B2
:101280007C08E4C0D0901B02209118023091190212
:10129000A501421B530BDD2009F4DBC0483C51057E
:1012A00008F0A6C0882309F4D1C09091170291805C
:1012B00080911C02803108F06BC0991228C0909177
:1012C00016029E1124C0F1105DC08F708061809362
:1012D0001C020E947C0886E192E00E9458068091E0
:1012E0001C02F8018683F12C8F2D2D960FB6F894F1
:1012F000DEBF0FBECDBFDF91CF911F910F91FF9049
:10130000EF90DF90BF90AF909F908F900895F11075
:1013100039C040E0692D8E2D0E94DE0840E0692D25
:101320008E2D0E94DE08F82E8111DDCF88859985EB
:101330000E942408292F22952F70903450F49F701A
:10134000223080F0992399F0F8019681903178F459
:10135000CBCF2A5F2F70223078F0C8010E94580648
:10136000FD2CC2CF992319F0882309F4BDCF805EEC
:10137000883008F4B9CFF1CF803F08F4B5CF815F52
:101380008230F7CF80911C02816080931C02ABCF2A
:10139000991207C0909116029E1103C0FF2009F414
:1013A00079C0C8010E94B306882309F493C0FF20C6
:1013B00009F490C080911C02803288F020911602BE
:1013C000309117023A832983BC82AB8290911A0232
:1013D0009D831E828F83CE0101960E94580687E06E
:1013E000F801A6E1B2E001900D928A95E1F745CFB0
:1013F00090911C029031A0F4488559856A857B85BF
:101400008C859D850E94C00686E192E00E94580668
:1014100087E0F40111928A95E9F70E947C0863CF76
:101420008823A1F02091170281812813BACF8091DF
:1014300016028E11B6CFF110B4CF9683C8010E9468
:10144000580687E0F40111928A95E9F7FF24F39496
:101450004BCF483C510508F041C08823B9F3FF2029
:10146000C9F190911702818198132AC080911602C8
:101470008E1126C080911C0280FD19C08031B8F009
:101480008683807F803F39F08681982F907F905FA0
:101490008F70892B8683C8010E94580687E0F80167
:1014A000A6E1B2E001900D928A95E1F7E8CE87E0DF
:1014B000F801A6E1B2E001900D928A95E1F7C6CF5E
:1014C000C8010E94B30681118ACF80911C028160FD
:1014D00080931C02C8010E945806B8CF48855985E0
:1014E0006A857B858C859D850E94C00691CFAEE084
:1014F000B0E0EDE7FAE00C949621288739874A8717
:101500005B876C877D878E87CE0108960E94FD08D9
:101510008823B1F06C85662341F0288539854A859A
:101520005B857D858E850E94CA0617E08091DC016F
:101530009091DD0189133EC02E96E3E00C94B22118
:1015400087E0FE013896DE01119601900D928A9592
:10155000E1F72091DD014091DC018C85882329F39E
:1015600030E0C90101968770992750E084179507EC
:1015700099F097E0929FD001939FB00D1124A25251
:10158000BE4FFE01319601900D929A95E1F780933E
:10159000DD010E945A08C9CF0E9491061092DD0118
:1015A0001092DC0187E0E6E1F2E0DF011D928A950E
:1015B000E9F7BBCF189FC001112482529E4F0E94B1
:1015C000FD08882309F4B8CFE091DC011E9FF001EB
:1015D0001124E252FE4F2081318142815381648186
:1015E000758186810E94CA068091DC0190E0019697
:1015F000877099278093DC0199CF80914502869569
:1016000086958695089580914502877008959091FA
:101610004502977081E0911101C080E008958091AA
:101620007102089590917102982B90937102089520
:10163000982F90958091710289238093710208956B
:1016400010927102089590917002982B90937002FD
:101650000895982F9095809170028923809370024D
:10166000089510927002089508950E94340B089511
:1016700090914602292F2823222331F08095892337
:10168000809346020E94350B089508950E94450BF1
:10169000089590914702292F2823281729F0982B85
:1016A000909347020E94460B089590914702292F7C
:1016B0002823222331F080958923809347020E94BA
:1016C000460B089580914702882329F01092470223
:1016D00080E00E94460B0895CF93DF93C091710282
:1016E00080917002C82BD0914702DD2331F00E9417
:1016F000931881110E94620BCD2B8C2FDF91CF911B
:101700000895CF93DF93C0910201D09103010E940D
:101710006C0B8883C0910201D091030148E050E036
:101720006DE372E0CE010E94D221892B59F088E04E
:10173000FE01ADE3B2E001900D928A95E1F7CE0192
:101740000E941E18DF91CF910895CF93DF93C0912F
:101750000001D09101010E946C0B8983C0910001AE
:10176000D091010140E250E06DE172E0CE010E94B3
:10177000D221892B59F080E2FE01ADE1B2E0019067
:101780000D928A95E1F7CE010E942918DF91CF9141
:10179000089580911601882339F08091C70287FF50
:1017A00003C00E94A50B08950E94810B089508951F
:1017B0000E94D70B08959091C80292FF11C098E043
:1017C000899F90011124622B609345020E941C079F
:1017D000809145028695869586950E94D80B08953E
:1017E0000E941C0708951092450280E00E94D80BC9
:1017F0000895909145028095892380934502282F72
:10180000277021110DC0891759F09091C80292FFDD
:1018100007C08695869586950E942C070E94F30B3B
:1018200008959091C80292FB222720F9281769F0A9
:1018300080FB92F99093C8028091C7029091C802F0
:101840000E94590C82E00E94F90B08958091C80211
:1018500082FB882780F991E089270E94110C089566
:1018600081E00E94110C089580E00E94110C0895FF
:101870006FEF7FEF80E090E00E942422089580E0E7
:1018800090E00E94F0219C0181E0263E3E4F09F04D
:1018900080E0089582E090E00E94E821089583E0CE
:1018A00090E00E94E821089584E090E00E94F021F9
:1018B0000895BC0184E090E00E9424220895AB01C9
:1018C000BC018FE090E00E9418220895AB01BC019A
:1018D00083E190E00E941822089560E070E0CB015F
:1018E0000E94660C089560E070E0CB010E945F0CDE
:1018F0000E946D0C0895A8E0B0E0E1E8FCE00C94D3
:10190000972166EE7EEF80E090E00E94242260E066
:1019100082E090E00E94062281E090E09093DB015B
:101920008093DA0161E083E090E00E94062260E0AB
:1019300074E184E090E00E94242260E086E090E080
:101940000E94062260E087E090E00E94062240E0CC
:1019500050E0BA0188E090E00E94182260E084E242
:1019600090E00E94062260E087E190E00E9406225B
:1019700060E08CE090E00E94062260E08DE090E064
:101980000E94062219821A821B821C821D821E82DC
:101990001F82188648E050E068E170E0CE010196B1
:1019A0000E94F62140E050E0BA0180E290E00E94FF
:1019B00018220E94730C2896E2E00C94B3210E9436
:1019C0007B0C0895682F8EE090E00E940622089517
:1019D000A6E0B0E0EEEEFCE00C9495210E94591ACE
:1019E0008C0180917202909173028017910779F0B7
:1019F00019821A820E94591ABC0149815A8180E0D9
:101A000090E00E9452031093730200937202269694
:101A1000E4E00C94B1210E94651A60938A027093ED
:101A20008B0280938C0290938D0260938602709358
:101A30008702809388029093890208950E94651A14
:101A400060938A0270938B0280938C0290938D0234
:101A50006093820270938302809384029093850244
:101A60000895089508950E94310D089508950E94E3
:101A7000360D089589E290E10E9496110E94320D80
:101A80000E94330D089581E008950E94430D08954A
:101A90000E94430D0895089508950E944B0D0E94E1
:101AA0004C0D08950E943F0C811102C00E94DF0C72
:101AB0000E944A0C80938E020E94540C9093C8029C
:101AC0008093C7020E944F130E944F0C90E00E9427
:101AD000E0068091D8019091D9010E9401070895F4
:101AE0000E94501A0E949E110E94E6100E94520D00
:101AF0000E9426030E94B3130E94370D0895A6E0AA
:101B0000B0E0E5E8FDE00C948B210E94450D8111C9
:101B100011C00E94E80C0E94BB130E9405128111A3
:101B20000E941E0D0E946C160E9439032696EEE05C
:101B30000C94A7210E94FC1024E7822E22E0922E12
:101B4000640110E0F601E190F1906F01812F0E9495
:101B500033101F5F173009F44DC0E816F90691F3F2
:101B600080918E0281FD0E943C100E94480D782ECB
:101B7000F12C662463948F2D0E9433108C01F401A4
:101B8000A190B1904F018A159B0569F1A826B9264D
:101B9000E12CCC24C394D12CC5018C219D21892B0F
:101BA000C1F07720B1F0E982FA820E94591A9C8331
:101BB0008B836D8221E0C8018C219D21892B09F442
:101BC00020E049815A816B817C818D81922F0E9416
:101BD0005203E394CC0CDD1CFAE0EF12DDCFF401EC
:101BE000329711830083F39487E0F812C4CF0E94E8
:101BF0000B0D91CFE816F90609F0B2CF8ACF1F93EB
:101C0000CF93DF930E94360FEC01811522E59207F6
:101C100008F053C0811540E5940708F0DDC0803E10
:101C20009105F8F48D3C910508F0AEC0883A910515
:101C300080F4853A910508F099C08130910521F032
:101C40000497813A910550F4CE01DF91CF911F9115
:101C50000895885A91094B9708F48BC0C0E0D0E0F2
:101C6000F3CF811550E49507F8F4C11580E2D80749
:101C700008F0CBC0C83ED10538F3CE019A95811546
:101C80009F4160F78D2F0E94DA0F182FCE01992700
:101C90000E94360F212F30E0322F2227E901CC2776
:101CA000DF71C82BD92BD0CF99270E94360FCC27B4
:101CB000DF70C82BD92BD06AC7CF803842E5940794
:101CC000C8F5803652E5950708F067C0C03482E554
:101CD000D807B0F08C2F86958695877020E2829F7A
:101CE000C0011124C37021E030E0A90102C0440FFB
:101CF000551FCA95E2F7EA01C82BD92BDC68A4CF9F
:101D0000C03252E5D50708F041C08C2F86958695E4
:101D100020E2829FC0011124C37021E030E0A901BC
:101D200002C0440F551FCA95E2F7EA01C82BD92B10
:101D3000DD688ACF803C52E5950760F48F71C03A28
:101D4000D24508F03FC090E0982F8827EC01C46F7F
:101D5000D06A7ACF805C9245809708F07FCFDC2FE5
:101D6000CC27CC27DF71C06FD06A6ECFA497D06428
:101D70006BCFC85AD0E0CC0FDD1FC35BDE4F09909C
:101D8000D881C02DD46460CFD0655ECFCF71D0E054
:101D9000DC2FCC27C16FD06A57CF86958695877088
:101DA00020E2829FC0011124C37021E030E0A9012C
:101DB00002C0440F551FCA95E2F7EA01C82BD92B80
:101DC000DA6842CF0E94DA0FC82FD0E0DC2FCC2790
:101DD000CC27DF71D06238CF8F710E94DA0F65E0B7
:101DE000D695C7956A95E1F7CF70D0E0DC2FCC2768
:101DF000282F30E084FF05C054E0220F331F5A958E
:101E0000E1F7C22BD32BD0691FCF8D2F8F710E948A
:101E1000DA0F182FCE0199270E94360F212F30E0BC
:101E2000322F222722273F71282B392BE901D2CFCD
:101E3000773038F46A3050F4462F672F0E940B0237
:101E400008957D3F31F441E0623040F080E090E061
:101E500008957C3FD9F76230C8F740E00E9428021D
:101E600008950E94180F0E94FF0D0895803E91056D
:101E7000D1F1C8F48133910509F47FC048F4893267
:101E8000910509F46FC08A32910509F47DC0089567
:101E900089339105E1F082389105C9F085339105C8
:101EA00009F45BC00895843E9105D1F148F4823E67
:101EB000910531F1833E910541F181EE90E0089565
:101EC000863E9105C1F1873E9105E1F1089520918B
:101ED000C7022370211165C02091C80223FF14C0DE
:101EE00089E290E008952091C70220FD43C030911F
:101EF000C80230FF09C024FF4EC080E090E0089582
:101F00002091C70222FDF7CF08952091C70222FD3C
:101F100045C03091C80230FD44C024FFF5CFEDCF5D
:101F20002091C80221FFF0CF8091C70284FDE5CF48
:101F300087EE90E008952091C70223FFE5CF24FDAE
:101F4000DCCFF6CF2091C70223FD2EC03091C8020E
:101F500031FFE3CF84EE90E008952091C70225FF82
:101F6000D3CFBECF2091C70225FD21C02091C8024A
:101F700023FFCACF89E390E008952091C70226FF8E
:101F8000C3CF8AE290E008952091C70226FFBCCF1C
:101F900081E390E0089583EE90E0089582EE90E072
:101FA000089580EE90E0089586EE90E0089585E330
:101FB00090E0AACF9091C70292FF10C041E0282F75
:101FC0002471243009F040E031E0282F28712830B6
:101FD00009F030E0431711F02CE0822793FF10C086
:101FE00041E0282F2471243109F040E031E0282F0E
:101FF0002871283109F030E0431711F02CE08227D6
:102000003091C80230FF10C051E0282F21712130DB
:1020100009F050E041E0282F2871283009F040E015
:10202000541711F029E0822731FF10C041E0282F1A
:102030002171213109F040E031E0282F2871283149
:1020400009F030E0431711F029E0822794FD877EE4
:10205000089580E0089508950E942B100895089532
:102060000E942F100895E82FF0E0EE0FFF1FE952B5
:10207000FD4F808191810895089580EA8A95F1F756
:10208000089500C008950E943D100895F894E82F27
:10209000E295EF70F0E041A18F7021E030E0B901EE
:1020A00002C0660F771F8A95E2F7CB01962F9095B5
:1020B000942391A392A1892B82A3789408950F93DE
:1020C0001F93CF93DF93CDE8D1E089918F3F11F03B
:1020D0000E94461081E0C439D807B9F7C3E8D1E0BF
:1020E0000DE811E089918F3F11F00E9446100C1706
:1020F0001D07C1F7DF91CF911F910F910895A0E0C7
:10210000B0E0E5E8F0E10C949021EC01B62E062F4A
:1021100010E0C80183579E4F7C01FC0180818F3FF6
:1021200009F44FC0F894E82FE295EF70F0E091A128
:102130008F7021E030E001C0220F8A95EAF7892FE5
:10214000822B81A382A12095282322A378940E9428
:102150004110E3E8F1E041E050E0C12CD12C2191A5
:102160002F3F89F0A22FA295AF70A05EB0E08C91B6
:1021700090E02F7002C0959587952A95E2F78170BF
:102180009A01882311F020E030E0C22AD32A440FBC
:10219000551F81E0ED38F80711F7F70180818F3F77
:1021A00011F00E94461061E0C114D10409F460E00E
:1021B0008B2D0E944310000F111FC00FD11FD98219
:1021C000C882CDB7DEB7E9E00C94AC210E945F1065
:1021D0008EE0E7EDF2E0DF01982F1D929A95E9F786
:1021E000E9ECF2E0DF011D928A95E9F787E00E94B1
:1021F00039110E942C100895AEE0B0E0E2E0F1E168
:102200000C949421FE0131968EE0DF011D928A9597
:10221000E9F710E0FE2E0F2F612F8F2D902F0E94D7
:102220007F101F5F1730C1F74EE050E06F2D702F09
:1022300089EC92E00E94D22121E0892B81F420E0F8
:1022400047E067ED72E089EC92E00E943A11182FA6
:102250000E943010812F2E96E5E00C94B0218EE084
:10226000EF2DF02FA9ECB2E001900D928A95E1F7E5
:10227000E7CF0895A0E0B0E0E0E4F1E10C94912113
:10228000D82EE92EF62ED72F042FC22F222379F035
:1022900081E0809391020E94591A9093900280935A
:1022A0008F0280E0CDB7DEB7E8E00C94AD21C0909E
:1022B0009102CC20B1F380918F02909190020E9404
:1022C000821A059770F310E0000F111FA8016D2D01
:1022D0007E2D8F2D9D2F0E94D221892B41F0A801A8
:1022E0006D2D7E2D8F2D9D2F0E94DF21CC2D1092E4
:1022F00091028C2FD7CF0E94471C0E94700D0E9424
:10230000541C08950E94591C0E947F0D0E94731C4A
:1023100008950E94F2190E942D1C0E943A0D0E94FD
:102320007B110E9482110E944D0DFBCF9093A90159
:102330008093A80108950E94430D0895E3E9F2E017
:1023400088E0DF011D928A95E9F70E94D91208956D
:10235000FC0123812150330B23703327428150E04D
:1023600081E02417350709F080E008950F931F934B
:10237000CF93DF93EC01162F042F0E94A811811137
:1023800013C08A81FE01E80FF11D00FB17F91483C9
:102390008F5F83708A8388818F5F888381E0DF917C
:1023A000CF911F910F91089580E0F9CFCF93DF93E4
:1023B000FC01EA01A38182818A17B9F0AE0FBF2F19
:1023C000B11D14968C9187FB992790F98F77DB01CB
:1023D0008C93988383818F5F8370838381818F5FE8
:1023E000818381E0DF91CF91089580E0FBCF462F7C
:1023F000682F83E992E00E94B6110895AB01BC01F9
:1024000083E992E00E94D6110895AEE0B0E0EBE0DF
:10241000F2E10C94932180919202882351F0109262
:10242000920280919502809396028091930280930C
:1024300094020E9417130E949B11182F882361F1A8
:1024400010E08CEFF82E9DEFE92E1CC01E858D85C7
:102450001983882331F1EA820E94591ABC0149810B
:102460005A8182E091E00E9452031F83E8860E9415
:10247000591A682F82E0792F4F81588590E00E9489
:102480005203102FBE01635F7F4FCE010E960E9454
:10249000FE11082F8111DACF812F2E96E6E00C94E1
:1024A000AF21FA820E94591ABC0149815A8183E006
:1024B00091E00E9452031F83F8860E94591A682FE8
:1024C00083E0D9CF8FE891E00197F1F700C00000D9
:1024D000089590E06623E9F08C559E4FFC018081C1
:1024E0008F3FB1F0E82FE295EF70F0E041A18F70DF
:1024F00021E030E0B90102C0660F771F8A95E2F74C
:10250000CB01962F9095942391A392A1892B82A31E
:1025100008958A559E4FE2CF90E06623A9F08C552E
:102520009E4FFC0120812F3F91F0E22FE295EF704A
:10253000E05EF0E0808190E02F7002C09595879575
:102540002A95E2F7817008958A559E4FEACF80E080
:1025500008950895CF93DF93C0E080919B02C81740
:1025600060F00E946212C0E080919B02C81778F070
:102570000E94A912DF91CF91089560E08C2F0E94F4
:10258000691261E08C2F0E946912CF5FE6CF60E094
:102590008C2F0E948C12D82F61E08C2F0E948C12FD
:1025A000EC2FF0E0E256FD4F880F8D2B8083CF5F3C
:1025B000DBCF82E080939B020E94AA1208951F93B2
:1025C000CF93DF93182F440F642BC82FD0E0DE0188
:1025D000A256BD4FEC918E2F8370681721F1EE0F3C
:1025E000EE0FE62BEC93EF70F0E0EC56FE4FC45686
:1025F000DD4F90818881980F9883943024F060E0BB
:10260000812F0E94F71188818D3F24F461E0812F92
:102610000E94F7118881082E000C990B64E070E08D
:102620000E946D218883DF91CF911F910895CF93F0
:10263000DF93C0E080919B02C81718F0DF91CF9123
:10264000089561E08C2F0E948C12D82F60E08C2FAF
:102650000E948C12682F4D2F8C2F0E94DF12CF5FAB
:10266000E9CF0E94380C089580E00E9433108170F9
:1026700008950E94FC102FEF86E791E021508040E2
:102680009040E1F700C000000E94FC100E9434134B
:10269000882321F00E9431130E94B51A08950E94E8
:1026A000391308950E94E601089581E008950E947B
:1026B00055130895A4E0B0E0E0E6F3E10C94942112
:1026C000F82E09B110E0000F012F001F110BB80107
:1026D0006095709561706093A2028091A00268136A
:1026E00003C080E0FF2021F080E00E94521381E0CF
:1026F00029B1A22FB0E0B595A795A095B095BA8362
:10270000A9836A2F61706093A3029091A10269135B
:1027100002C0FF2011F181E00E94521329813A8109
:10272000220F331F227033273A83298331E0032796
:1027300089819A81802B912B092E000CAA0BBB0B4F
:10274000BC01CD010E9457138091A2029091A30277
:102750009093A1028093A00202C08111DFCF249642
:10276000E5E00C94B02157985F9A5198599A81E00E
:102770000E945A13089580E00E945A130895CF933F
:10278000DF93EB0186319C4719F50E940F0B9D8169
:102790009923A1F08A7A91E0811101C090E0909391
:1027A000A402882349F085E30E9442190E94C90BC4
:1027B00080E0DF91CF91089589E2F6CF8091A40265
:1027C000882321F085E30E945919F0CF89E2FBCFDD
:1027D00081E0EFCFCF93DF93EC01FB01858188236C
:1027E00009F4D2C09E0130572332310508F0B2C03F
:1027F0000E94540C9093C8028093C702FE01E150DE
:10280000F047E232F10520F4E85BFD4D0C948121A4
:102810008091C70281608093C70293C08091C802F3
:1028200088608093C8028DC08091C7028260F3CF18
:102830008091C7028460EFCF8091C7028860EBCFA0
:102840008091C8028160EDCF8091C8028260E9CF9B
:102850008091C7028061DFCF8091C7028062DBCFA9
:102860008091C7028064D7CF0E9491068091C702F1
:102870008068D1CF8091C7028C60CDCF8091C80293
:102880008360CFCF8091C7028E7FC5CF8091C80271
:10289000877FC7CF8091C7028D7FBDCF8091C70250
:1028A0008B7FB9CF8091C702877FB5CF8091C80257
:1028B0008E7FB7CF8091C8028D7FB3CF8091C70242
:1028C0008F7EA9CF8091C7028F7DA5CF8091C7024F
:1028D0008F7BA1CF0E9491068091C7028F779BCFFB
:1028E0008091C702837F97CF8091C8028C7F99CF58
:1028F0008091C70282FB992790F921E0922790FBF3
:1029000082F990FB83F987CF8091C802982F909528
:1029100091708E7F892B90FB81F983CF9091C702B4
:10292000892F8F7B96FF806476CF0E9491069091CD
:10293000C702892F97FB87F980586DCF81E00E94ED
:10294000E20C8091C7029091C8020E94590C0E942B
:10295000910680E0DF91CF91089580E0F0CF9091D3
:10296000C702892F8F7E94FF806155CF9091C70257
:10297000892F8E7F90FF81604ECF9091C802892F62
:10298000877F93FF88604DCF81E0E4CF282F35EB20
:102990002303C001112497FF04C080589109892F97
:1029A000089580589F4FFBCF8091AB0280FF0DC0F0
:1029B0006091090170E0660F771F60387105C0F5FE
:1029C00061157105B9F1862F089581FF07C06091E7
:1029D000090184E0689FB0011124EFCF82FF04C099
:1029E0006091090188E0F6CF8091AA028823E9F07E
:1029F000909108016091090170E0891730F093E02F
:102A0000660F771F9A95E1F7D8CF869F9001879F31
:102A1000300D112483E0220F331F8A95E1F7692FCF
:102A200070E0C9010E946D21C8CF68E070E0CBCF93
:102A30008FE7089581E008958091AB0280FF0CC07C
:102A40006091050170E075956795759567956115BD
:102A5000710561F1862F089581FF06C0609105011F
:102A600070E075956795F3CF6091050170E082FD88
:102A700015C02091A9022223B1F090910401609128
:102A8000050170E0291750F4269FA001279F500DE3
:102A90001124692F70E0CA010E946D216038710510
:102AA000B0F28FE7089561E070E0D4CF81E008953F
:102AB0009091AE022091AF02922B2091B102922B05
:102AC0002091B002922B992331F098E09093AA02C2
:102AD00091E09093A9028D3C31F40E94D414819529
:102AE0008093AF020895E2E3E80FE231B0F5F0E041
:102AF000E659FD4D0C9481210E94D414F1CF0E941F
:102B0000D41481958093AE0208950E94D414FACF14
:102B10000E941C158093B00208950E941C15819597
:102B2000F9CF0E941C1581958093B10208950E94EF
:102B30001C15FACF815D990B21E030E001C0220F16
:102B40008A95EAF78091AD02822B8093AD020895B9
:102B50008091AB0281608093AB0208958091AB02BB
:102B60008260F9CF8091AB028460F5CF4091AE02D4
:102B70008D3C59F48091AF0287FF0DC01092AF02D7
:102B8000442359F41092AA0208C08E3C81F480912B
:102B9000AF0218169CF3442381F08091B00290910B
:102BA000B102892B811159C01092A90208958F3C5E
:102BB00041F447FFF0CF1092AE028091AF0288231C
:102BC000E0CF803D19F41416B4F3E5CF9091B00234
:102BD000893D29F41916FCF61092B002DCCF8A3D2B
:102BE00019F497FFD8CFF8CF9091B1028B3D29F41B
:102BF00097FFD1CF1092B102CECF8C3D19F41916A8
:102C0000CCF3C9CF9FE2980F983090F4815D990B77
:102C100021E030E0B90102C0660F771F8A95E2F724
:102C2000CB0180959091AD0289238093AD02B3CF03
:102C30008D3D31F48091AB028E7F8093AB02ABCFA0
:102C40008E3D21F48091AB028D7FF7CF8F3D09F04F
:102C5000A2CF8091AB028B7FF0CF08950E94591ACA
:102C60002091AE023091AF02232B222321F08093DA
:102C7000A7029093A8022091B0023091B102232BB9
:102C8000222321F08093A5029093A6028CEA92E081
:102C90000E943818089586E0ECEAF2E0DF011D9208
:102CA0008A95E9F71092AA021092A9021092AB023B
:102CB0000895FC01828181110DC0838181110AC0B8
:102CC0008481811107C081E09581911101C080E06C
:102CD0008170089581E0FCCFA6E0B0E0E2E7F6E184
:102CE0000C94942186E0ECEAF2E09E012F5F3F4FC6
:102CF000D90101900D928A95E1F71092AE021092DF
:102D0000AF021092B0021092B1028B819C81892B8C
:102D10008901882391F08091A7029091A8020E94D6
:102D2000821A9C018091AA028823C9F140910A016C
:102D300050E04217530708F43FC08D819E81892BD4
:102D4000882399F08091A5029091A6020E94821A90
:102D50009C018091A902882309F467C04091060173
:102D600050E04217530708F46EC0B8018CEA92E0B5
:102D70000E948A19811105C08CEA92E00E945916BE
:102D800081110E942E1686E0F801ACEAB2E00190B3
:102D90000D928A95E1F72696E5E00C94B0214091DA
:102DA0000B019AE0499FA00111244217530728F60E
:102DB0008F5F8093AA0202C08F3FD1F7FB80FF2074
:102DC00059F00E94D41491E01F140CF09FEF899FDA
:102DD000802D11248093AE02FC80FF2059F00E94C8
:102DE000D41491E01F140CF09FEF899F802D1124C3
:102DF0008093AF028091AE02882309F49ECFF090B9
:102E0000AF02FF2009F499CF0E94C614811101C0BE
:102E100081E08093AE028F2D0E94C614882319F0A2
:102E20008093AF028ACF81E0FBCF409107019AE007
:102E3000499FA00111244217530708F096CF8F5FD6
:102E40008093A90202C08F3FD1F7FD80FF2059F087
:102E50000E941C1591E01F140CF09FEF899F802D9C
:102E600011248093B002FE80FF2059F00E941C15AF
:102E700091E01F140CF09FEF899F802D1124809307
:102E8000B1028091B002882309F46FCFF090B102B3
:102E9000FF2009F46ACF0E94C614811101C081E0AD
:102EA0008093B0028F2D0E94C614882319F080935E
:102EB000B1025BCF81E0FBCF0F931F93CF93DF93E2
:102EC000C42FD22FFC0185818823C9F04093B4021E
:102ED0000E94591A9093B3028093B20280E28C0F41
:102EE000883040F4C77081E001C0880FCA95EAF7C6
:102EF0000E943104DF91CF911F910F91089510919D
:102F0000B40214133CC08091B2029091B3020E94AB
:102F1000821A883C910598F5C0E2CD0F1D1741F14A
:102F200080E2810F883040F4177081E001C0880F83
:102F30001A95EAF70E943804C83020F0802F0E94CA
:102F40002804D8CF91E08D2F877001C0990F8A9502
:102F5000EAF7892F0E943104802F0E942804D7703D
:102F600081E001C0880FDA95EAF70E943804C2CFE9
:102F7000802F0E942804C83008F0BCCFF0CF80E238
:102F80008C0F883008F0B6CFC77081E001C0880F81
:102F9000CA95EAF7EACF0F93FC01CB01E851FC4751
:102FA000E730F10590F5E458FD4D0C94812106E2DF
:102FB00021EE41EE6AE17CE70E945C1780E00F9110
:102FC000089507E225EE45EE6BE17CE7F5CF06E2DA
:102FD00021EE40EE68E17CE7EFCF07E225EE44EE1C
:102FE00069E17CE7E9CF06E221EE42EE6CE17CE7A5
:102FF000E3CF07E225EE46EE6DE17CE7DDCF08E2A8
:1030000021E045EE6EE17CE7D7CFFB0185818111A0
:103010001092B40281E0D3CF9093BA028093B902A8
:103020000895E091B902F091BA02309729F0019029
:10303000F081E02D0995089580E00895E091B902AE
:10304000F091BA02309721F00280F381E02D0995CA
:103050000895DC01E091B902F091BA02309739F09D
:1030600086E08C930480F581E02DCD0109950895CB
:10307000DC01E091B902F091BA02309739F082E0B8
:103080008C930680F781E02DCD0109950895A3E08A
:10309000B0E0EDE4F8E10C9497219C018091B70237
:1030A0009091B80282179307A1F03093B802209351
:1030B000B702E091B902F091BA02309751F083E083
:1030C00089833B832A830084F185E02DCE0101961C
:1030D00009952396E2E00C94B321A3E0B0E0E3E786
:1030E000F8E10C9497219C018091B5029091B60271
:1030F00082179307A1F03093B6022093B502E091B6
:10310000B902F091BA02309751F084E089833B8391
:103110002A830084F185E02DCE010196099523963E
:10312000E2E00C94B32120910201309103012E5F63
:103130003F4F809116018823A9F08091C70287FF35
:1031400011C020910001309101012E5F3F4F9DE1A0
:1031500080E0F90140812F5F3F4F41118F5F915017
:10316000C0F7089595E0F4CF882321F190911601DE
:10317000992311F19091C70297FF1EC0982F969541
:1031800096959695803FB0F4E0910001F091010191
:10319000E90FF11D228130E0877041E050E0BA0173
:1031A00002C0660F771F8A95E2F72623372381E056
:1031B000232B91F480E008952091020130910301C6
:1031C000F9013296285F3F4F9191981721F0E2174D
:1031D000F307D1F7EFCF81E008959C01FC0132960F
:1031E0008FEF90E04191461751F08F3F19F4411154
:1031F00001C0892F9F5F9630A9F78F3F09F408958A
:10320000280F311D87FD3A95F901628308959C01CD
:10321000FC013296285F3F4F8191861303C0DF0186
:1032200011971C92E217F307B9F70895FC01862F56
:10323000869586958695603F60F4E80FF11D67706E
:1032400021E030E001C0220F6A95EAF78281822BEB
:1032500082830895FC01862F869586958695603F2A
:1032600080F4E80FF11D677081E090E09C0102C0DE
:10327000220F331F6A95E2F7B901609582816823B6
:1032800062830895682F80911601882359F08091F8
:10329000C70287FF07C080910001909101010E9441
:1032A0001619089580910201909103010E94ED1872
:1032B0000895682F80911601882359F08091C702E4
:1032C00087FF07C080910001909101010E942A1997
:1032D000089580910201909103010E9407190895B9
:1032E00080911601882379F08091C70287FF0BC077
:1032F000E0910001F091010132968EE1DF011D9213
:103300008A95E9F70895E0910201F0910301329660
:1033100086E0F4CFDC01FB0111969C91119781812D
:10332000981322C012968C911297882319F09281DB
:1033300089131AC013968C911397882319F09381DF
:10334000891312C015968C911597882319F09581D1
:1033500089130AC014969C91992321F081E024815D
:10336000291303C080E001C081E0817008950895B1
:103370000E94B71908958F5F8093BB020E94B8190D
:10338000089583E08093BB020E94B81908950E94BB
:10339000BB19089581E08093BB020E94B81908957B
:1033A0000E94CA190895089508950E94D419089595
:1033B000089508950E94D3190895CF930E94D819B3
:1033C0000E94FC100E94D919C0E08C2F0E9433107B
:1033D000892B31F4CF5FC730C1F780E0CF910895DA
:1033E00081E0FCCF85B7806885BF85B7806885BFE1
:1033F00008951F921FB61F9211248F939F93AF932E
:10340000BF938091BC02811113C08091E50290911D
:10341000E602A091E702B091E8024196A11DB11D1C
:103420008093E5029093E602A093E702B093E8024E
:10343000BF91AF919F918F911F901FBE1F901895C4
:103440008091ED02843031F10E9409031092BC0298
:1034500088E190E020E40FB6F894A895809360008E
:103460000FBE2093600083B7817F846083BF83B7E2
:10347000816083BF7894889583B78E7F83BF0FB6B2
:10348000F894A89580916000886180936000109204
:1034900060000FBE08950E9491060E940E030895D9
:1034A00082E084BD93E095BD9AEF97BD80936E0056
:1034B00008952FB7F8948091E5029091E602A091CB
:1034C000E702B091E8022FBF0895A4E0B0E0EBE678
:1034D000FAE10C9497218FB7F8942091E50230918E
:1034E000E6024091E7025091E80229833A834B8338
:1034F0005C838FBF69817A818B819C812496E2E015
:103500000C94B3219C014FB7F8948091E5029091FF
:10351000E602A091E702B091E8024FBF821B930B35
:10352000089578941F921FB61F9211248F939F9332
:10353000AF93BF938091E5029091E602A091E702DC
:10354000B091E8020196A11DB11D8093E502909310
:10355000E602A093E702B093E802BF91AF919F917A
:103560008F911F901FBE1F90189581E08093E000FF
:1035700080E28093D8001092C9008FE19EE4019709
:10358000F1F700C0000087E090EBDC018093F602C9
:103590009093F702A093F802B093F90288E19CE0BF
:1035A0000FB6F894A895809360000FBE90936000CA
:1035B000FFCF88E19CE00FB6F894A8958093600057
:1035C0000FBE90936000FFCF8091C5020895282F11
:1035D000CB01BA013091ED023430E1F42F70209329
:1035E000E9002FEF3091E80035FD07C035ED3A9541
:1035F000F1F7000021502111F5CF2091E80025FFBF
:1036000009C040E050E00E94EB1C8091E8008E77FA
:103610008093E8000895BC0143E050E082E00E94FE
:10362000E71A0895BC0146E050E082E00E94E71AE4
:103630000895BC0140E250E082E00E94E71A08953C
:10364000CF93DF93D82FC92F48E050E0682F792F10
:1036500081E00E94E71A88E0ED2FFC2FADEBB2E08D
:1036600001900D928A95E1F7DF91CF9108958091B5
:10367000EC02811109C00E94731E0E94D01E80912D
:10368000E20084608093E20008951092EC020895B5
:103690000E94CA1908956091E90281E0611101C098
:1036A00080E00E94C11908959091ED0281E094306C
:1036B00009F080E06091E9020E94C719089542E094
:1036C00061EC81E00E94EF1D42E261EC82E00E9429
:1036D000EF1D9091ED0281E0943009F080E060915F
:1036E000E9020E94BB1908958091EF02893089F1A7
:1036F00048F4823009F4A0C0833009F45AC0813004
:1037000041F008958A3009F487C08B3009F46CC009
:1037100008958091EE02813A09F04AC08091E80054
:10372000877F8093E8008091F2029091F302892BC9
:1037300061F060E080E090E070E00E943A1D8091CE
:10374000E8008B778093E800089568E08DEB92E0C5
:10375000F3CF8091EE02813259F58091F20290917F
:10376000F302029728F58091E800877F8093E800B4
:103770008091E80082FF18C09091F3008091F200E0
:10378000029731F48091F100813011F0863021F4FC
:103790008091F1008093C5028091E8008B7780933F
:1037A000E8000E94231E04C08091ED028111E0CF49
:1037B00008958091EE02813AD9F78091F2029091BA
:1037C000F302892BA9F78091E800877F8093E800B6
:1037D0008091E80080FFFCCF809116018093F1007A
:1037E0008091E8008E77DBCF8091EE02813201F785
:1037F0008091F2029091F302892BD1F68091E8003A
:10380000877F8093E8000E94231E8091F0028093BE
:1038100016010E94910608958091EE02813241F6D0
:103820008091E800877F8093E8000E94231E8091AA
:10383000F1028093C60208958091EE02813A09F068
:10384000B7CF8091E800877F8093E8008091E800FF
:1038500080FFFCCF8091C602C1CF84B7877F84BF31
:103860000FB6F894A89580916000886180936000FD
:10387000109260000FBE80E890E00FB6F89480933D
:103880006100909361000FBE0E94D01908950E94BC
:10389000731E0E94D01EE2EEF0E08081846080837F
:1038A00078940E94532108958CE091E00E940C18B6
:1038B00008958091ED02853031F48091ED028530DC
:1038C00019F00E944B1A08950E94201A8091EB0271
:1038D000882399F30E94DD19882379F30E94D51C6F
:1038E0000E949106EACF08959A014091F402509106
:1038F000F5020E947C1C0895AC01CB01D901252F53
:10390000332723303105E1F058F421303105C9F176
:1039100022303105D9F180E090E020E030E01EC097
:103920002132310521F122323105A9F7892BC1F16C
:103930006130710581F786EB90E02DE532E00EC035
:10394000CA019927413069F08230910569F0ECE0B5
:10395000F2E0892B01F7849190E09F012D933C9335
:103960000895E6EFF1E0F7CFE4EDF1E0F4CF892B35
:1039700091F06130710579F689E090E02BE332E057
:10398000EDCF82E190E02BE432E0E8CF8BE390E0F2
:1039900020E132E0E3CF89E090E022E232E0DECFC6
:1039A00084E490E023E133E0D9CF80E189BD82E176
:1039B00089BD09B400FEFDCF8091D8008F7D809332
:1039C000D8008091E00082608093E0008091E00068
:1039D00081FDFCCF0895AF92BF92CF92DF92FF920C
:1039E0000F931F93CF93DF936C01EB018A010E9429
:1039F000421EF82E811123C00115110539F0F8017E
:103A000080819181C81BD90BC80ED91EA12CB12C65
:103A10002097A9F08091E80085FD22C08091E80000
:103A20008E778093E80001151105A1F0F8018081DF
:103A300091818A0D9B1D9183808385E0F82E8F2DC7
:103A4000DF91CF911F910F91FF90DF90CF90BF90AA
:103A5000AF9008950E94421E8823E1F2F82EEFCF26
:103A6000F60181916F018093F1002197FFEFAF1A6A
:103A7000BF0ACECFFC019B018091F4029091F50228
:103A80008617970718F0672B61F0C90140E000978F
:103A900071F441110CC08091E80082FF35C080E0D4
:103AA00008958091E8008E778093E800EECF209112
:103AB000ED022223A9F12530A9F12091E80023FD90
:103AC0002DC02091E80022FDE6CF2091E80020FFE4
:103AD000DECF3091F3002091F200009719F02830EA
:103AE000310558F041E02830310509F040E02091DF
:103AF000E8002E772093E800CACF41914093F1006F
:103B000001972F5F3F4FE9CF8091ED02882341F06D
:103B1000853041F08091E80083FFBDCF81E00895BA
:103B200082E0089583E00895FC019B018091F402F6
:103B30009091F5028617970718F0672B61F0C9017D
:103B400040E0009771F441110CC08091E80082FFC1
:103B500036C080E008958091E8008E778093E80079
:103B6000EECF2091ED022223B1F12530B1F1209169
:103B7000E80023FD2EC02091E80022FDE6CF209131
:103B8000E80020FFDECF3091F3002091F200009793
:103B900019F02830310558F041E02830310509F09E
:103BA00040E02091E8002E772093E800CACF4491AE
:103BB0004093F100319601972F5F3F4FE8CF8091FE
:103BC000ED02882341F0853041F08091E80083FFC9
:103BD000BCCF81E0089582E0089583E00895982F96
:103BE000973028F08F708093E90081E008959093DA
:103BF000E900242F762F50E0981731F07091EC00F7
:103C00002091ED005091F00021FD02C09F5FE8CFB0
:103C10003091EB003E7F3093EB003091ED003D7F23
:103C20003093ED003091EB0031603093EB007093F6
:103C3000EC002093ED005093F0002091EE0027FD62
:103C4000E5CF80E008958091EE0287FF13C0809158
:103C5000E80082FF06C08091E8008B778093E8003F
:103C600004C08091ED028111F2CF08958091ED02A0
:103C70008823D9F38091E80080FFF8CF8091E80095
:103C80008E77ECCF2091E4003091E50095E6A90114
:103C90008091EC008170882331F08091E80080FFF2
:103CA00006C080E008952091E80022FD1BC08091AD
:103CB000ED02882391F0853091F08091EB0085FD35
:103CC00010C02091E4003091E5004217530701F342
:103CD00091509111DCCF84E0089582E0089583E053
:103CE000089581E008950E94E21E0E94EA1EE0EE1F
:103CF000F0E0808181608083E8EDF0E080818F7763
:103D0000808319BCA7EDB0E08C918E7F8C9380816D
:103D10008F7E80831092EC0208950F931F93CF93B0
:103D2000DF930E94E21E0E94EA1EC8EDD0E0888167
:103D30008F77888388818068888388818F7D888356
:103D400019BC1092ED021092E9021092EB0210924F
:103D5000EA0200EE10E0F80180818B7F8083888189
:103D60008160888342E060E080E00E94EF1DE1EE28
:103D7000F0E080818E7F8083E2EEF0E080818160E0
:103D80008083808188608083F80180818E7F80833A
:103D9000888180618883DF91CF911F910F91089571
:103DA000E8EDF0E080818F7E8083E7EDF0E08081B8
:103DB0008160808384E082BF81E08093EC020E9476
:103DC0008D1E0895E8EDF0E080818E7F8083109253
:103DD000E20008951092DA001092E10008951F9217
:103DE0000F920FB60F9211242F933F934F935F932F
:103DF0006F937F938F939F93AF93BF93EF93FF93B3
:103E00008091E10082FF0BC08091E20082FF07C039
:103E10008091E1008B7F8093E1000E94522180918C
:103E2000DA0080FF19C08091D80080FF15C0809112
:103E3000DA008E7F8093DA008091D90080FF94C0F1
:103E400080E189BD82E189BD09B400FEFDCF81E03A
:103E50008093ED020E94371B8091E10080FF19C022
:103E60008091E20080FF15C08091E2008E7F8093F8
:103E7000E2008091E20080618093E2008091D800AE
:103E800080628093D80019BC85E08093ED020E9487
:103E90004B1B8091E10084FF29C08091E20084FFE8
:103EA00025C080E189BD82E189BD09B400FEFDCF56
:103EB0008091D8008F7D8093D8008091E1008F7E23
:103EC0008093E1008091E2008F7E8093E2008091F8
:103ED000E20081608093E2008091E902882309F486
:103EE00049C084E08093ED020E94541B8091E10060
:103EF00083FF29C08091E20083FF25C08091E1000B
:103F0000877F8093E10082E08093ED021092E902C6
:103F10008091E1008E7F8093E1008091E2008E7FAE
:103F20008093E2008091E20080618093E20042E0B1
:103F300060E080E00E94EF1D8091F0008860809337
:103F4000F0000E94481BFF91EF91BF91AF919F91AC
:103F50008F917F916F915F914F913F912F910F9032
:103F60000FBE0F901F90189519BC1092ED020E9481
:103F7000451B72CF8091E30087FF02C083E0B2CF80
:103F800081E0B0CF1F920F920FB60F921124FF92D3
:103F90000F931F932F933F934F935F936F937F9351
:103FA0008F939F93AF93BF93CF93DF93EF93FF9341
:103FB00009EE10E0F8018081C091EC00C795CC2794
:103FC000C7958F70FC2EF82A1082C0EFD0E0888150
:103FD000877F888378940E940B20F8011082888163
:103FE00088608883CF2DCF70C083FF91EF91DF91E0
:103FF000CF91BF91AF919F918F917F916F915F9181
:104000004F913F912F911F910F91FF900F900FBEF5
:104010000F901F901895AAE2B0E0E1E1F0E20C9455
:1040200096218EEE92E0FC0101962091F100208312
:1040300022E0863F9207B9F70E94741B8091E80046
:1040400083FF38C08091EE029091EF029A3090F594
:10405000E92FF0E0ED57FD4D0C948121803889F077
:10406000823841F58091F2028F70873018F5809385
:10407000E9008091EB0085FB882780F91092E90028
:1040800006C08091EA029091EB02911182609091BA
:10409000E800977F9093E8008093F1001092F10080
:1040A0008091E8008E7723C0811116C08091F002C4
:1040B000813011F18091E80083FF0AC08091E8000F
:1040C000877F8093E8008091EB0080628093EB0013
:1040D000AA96E3E00C94B221823061F78091F0025D
:1040E000882389F01092E9008091E800877F80930F
:1040F000E8000E94231EDECF81E0933009F080E0CB
:104100008093EB02EFCF8091F2028F702FEF280F98
:10411000263080F68093E9002091EB0020FFE2CF6B
:10412000933031F48091EB0080628093EB00DACF22
:104130009091EB0090619093EB0021E030E0A901B9
:1041400002C0440F551F8A95E2F74093EA0010928F
:10415000EA008091EB008860E8CF8111ABCF10912D
:10416000F0021F778091E3008078812B8093E30039
:104170008091E800877F8093E8000E94231E809151
:10418000E80080FFFCCF8091E30080688093E3002B
:1041900083E0111101C082E08093ED028BCF805843
:1041A000823008F087CF8091F0029091F1028C3D2F
:1041B00053E0950799F583E08A838AE289834FB7B4
:1041C000F894DE01139620E03EE051E2E32FF0E0A8
:1041D00050935700849120FF03C082958F703F5FFA
:1041E0008F708A30C8F0895C90E08D939D932F5F2B
:1041F000243161F74FBF8091E800877F8093E8000A
:104200006AE270E0CE0101960E943A1D8091E800BA
:104210008B778093E8004ECF805DE6CF6091F2020D
:104220007091F302AE014F5F5F4F0E94741CBC019E
:10423000892B09F43FCF8091E800877F8093E800C5
:1042400089819A810E94941DE1CF803809F032CF94
:104250008091E800877F8093E8008091E902809355
:10426000F1001ECF811126CF9091F002923008F01C
:1042700021CF8091E800877F8093E8009093E90246
:104280000E94231E8091E902882331F084E080930C
:10429000ED020E945F1B0ECF8091E30087FDF6CFF9
:1042A00081E0F5CF0895CF938091ED02882399F0B6
:1042B0008091E900C091EC00C795CC27C7958F701D
:1042C000C82B1092E9008091E80083FD0E940B202A
:1042D000CF70C093E900CF91089597FB072E16F495
:1042E000009407D077FD09D00E94BE2107FC05D0BD
:1042F0003EF4909581959F4F0895709561957F4FFD
:104300000895EE0FFF1F0590F491E02D09942F9270
:104310003F924F925F926F927F928F929F92AF9255
:10432000BF92CF92DF92EF92FF920F931F93CF93A2
:10433000DF93CDB7DEB7CA1BDB0B0FB6F894DEBF39
:104340000FBECDBF09942A88398848885F846E845F
:104350007D848C849B84AA84B984C884DF80EE80A9
:10436000FD800C811B81AA81B981CE0FD11D0FB6B2
:10437000F894DEBF0FBECDBFED010895AA1BBB1B95
:1043800051E107C0AA1FBB1FA617B70710F0A61B55
:10439000B70B881F991F5A95A9F780959095BC0176
:1043A000CD010895FB01DC0104C08D9101908019BD
:1043B00021F441505040C8F7881B990B0895FB0128
:1043C000DC0102C001900D9241505040D8F7089591
:1043D000F999FECF92BD81BDF89A992780B50895CD
:1043E000A8E1B0E042E050E00C942C22DC01A40FE4
:1043F000B51F4150504048F0CB01840F951F2E91BE
:104400000E94072241505040D0F70895262FF99975
:10441000FECF92BD81BDF89A019700B4021639F023
:104420001FBA20BD0FB6F894FA9AF99A0FBE0895F4
:104430000396272F0E9407220E940622252F0E9402
:104440000722242F0C9407220196272F0E9407226F
:104450000C940622DC01CB01FC01F999FECF06C0C9
:10446000F2BDE1BDF89A319600B40D924150504032
:10447000B8F70895F894FFCF7D047D04C404C40404
:1044800029054605AC04AC044B05C205D305D3058C
:104490004214B6144A14141418144E141C14521452
:1044A0005E142814AF142C146214301466148E1485
:1044B00034146A1495143A14701478142014561491
:1044C00024145A143E14741484149E14AD140E143F
:1044D0004614BD147C157F1585159A159A159A15E5
:1044E0009A159A159A159A159A1588158D1591157C
:1044F0009715A815AE15B215E717ED17D717E117E1
:10450000F317F917FF172E2054205A2054205A2051
:0A451000AD20CF205A2025213221D2
:10451A0048026802280850011E0A1401E41A201BE6
:10452A00191B121B0B1B01E200E900EA00B500B6D9
:10453A0000B700CD008301CC008A019201940121C9
:10454A0002230224022502260227022A02B300B409
:10455A00006F0070009F01CB019F02A002E200E9F8
:10456A0000EA00B500B600B700CD008301CC008A8E
:10457A000192019401210223022402250226022724
:10458A00022A02B300B4006F0070009F01CB019FA2
:10459A0002A002C63435379567F1F0363033F73169
:1045AA0032F5F6F400FF0100010000FFFF000001F0
:0845BA000001FF0094936692DA
:00000001FF
