:100000000C94AC010C94E4010C94E4010C94E40114
:100010000C94E4010C94E4010C94E4010C94E401CC
:100020000C94E4010C94E4010C94751E0C94481F8C
:100030000C947F190C94E4010C94E4010C94E401F9
:100040000C94E4010C94E4010C94E4010C94E4019C
:100050000C94E4010C94171A0C94E4010C94E40140
:100060000C94E4010C94E4010C94E4010C94E4017C
:100070000C94E4010C94E4010C94E4010C94E4016C
:100080000C94E4010C94E4010C94E4010C94E4015C
:100090000C94E4010C94E4010C94E4010C94E4014C
:1000A0000C94E4010C94E4010C94E401A900AA006E
:1000B0004F005000AB00AC00520051001D001B006F
:1000C0000600190005001100100036003700380046
:1000D0001E001F00200021002200230029002B0009
:1000E0003900E10024002500260027002D002E0005
:1000F000E000E300E2002C0014001A0008001500E4
:1001000017001C002A0031002800E50018000C0030
:10011000120013002F0030004C00350065002C0049
:1001200004001600070009000A000B00E641E40085
:10013000500051000D000E000F003300340000008D
:10014000000000004F00520001000100010001000A
:10015000010001000100010001002C003A003B00F9
:100160003C003D003E003F00007C0100010001001A
:1001700040004100420043004400450001000100EE
:100180000100010001000100010001000100010067
:100190000100010001000100010001000100010057
:1001A00001000100460001004800010001000100BB
:1001B0000100010001000100010049004A004E0059
:1001C000010001000100010001000000000000002A
:1001D0004D004B002003730061006D006D006F0047
:1001E00074006800780063005F00360037006B0021
:1001F0006500790000001403730061006D006D005C
:100200006F007400680078006300000004030904B4
:1002100009023B00020100A0FA09040000010301E9
:100220000100092111010001224400070581030892
:10023000000109040100010300000009211101006F
:100240000122B6000705820320000112010002000E
:10025000000008EDFE000000010102000105010997
:1002600002A10185020901A100050919012908154A
:100270000025019508750181020501093009311534
:1002800081257F95027508810609381581257F959E
:100290000175088106050C0A38021581257F950134
:1002A00075088106C0C005010980A10185031901F7
:1002B0002AB700150126B700950175108100C00509
:1002C0000C0901A101850419012AA002150126A02B
:1002D00002950175108100C005010906A10185067E
:1002E000050719E029E71500250195087501810228
:1002F0000507190029EF1500250195F07501810208
:1003000005081901290595057501910295017503E7
:100310009101C005010906A101050719E029E715AA
:100320000025019508750181029501750881010577
:1003300007190029FF150026FF00950675088100A2
:10034000050819012905150025019505750191027A
:10035000950175039101C00011241FBECFEFDAE0B3
:10036000DEBFCDBF04B603FE18C08091F2029091AB
:10037000F302A091F402B091F5028730904BA740B0
:10038000B04B59F41092F2021092F3021092F40260
:100390001092F502E0E0F8E3099511E0A0E0B1E089
:1003A000E6E2F4E402C005900D92A83AB107D9F74D
:1003B00022E0A8EAB1E001C01D92A23FB207E1F736
:1003C0000E947C110C94C0210C9400008230B8F47F
:1003D0006730A8F44A3098F4E42FF0E09AE0699F7F
:1003E000E00DF11D112496E4899FE00DF11D11240B
:1003F000EE0FFF1FE454FF4F85919491089581E023
:1004000090E008950E94E6010895982F962B92306F
:1004100098F4E82FF0E0EE0FFF1FE60FF11DEE0F4E
:10042000FF1F81E04827E40FF11DEE0FFF1FE45589
:10043000FF4F85919491089581E090E008950E9486
:100440000502089581E008950E942202089581E046
:1004500008950E94220208950E9429020895089595
:100460000E942F020895A6E0B0E0E9E3F2E00C94C8
:100470001C2149835A839E833091AF0189819A81DF
:1004800031111AC03E81332399F0222389F00E9452
:10049000E907182F682F89819A810E94B607698120
:1004A0007A81812F0E940B0F2696E3E00C9438216D
:1004B0000E94D007182FF3CF0E94E90769817A8143
:1004C000F1CFFC01262F40815181628173818481AB
:1004D00095810E9433020895CF93DF93D82FC92FBF
:1004E00061E00E9461026D2F7C2F0E942402DF9147
:1004F000CF910895CF93DF93D82FC92F60E00E944A
:1005000061026D2F7C2F0E943002DF91CF91089500
:1005100081E008950E9488020895CF93C82F0E9419
:1005200088068C2F0E948A022FEF84E39CE02150E2
:1005300080409040E1F700C00000CF91089581E035
:100540000E948D020E943B1A089580E00E948D0255
:100550000E945F1A08950F931F93CF93DF938C012E
:1005600061E00E946102EC01B8010E942C02882324
:10057000B1F1B801CE010E945117882381F1B80171
:10058000CE010E947013882351F1B801CE010E9460
:100590004513882321F1F8018581882381F0CA352C
:1005A000FCE7DF0739F178F4C130ECE7DE07F9F05A
:1005B000C330FCE7DF07C9F0C115DC4771F0C801A3
:1005C0000E9427020DC0CB35ECE7DE07B1F0CC3539
:1005D000DC47A9F70E941D0CF2CF0E949F0280E029
:1005E000DF91CF911F910F9108950E942F0C0E94CF
:1005F000A502F5CF0E94270CE2CF0E942B0CDFCF83
:100600000E945B190E94270308950E942B030E94F9
:1006100060190895089581E008950895CF93DF93B8
:10062000D82F0E940B03C82F882319F08D2F0E940A
:100630000D038C2FDF91CF9108950895CF93C82F8C
:100640000E940A038C2F0E940E03CF91089580E030
:100650000E941E0308950E9497170E941E0308958A
:10066000CF930E949717C82F8091AA018C1779F019
:10067000C093AA010E94EB196093AB017093AC0187
:100680008093AD019093AE018C2F0E941E03CF91F9
:100690000895ADE0B0E0EFE4F3E00C941D2148874D
:1006A00059876A877B878C879D8791110E94280BC9
:1006B0001F8286E0FE013896DE01119601900D92B0
:1006C0008A95E1F78D8181110DC029813A814B8195
:1006D0005C816D817E818F810E946E0A2D96E2E0A1
:1006E0000C943921CE0101960E946C028111EDCF4C
:1006F000F5CFFC018481813021F4808191810E94B9
:100700001B080895662329F00E94DE140E94B41588
:1007100008950E943C15FACFCF93C82F882399F0F3
:100720008CEF8C0F813A88F48C2F0E943A18882322
:1007300029F08C2F0E94DF180E94C00B8C2F0E9482
:10074000C8180E94C00BCF91089580E28C0F8830AA
:1007500048F4C77081E001C0880FCA95EAF70E948B
:10076000090BEFCF8BE58C0F833038F42C2F2452FC
:10077000330BC9010E94CD17E6CFE8E5EC0FEB3152
:1007800050F4F0E0EE0FFF1FE95EFE4F8081918193
:100790000E94F317D8CF83E38C0F8331A0F661E07A
:1007A0008C2F0E948203CFCF882381F19CEF980F7A
:1007B000913A28F40E94DF180E94C00B089590E23D
:1007C000980F983050F4877091E001C0990F8A9586
:1007D000EAF7892F0E940F0BEFCF9BE5980F93301C
:1007E00028F480E090E00E94CD17089598E5980FD6
:1007F0009B3128F480E090E00E94F317089593E382
:10080000980F933118F460E00E94820308951F93BB
:10081000CF93DF93182FEB010E948C03209739F4BC
:10082000812F0E94D403DF91CF911F9108958FE90A
:100830009FE00197F1F700C000002197EFCF60E043
:1008400070E0893311F460E570E00E9407040895B8
:10085000882321F00E94090B0E94C00B0895882371
:1008600021F00E940F0B0E94C00B0895A0E0B0E0A1
:10087000ECE3F4E00C9417216C01D62FC72FFC0198
:100880001581068102950F700E94FE0AE82E8823CA
:10089000F9F0E12E1123E1F08C2F807F803461F09C
:1008A00080E28D0F8830F0F08C2F807E803221F432
:1008B000D230C0F00023B1F08091C40282FF12C098
:1008C00082E00E94F00B0E94FE0A91E0E82EE926E9
:1008D000EC2FE295EF70C03CB0F5F0E0EE53FE4D2A
:1008E0000C940721E12CF4CF0C2F0F70C03110F0C5
:1008F0000295007F112399F0002359F080E28D0FBB
:10090000883010F0D11107C0802F0E94090B0E947F
:10091000C00B8D2F51C0802F0E941A0BF8CF8D2F46
:100920000E94D403002379F080E28D0F883010F00C
:10093000D11104C0802F0E940F0B03C0802F0E9492
:10094000200B0E94C00BEE2089F00E94FA0A80FD65
:100950000DC0F60115820E94F40A0E941307C60119
:100960000E944F060E94F40A0E942307CDB7DEB70B
:10097000E8E00C943321FC2FFF70FF2EC07FC032C3
:1009800019F0F29480EFF822DD2341F0D130D1F15B
:10099000112309F444C00023F1F0BBCF8091C402BD
:1009A00082FD15C0112359F0FF2029F08F2D0E94E0
:1009B000090B0E94C00B80E00E948C03C4CF80E032
:1009C0000E94D403FF2009F4BECF8F2DB4CF112392
:1009D00069F0011104C08F2D0E942804B4CF0130AA
:1009E00009F0B1CF8F2D0E94400BADCF0111ABCFDD
:1009F0008F2D0E942F048F2D0E944C0B8F2D0E9453
:100A00002F0BA1CF112321F0063008F09CCFE3CFAC
:100A1000053008F098CF8F2D0E942F0494CF00232B
:100A2000D1F3D93349F42FEF87EE93E02150804082
:100A30009040E1F700C000008D2F0E94D40383CFC7
:100A40008C2F869586958370882369F0813009F014
:100A50007ACF8D2F9C2F9370111102C080E090E00F
:100A60000E94F31770CF8D2F9C2F9370111102C02D
:100A700080E090E00E94CD1766CF612F8D2F0E94FD
:100A8000820361CF8C2F8370811139C0111129C06D
:100A90004D2F429546954770440F440F2D2F2F70D0
:100AA00030E0042E02C0220F331F0A94E2F780E0E8
:100AB00090E0D4FF09C08FE090E002C0880F991F3A
:100AC0004A95E2F780959095C695C695C370822B9E
:100AD000932BC23071F0C33079F0C13039F00E94ED
:100AE000E3060E9497170E941E032DCF0E94DA068C
:100AF000F8CF0E94EC06F5CF0E94D706F2CF112363
:100B000061F1C0FFEECF4D2F429546954770440FDF
:100B1000440F2D2F2F7030E0042E02C0220F331F00
:100B20000A94E2F780E090E0D4FF09C08FE090E003
:100B300002C0880F991F4A95E2F780959095C69557
:100B4000C695C370822B932BC23069F0C33071F00D
:100B5000C13031F00E944E07C4CF823010F2D3CFA3
:100B60000E944507BECF0E945707BBCF0E94FB06DD
:100B7000B8CFCF70112339F08C2F0E9413078D2F1F
:100B80000E942804AECF8D2F0E942F048C2F0E942C
:100B90002307A7CFD23F31F170F4D03FB9F0D13F56
:100BA000B1F1112309F451C0002309F44BC08D2F7A
:100BB0000E948C0396CFD33FE1F0D43F21F1111175
:100BC000F3CF011150C08C2F8F71E1CF112341F071
:100BD000053008F086CF8C2F8F710E94350781CFAA
:100BE0000530F7CF8C2F8F711111D1CF0E941307D1
:100BF00078CF112329F08C2F8F710E94070771CFB6
:100C00000E9402076ECF8091C40282FD06C08C2F25
:100C10008F71112309F4BBCFE9CF112349F0CF71B4
:100C20008C2F0E94130763E08C2F0E94D20B59CFA8
:100C300081E00E94F00B023008F453CF82E00E9462
:100C4000F00B4FCF8C2F8F71D1CF002309F4BBCF86
:100C5000D93349F4EFEFF7EE23E0E150F0402040C4
:100C6000E1F700C000008D2F0E94D4033ACF0F930C
:100C70001F93CF93DF93EC01688179818D810E946E
:100C800028088C010E9460070E94D606B801CE0198
:100C90000E943604DF91CF911F910F910895CF9359
:100CA000DF93EC018C81882399F0CE010E94AB0286
:100CB000811111C00E94FE0A882351F08D81882382
:100CC00039F08091C40282FF03C082E00E94F00BE1
:100CD000DF91CF910895CE010E943706CE010E9488
:100CE0007A02F6CF80E090E00E94CD1780E090E09D
:100CF0000E94F3170E94280B0E94C00B0E94D1157E
:100D00000E94B41508950E94F6180E947206089574
:100D10000E94170B0E9483060895282F92959F70BA
:100D2000963091F060F4925F9F70923030F481E0E1
:100D3000203F79F030F4283E30F080E008959A5F4B
:100D4000F3CF243FD1F7089581E0283EE0F3213F1F
:100D5000F9CF0895FC018481882339F08081918145
:100D60000E941B080E948D06089580E00895A6E069
:100D7000B0E0EDEBF6E00C941D212696E2E00C9439
:100D80003921A7E0B0E0E7ECF6E00C941D212796AE
:100D9000E2E00C94392108950E94CB0608950E9448
:100DA000CC069093DB018093DA01089508950E94A8
:100DB000CF0608952091DA013091DB01822B932B2D
:100DC0000E94CF0608952091DA013091DB01822341
:100DD00093230E94CF0608952091DA013091DB0120
:100DE000822793270E94CF0608950E94CB0608957C
:100DF0000E94F50608950E94F8069093D901809309
:100E0000D801089580E090E00E94FB06089521E05B
:100E100030E0A90102C0440F551F8A95E2F7CA01CC
:100E20000E94FB06089521E030E002C0220F331F2C
:100E30008A95E2F78091D8019091D901822B932B6A
:100E40000E94FB06089521E030E002C0220F331F0C
:100E50008A95E2F7209530958091D8019091D9013B
:100E6000822393230E94FB06089521E030E002C014
:100E7000220F331F8A95E2F78091D8019091D90112
:100E8000822793270E94FB0608952091D801309174
:100E9000D901822B932B0E94FB0608952091D80143
:100EA0003091D901822393230E94FB06089520915B
:100EB000D8013091D901822793270E94FB0608951B
:100EC00008959B01677091E001C0990F6A95EAF758
:100ED00063E0369527956A95E1F7220F331F220FBD
:100EE000331FFA01E20FF31F40E050E0682F70E07B
:100EF0008191DF0111979B01042E02C03695279541
:100F00000A94E2F7217021952827292328272C937A
:100F10004F5F5F4F4430510559F708959C01982F5A
:100F2000977083E0369527958A95E1F7220F331F56
:100F3000220F331FFB01E20FF31F40E050E080E07F
:100F4000219130E0092E02C0369527950A94E2F7E8
:100F500021703327042E01C0220F0A94EAF7822B56
:100F60004F5F5F4F4430510559F70895282F862F62
:100F7000973070F42A3058F4622F70E02AE0929F84
:100F8000600D711D112444EB51E00E94610708952A
:100F90009C5F9230E0F7622F70E040EB51E0F5CFBC
:100FA000292F973068F48A3090F490E064EB71E078
:100FB0003AE0239F800D911D11240E948E07089511
:100FC0002C5F223020F460EB71E090E0F6CF80E0FF
:100FD0000895A0E0B0E0EFEEF7E00C9416218C014C
:100FE000E090D801F090D9018091DA019091DB0175
:100FF000E82AF92ACFE0D0E0CC24C394D12CC60152
:101000000C2E02C0880F991F0A94E2F78E219F21AF
:10101000892B49F4219798F7B12C8B2DCDB7DEB7EA
:10102000E9E00C943221BC2EB8018C2F0E94240FD1
:10103000019781F3F2CFCF93DF93D82FC92F0E946E
:10104000E9076D2F7C2F0E94240FDF91CF91089527
:101050001F93CF93DF93162FD72F9091AF01992332
:1010600041F0862F972F0E941B08DF91CF911F918F
:101070000895882381F0862F972F0E94E907C82FB3
:10108000682F812F9D2F0E94B607612F7D2F8C2FF7
:101090000E94240FEACF862F972F0E94D007C82FD7
:1010A000F4CF0F931F93CF93E091DC01C7E08091C1
:1010B000DD018E1304C0CF911F910F9108950E2F63
:1010C00010E0CE9FF0011124E252FE4F20813181C9
:1010D000428153816481758186810E94C106F80135
:1010E0003196E770E4CF20911602309117024091BB
:1010F00018025091190260911A0270911B0280919E
:101100001C020E94C106089580911C02803178F46F
:1011100080911B02882359F0E091DC012091DD01D0
:10112000309117024091160257E02E1301C0089526
:101130006E2F70E05E9FF0011124DF01A252BE4FBE
:1011400014968C911497882361F111968C911197C4
:10115000831327C08C91841324C015968C91159706
:1011600081111FC012968D919C91A0911802B0918F
:1011700019028A1B9B0B883C910598F480911C02F4
:101180008F70806180931C02EC51FE4F80818F70C4
:101190008061808386E192E00E944F060E945108A0
:1011A0000895FB013196E770C0CFE091DC0190918A
:1011B000DD0127E0E91302C080E00895AE2FB0E022
:1011C0002E9FF0011124E252FE4F3181361306C0EA
:1011D0003081381303C03581341304C0FD013196CA
:1011E000E770E8CF81E008958F929F92AF92BF920F
:1011F000DF92EF92FF920F931F93CF93DF93CDB7C0
:10120000DEB72D970FB6F894DEBF0FBECDBF8C01B1
:1012100086E0F801DE01189601900D928A95E1F7BB
:10122000F801E080F580A280B380848196E1892E68
:1012300092E0992E90911A0291111BC0882309F413
:10124000FCC0FF2009F43DC1C8010E94AA06882302
:1012500009F437C187E0F801D40101900D928A9515
:10126000E1F7C4010E9479030E9484080E94730878
:10127000E4C0D0901B022091180230911902A50100
:10128000421B530BDD2009F4DBC0483C510508F03C
:10129000A6C0882309F4D1C0909117029180809153
:1012A0001C02803108F06BC0991228C09091160280
:1012B0009E1124C0F1105DC08F70806180931C026C
:1012C0000E94730886E192E00E944F0680911C0202
:1012D000F8018683F12C8F2D2D960FB6F894DEBF82
:1012E0000FBECDBFDF91CF911F910F91FF90EF9077
:1012F000DF90BF90AF909F908F900895F11039C00C
:1013000040E0692D8E2D0E94D50840E0692D8E2D7C
:101310000E94D508F82E8111DDCF888599850E941D
:101320001B08292F22952F70903450F49F70223083
:1013300080F0992399F0F8019681903178F4CBCF21
:101340002A5F2F70223078F0C8010E944F06FD2CD2
:10135000C2CF992319F0882309F4BDCF805E88306D
:1013600008F4B9CFF1CF803F08F4B5CF815F823068
:10137000F7CF80911C02816080931C02ABCF991241
:1013800007C0909116029E1103C0FF2009F479C096
:10139000C8010E94AA06882309F493C0FF2009F41B
:1013A00090C080911C02803288F02091160230910A
:1013B00017023A832983BC82AB8290911A029D83E3
:1013C0001E828F83CE0101960E944F0687E0F801AE
:1013D000A6E1B2E001900D928A95E1F745CF909198
:1013E0001C029031A0F4488559856A857B858C85DF
:1013F0009D850E94B70686E192E00E944F0687E035
:10140000F40111928A95E9F70E94730863CF88234B
:10141000A1F02091170281812813BACF8091160282
:101420008E11B6CFF110B4CF9683C8010E944F063B
:1014300087E0F40111928A95E9F7FF24F3944BCFEA
:10144000483C510508F041C08823B9F3FF20C9F199
:1014500090911702818198132AC0809116028E11F3
:1014600026C080911C0280FD19C08031B8F08683AF
:10147000807F803F39F08681982F907F905F8F70BA
:10148000892B8683C8010E944F0687E0F801A6E1F8
:10149000B2E001900D928A95E1F7E8CE87E0F8017D
:1014A000A6E1B2E001900D928A95E1F7C6CFC8019E
:1014B0000E94AA0681118ACF80911C0281608093CC
:1014C0001C02C8010E944F06B8CF488559856A851D
:1014D0007B858C859D850E94B70691CFAEE0B0E0FC
:1014E000E4E7FAE00C941C21288739874A875B8758
:1014F0006C877D878E87CE0108960E94F40888232A
:10150000B1F06C85662341F0288539854A855B8575
:101510007D858E850E94C10617E08091DC01909147
:10152000DD0189133EC02E96E3E00C94382187E05C
:10153000FE013896DE01119601900D928A95E1F731
:101540002091DD014091DC018C85882329F330E076
:10155000C90101968770992750E08417950799F083
:1015600097E0929FD001939FB00D1124A252BE4FDD
:10157000FE01319601900D929A95E1F78093DD017D
:101580000E945108C9CF0E9488061092DD01109276
:10159000DC0187E0E6E1F2E0DF011D928A95E9F7E0
:1015A000BBCF189FC001112482529E4F0E94F408A5
:1015B000882309F4B8CFE091DC011E9FF0011124CB
:1015C000E252FE4F208131814281538164817581D5
:1015D00086810E94C1068091DC0190E001968770AF
:1015E00099278093DC0199CF809145028695869555
:1015F00086950895809145028770089590914502DF
:10160000977081E0911101C080E00895809171028E
:10161000089590917102982B909371020895982FDC
:1016200090958091710289238093710208951092A0
:101630007102089590917002982B90937002089512
:10164000982F90958091700289238093700208955D
:1016500010927002089508950E942B0B08959091A6
:101660004602292F2823222331F080958923809355
:1016700046020E942C0B089508950E943C0B089589
:1016800090914702292F2823281729F0982B90930F
:1016900047020E943D0B089590914702292F28236D
:1016A000222331F080958923809347020E943D0BCD
:1016B000089580914702882329F01092470280E024
:1016C0000E943D0B0895CF93DF93C09171028091EA
:1016D0007002C82BD0914702DD2331F00E94191807
:1016E00081110E94590BCD2B8C2FDF91CF91089542
:1016F000CF93DF93C0910201D09103010E94630B4D
:101700008883C0910201D091030148E050E06DE36D
:1017100072E0CE010E945821892B59F088E0FE0129
:10172000ADE3B2E001900D928A95E1F7CE010E94FF
:10173000A417DF91CF910895CF93DF93C09100015B
:10174000D09101010E94630B8983C0910001D09167
:10175000010140E250E06DE172E0CE010E945821AB
:10176000892B59F080E2FE01ADE1B2E001900D92CB
:101770008A95E1F7CE010E94AF17DF91CF910895CE
:1017800080911601882339F08091C30287FF03C03E
:101790000E949C0B08950E94780B089508950E9462
:1017A000CE0B08959091C40292FF11C098E0899FDA
:1017B00090011124622B609345020E9413078091CF
:1017C00045028695869586950E94CF0B08950E94C6
:1017D000130708951092450280E00E94CF0B0895F0
:1017E000909145028095892380934502282F277088
:1017F00021110DC0891759F09091C40292FF07C0C2
:101800008695869586950E9423070E94EA0B089587
:101810009091C40292FB222720F9281769F080FBDF
:1018200092F99093C4028091C3029091C4020E94E5
:10183000500C82E00E94F00B08958091C40282FB5C
:10184000882780F991E089270E94080C089581E09B
:101850000E94080C089580E00E94080C08956FEF24
:101860007FEF80E090E00E94AA21089580E090E060
:101870000E9476219C0181E0263E3E4F09F080E0E7
:10188000089582E090E00E946E21089583E090E048
:101890000E946E21089584E090E00E9476210895D0
:1018A000BC0184E090E00E94AA210895AB01BC0134
:1018B0008FE090E00E949E210895AB01BC0183E17E
:1018C00090E00E949E21089560E070E0CB010E94AC
:1018D0005D0C089560E070E0CB010E94560C0E9400
:1018E000640C0895A8E0B0E0E8E7FCE00C941D214A
:1018F00066EE7EEF80E090E00E94AA2160E082E048
:1019000090E00E948C2181E090E09093DB01809335
:10191000DA0161E083E090E00E948C2160E074E1F4
:1019200084E090E00E94AA2160E086E090E00E94BE
:101930008C2160E087E090E00E948C2140E050E044
:10194000BA0188E090E00E949E2160E084E290E08D
:101950000E948C2160E087E190E00E948C2160E091
:101960008CE090E00E948C2160E08DE090E00E948D
:101970008C2119821A821B821C821D821E821F8268
:10198000188648E050E068E170E0CE0101960E94C0
:101990007C2140E050E0BA0180E290E00E949E216C
:1019A0000E946A0C2896E2E00C9439210E94720C85
:1019B0000895682F8EE090E00E948C210895A6E0A3
:1019C000B0E0E5EEFCE00C941B210E94DF198C01D5
:1019D00080917202909173028017910779F01982B9
:1019E0001A820E94DF19BC0149815A8180E090E08F
:1019F0000E94490310937302009372022696E4E05A
:101A00000C9437210E94EB1960938A0270938B0229
:101A100080938C0290938D0260938602709387026C
:101A2000809388029093890208950E94EB19609335
:101A30008A0270938B0280938C0290938D02609344
:101A400082027093830280938402909385020895AA
:101A5000089508950E94280D089508950E942D0D5F
:101A600008958CE190E10E9489110E94290D0E9445
:101A70002A0D089581E008950E943A0D08950E946C
:101A80003A0D0895089508950E94420D0E94430D55
:101A900008950E94360C811102C00E94D60C0E944B
:101AA000410C80938E020E944B0C9093C402809351
:101AB000C3020E9442130E94460C90E00E94D70687
:101AC0008091D8019091D9010E94F80608950E9452
:101AD000D6190E9491110E94D9100E94490D0E94AE
:101AE0001D030E942E0D0895A6E0B0E0EAE7FDE098
:101AF0000C9411210E943C0D81110FC00E94DF0C3B
:101B00000E94F81181110E94150D0E94F2150E9489
:101B100030032696EEE00C942D210E94EF1024E76E
:101B2000822E22E0922E640110E0F601E190F19005
:101B30006F01812F0E9426101F5F173009F44DC0DE
:101B4000E816F90691F380918E0281FD0E942F1014
:101B50000E943F0D782EF12C662463948F2D0E94F5
:101B600026108C01F401A190B1904F018A159B05BC
:101B700069F1A826B926E12CCC24C394D12CC50147
:101B80008C219D21892BC1F07720B1F0E982FA8266
:101B90000E94DF199C838B836D8221E0C8018C2118
:101BA0009D21892B09F420E049815A816B817C8138
:101BB0008D81922F0E944903E394CC0CDD1CFAE046
:101BC000EF12DDCFF401329711830083F39487E0A5
:101BD000F812C4CF0E94020D93CFE816F90609F05F
:101BE000B2CF8CCF1F93CF93DF930E94290FEC01CC
:101BF000811522E5920708F053C0811540E594074E
:101C000008F0DDC0803E9105F8F48D3C910508F0A8
:101C1000AEC0883A910580F4853A910508F099C0E4
:101C20008130910521F00497813A910550F4CE015D
:101C3000DF91CF911F910895885A91094B9708F42D
:101C40008BC0C0E0D0E0F3CF811550E49507F8F4E5
:101C5000C11580E2D80708F0CBC0C83ED10538F3E3
:101C6000CE019A9581159F4160F78D2F0E94CD0F6F
:101C7000182FCE0199270E94290F212F30E0322FF3
:101C80002227E901CC27DF71C82BD92BD0CF992788
:101C90000E94290FCC27DF70C82BD92BD06AC7CF61
:101CA000803842E59407C8F5803652E5950708F07C
:101CB00067C0C03482E5D807B0F08C2F8695869532
:101CC000877020E2829FC0011124C37021E030E0C0
:101CD000A90102C0440F551FCA95E2F7EA01C82BBB
:101CE000D92BDC68A4CFC03252E5D50708F041C03B
:101CF0008C2F8695869520E2829FC0011124C370A7
:101D000021E030E0A90102C0440F551FCA95E2F757
:101D1000EA01C82BD92BDD688ACF803C52E59507B4
:101D200060F48F71C03AD24508F03FC090E0982F20
:101D30008827EC01C46FD06A7ACF805C9245809787
:101D400008F07FCFDC2FCC27CC27DF71C06FD06AA3
:101D50006ECFA497D0646BCFC85AD0E0CC0FDD1FF4
:101D6000C35BDE4F0990D881C02DD46460CFD065AD
:101D70005ECFCF71D0E0DC2FCC27C16FD06A57CFB8
:101D800086958695877020E2829FC0011124C370DA
:101D900021E030E0A90102C0440F551FCA95E2F7C7
:101DA000EA01C82BD92BDA6842CF0E94CD0FC82F89
:101DB000D0E0DC2FCC27CC27DF71D06238CF8F71F9
:101DC0000E94CD0F65E0D695C7956A95E1F7CF7073
:101DD000D0E0DC2FCC27282F30E084FF05C054E072
:101DE000220F331F5A95E1F7C22BD32BD0691FCF97
:101DF0008D2F8F710E94CD0F182FCE0199270E9431
:101E0000290F212F30E0322F222722273F71282B44
:101E1000392BE901D2CF773038F46A3050F4462FAD
:101E2000672F0E94020208957D3F31F441E0623045
:101E300040F080E090E008957C3FD9F76230C8F729
:101E400040E00E941F0208950E940B0F0E94F20DB5
:101E50000895803E9105D1F1C8F48133910509F4CC
:101E60007FC048F48932910509F46FC08A32910528
:101E700009F47DC0089589339105E1F08238910518
:101E8000C9F08533910509F45BC00895843E91053E
:101E9000D1F148F4823E910531F1833E910541F143
:101EA00081EE90E00895863E9105C1F1873E91054F
:101EB000E1F108952091C3022370211165C02091A2
:101EC000C40223FF14C089E290E008952091C30268
:101ED00020FD43C03091C40230FF09C024FF4EC032
:101EE00080E090E008952091C30222FDF7CF08958D
:101EF0002091C30222FD45C03091C40230FD44C090
:101F000024FFF5CFEDCF2091C40221FFF0CF8091C7
:101F1000C30284FDE5CF87EE90E008952091C302CF
:101F200023FFE5CF24FDDCCFF6CF2091C30223FDB4
:101F30002EC03091C40231FFE3CF84EE90E00895CB
:101F40002091C30225FFD3CFBECF2091C30225FD30
:101F500021C02091C40223FFCACF89E390E00895F5
:101F60002091C30226FFC3CF8AE290E0089520911A
:101F7000C30226FFBCCF81E390E0089583EE90E09A
:101F8000089582EE90E0089580EE90E0089586EE48
:101F900090E0089585E390E0AACF9091C30292FF6C
:101FA00010C041E0282F2471243009F040E031E0D6
:101FB000282F2871283009F030E0431711F02CE069
:101FC000822793FF10C041E0282F2471243109F0AB
:101FD00040E031E0282F2871283109F030E0431724
:101FE00011F02CE082273091C40230FF10C051E084
:101FF000282F2171213009F050E041E0282F28716D
:10200000283009F040E0541711F029E0822731FF11
:1020100010C041E0282F2171213109F040E031E06A
:10202000282F2871283109F030E0431711F029E0FA
:10203000822794FD877E089580E0089508950E9488
:102040001E10089508950E9422100895E82FF0E0D0
:10205000EE0FFF1FED52FD4F80819181089508958D
:1020600080EA8A95F1F7089500C008950E94301023
:102070000895F894E82FE295EF70F0E041A18F7099
:1020800021E030E0B90102C0660F771F8A95E2F7C0
:10209000CB01962F9095942391A392A1892B82A393
:1020A000789408950F931F93CF93DF93CDE8D1E0F9
:1020B00089918F3F11F00E94391081E0C439D8070F
:1020C000B9F7C3E8D1E00DE811E089918F3F11F035
:1020D0000E9439100C171D07C1F7DF91CF911F9196
:1020E0000F910895A0E0B0E0E8E7F0E10C9416212C
:1020F000EC01B62E062F10E0C80183579E4F7C01DD
:10210000FC0180818F3F09F44FC0F894E82FE295DD
:10211000EF70F0E091A18F7021E030E001C0220F5C
:102120008A95EAF7892F822B81A382A12095282303
:1021300022A378940E943410E3E8F1E041E050E0FB
:10214000C12CD12C21912F3F89F0A22FA295AF70E5
:10215000A05EB0E08C9190E02F7002C095958795BD
:102160002A95E2F781709A01882311F020E030E08F
:10217000C22AD32A440F551F81E0ED38F80711F722
:10218000F70180818F3F11F00E94391061E0C11486
:10219000D10409F460E08B2D0E943610000F111F4E
:1021A000C00FD11FD982C882CDB7DEB7E9E00C9449
:1021B00032210E9452108EE0E3EDF2E0DF01982F11
:1021C0001D929A95E9F7E5ECF2E0DF011D928A9500
:1021D000E9F787E00E942C110E941F100895AEE0DD
:1021E000B0E0E5EFF0E10C941A21FE0131968EE0AB
:1021F000DF011D928A95E9F710E0FE2E0F2F612F67
:102200008F2D902F0E9472101F5F1730C1F74EE084
:1022100050E06F2D702F85EC92E00E94582121E054
:10222000892B81F420E047E063ED72E085EC92E0D9
:102230000E942D11182F0E942310812F2E96E5E069
:102240000C9436218EE0EF2DF02FA5ECB2E001903A
:102250000D928A95E1F7E7CF0895A0E0B0E0E3E3BF
:10226000F1E10C941721D82EE92EF62ED72F042F4A
:10227000C22F222379F081E0809391020E94DF191E
:102280009093900280938F0280E0CDB7DEB7E8E0B4
:102290000C943321C0909102CC20B1F380918F0235
:1022A000909190020E94081A059770F310E0000FB9
:1022B000111FA8016D2D7E2D8F2D9D2F0E9458215D
:1022C000892B41F0A8016D2D7E2D8F2D9D2F0E9411
:1022D0006521CC2D109291028C2FD7CF0E94CD1B5F
:1022E0000E94670D0E94DA1B08950E94DF1B0E9466
:1022F000740D0E94F91B08950E9478190E94B31B67
:102300000E94310D0E946E110E9475110E94440DB1
:10231000FBCF9093A9018093A80108950E943A0DE4
:102320000895E3E9F2E088E0DF011D928A95E9F77C
:102330000E94CC120895FC0123812150330B23709D
:102340003327428150E081E02417350709F080E00F
:1023500008950F931F93CF93DF93EC01162F042F53
:102360000E949B11811113C08A81FE01E80FF11DAB
:1023700000FB17F914838F5F83708A8388818F5FD6
:10238000888381E0DF91CF911F910F91089580E0C4
:10239000F9CFCF93DF93FC01EA01A38182818A17F1
:1023A000B9F0AE0FBF2FB11D14968C9187FB992702
:1023B00090F98F77DB018C93988383818F5F837093
:1023C000838381818F5F818381E0DF91CF91089545
:1023D00080E0FBCF462F682F83E992E00E94A9118D
:1023E0000895AB01BC0183E992E00E94C9110895F0
:1023F000AEE0B0E0EEEFF1E10C9419218091920291
:10240000882351F010929202809195028093960257
:1024100080919302809394020E940A130E948E116D
:10242000182F882361F110E08CEFF82E9DEFE92E34
:102430001CC01E858D851983882331F1EA820E9494
:10244000DF19BC0149815A8182E091E00E94490371
:102450001F83E8860E94DF19682F82E0792F4F8161
:10246000588590E00E944903102FBE01635F7F4FA3
:10247000CE010E960E94F111082F8111DACF812F23
:102480002E96E6E00C943521FA820E94DF19BC01F9
:1024900049815A8183E091E00E9449031F83F886B5
:1024A0000E94DF19682F83E0D9CF8FE891E0019770
:1024B000F1F700C00000089590E06623E9F08C5524
:1024C0009E4FFC0180818F3FB1F0E82FE295EF70C5
:1024D000F0E041A18F7021E030E0B90102C0660F49
:1024E000771F8A95E2F7CB01962F9095942391A3BD
:1024F00092A1892B82A308958A559E4FE2CF90E046
:102500006623A9F08C559E4FFC0120812F3F91F04E
:10251000E22FE295EF70E05EF0E0808190E02F70B6
:1025200002C0959587952A95E2F7817008958A559E
:102530009E4FEACF80E008950895CF93DF93C0E0E7
:1025400080919B02C81760F00E945512C0E08091F4
:102550009B02C81778F00E949C12DF91CF910895DA
:1025600060E08C2F0E945C1261E08C2F0E945C1254
:10257000CF5FE6CF60E08C2F0E947F12D82F61E002
:102580008C2F0E947F12EC2FF0E0E256FD4F880F57
:102590008D2B8083CF5FDBCF82E080939B020E94F4
:1025A0009D1208951F93CF93DF93182F440F642B30
:1025B000C82FD0E0DE01A256BD4FEC918E2F837064
:1025C000681721F1EE0FEE0FE62BEC93EF70F0E0C1
:1025D000EC56FE4FC456DD4F90818881980F98834A
:1025E000943024F060E0812F0E94EA1188818D3FB1
:1025F00024F461E0812F0E94EA118881082E000CEA
:10260000990B64E070E00E94F3208883DF91CF9102
:102610001F910895CF93DF93C0E080919B02C8176C
:1026200018F0DF91CF91089561E08C2F0E947F1206
:10263000D82F60E08C2F0E947F12682F4D2F8C2F97
:102640000E94D212CF5FE9CF0E942F0C089580E044
:102650000E942610817008950E94EF102FEF86E7E8
:1026600091E0215080409040E1F700C000000E94BE
:10267000EF100E942713882321F00E9424130E9448
:102680003B1A08950E942C130895CF93DF93EB011A
:1026900086319C4719F50E94060B9D819923A1F074
:1026A0008A7A91E0811101C090E09093A002882382
:1026B00049F085E30E94C8180E94C00B80E0DF91BA
:1026C000CF91089589E2F6CF8091A002882321F06E
:1026D00085E30E94DF18F0CF89E2FBCF81E0EFCFE6
:1026E000CF93DF93EC01FB018581882309F4D2C0ED
:1026F0009E0130572332310508F0B2C00E944B0CC6
:102700009093C4028093C302FE01E150F047E2328D
:10271000F10520F4E253FE4D0C9407218091C30291
:1027200081608093C30293C08091C40288608093CB
:10273000C4028DC08091C3028260F3CF8091C30236
:102740008460EFCF8091C3028860EBCF8091C40298
:102750008160EDCF8091C4028260E9CF8091C30295
:102760008061DFCF8091C3028062DBCF8091C302A2
:102770008064D7CF0E9488068091C3028068D1CF41
:102780008091C3028C60CDCF8091C4028360CFCF93
:102790008091C3028E7FC5CF8091C402877FC7CF4F
:1027A0008091C3028D7FBDCF8091C3028B7FB9CF53
:1027B0008091C302877FB5CF8091C4028E7FB7CF4F
:1027C0008091C4028D7FB3CF8091C3028F7EA9CF49
:1027D0008091C3028F7DA5CF8091C3028F7BA1CF53
:1027E0000E9488068091C3028F779BCF8091C3029D
:1027F000837F97CF8091C4028C7F99CF8091C30251
:1028000082FB992790F921E0922790FB82F990FBB7
:1028100083F987CF8091C402982F909591708E7F15
:10282000892B90FB81F983CF9091C302892F8F7BF5
:1028300096FF806476CF0E9488069091C302892F0C
:1028400097FB87F980586DCF81E00E94D90C809169
:10285000C3029091C4020E94500C0E94880680E03E
:10286000DF91CF91089580E0F0CF9091C302892F3E
:102870008F7E94FF806155CF9091C302892F8E7F08
:1028800090FF81604ECF9091C402892F877F93FF84
:1028900088604DCF81E0E4CF282F35EB2303C001C2
:1028A000112497FF04C080589109892F08958058FA
:1028B0009F4FFBCF8091A70280FF0DC0609109015F
:1028C00070E0660F771F60387105C0F561157105FE
:1028D000B9F1862F089581FF07C06091090184E056
:1028E000689FB0011124EFCF82FF04C060910901FD
:1028F00088E0F6CF8091A6028823E9F09091080144
:102900006091090170E0891730F093E0660F771F3E
:102910009A95E1F7D8CF869F9001879F300D1124BB
:1029200083E0220F331F8A95E1F7692F70E0C90118
:102930000E94F320C8CF68E070E0CBCF8FE7089506
:1029400081E008958091A70280FF0CC0609105018D
:1029500070E075956795759567956115710561F1DD
:10296000862F089581FF06C06091050170E075957E
:102970006795F3CF6091050170E082FD15C020914D
:10298000A5022223B1F0909104016091050170E04D
:10299000291750F4269FA001279F500D1124692F5D
:1029A00070E0CA010E94F32060387105B0F28FE731
:1029B000089561E070E0D4CF81E008959091AA027B
:1029C0002091AB02922B2091AD02922B2091AC0270
:1029D000922B992331F098E09093A60291E0909386
:1029E000A5028D3C31F40E945A1481958093AB026C
:1029F0000895E2E3E80FE231B0F5F0E0E051FE4D7A
:102A00000C9407210E945A14F1CF0E945A14819508
:102A10008093AA0208950E945A14FACF0E94A21429
:102A20008093AC0208950E94A2148195F9CF0E9470
:102A3000A21481958093AD0208950E94A214FACF4A
:102A4000815D990B21E030E001C0220F8A95EAF701
:102A50008091A902822B8093A90208958091A702F8
:102A600081608093A70208958091A7028260F9CFC8
:102A70008091A7028460F5CF4091AA028D3C59F461
:102A80008091AB0287FF0DC01092AB02442359F432
:102A90001092A60208C08E3C81F48091AB021816F9
:102AA0009CF3442381F08091AC029091AD02892B7C
:102AB000811159C01092A50208958F3C41F447FF3F
:102AC000F0CF1092AA028091AB028823E0CF803D24
:102AD00019F41416B4F3E5CF9091AC02893D29F4B2
:102AE0001916FCF61092AC02DCCF8A3D19F497FF60
:102AF000D8CFF8CF9091AD028B3D29F497FFD1CF7D
:102B00001092AD02CECF8C3D19F41916CCF3C9CF7B
:102B10009FE2980F983090F4815D990B21E030E0AE
:102B2000B90102C0660F771F8A95E2F7CB01809545
:102B30009091A90289238093A902B3CF8D3D31F4EE
:102B40008091A7028E7F8093A702ABCF8E3D21F4A8
:102B50008091A7028D7FF7CF8F3D09F0A2CF8091A2
:102B6000A7028B7FF0CF08950E94DF192091AA025F
:102B70003091AB02232B222321F08093A302909368
:102B8000A4022091AC023091AD02232B222321F02C
:102B90008093A1029093A20288EA92E00E94BE175D
:102BA000089586E0E8EAF2E0DF011D928A95E9F7F0
:102BB0001092A6021092A5021092A7020895FC019D
:102BC000828181110DC0838181110AC084818111AC
:102BD00007C081E09581911101C080E08170089566
:102BE00081E0FCCFA6E0B0E0E8EFF5E10C941A211B
:102BF00086E0E8EAF2E09E012F5F3F4FD9010190A5
:102C00000D928A95E1F71092AA021092AB021092EF
:102C1000AC021092AD028B819C81892B89018823A3
:102C200091F08091A3029091A4020E94081A9C0145
:102C30008091A6028823C9F140910A0150E0421711
:102C4000530708F43FC08D819E81892B882399F01A
:102C50008091A1029091A2020E94081A9C01809189
:102C6000A502882309F467C04091060150E042178D
:102C7000530708F46EC0B80188EA92E00E94101968
:102C8000811105C088EA92E00E94DF1581110E943F
:102C9000B41586E0F801A8EAB2E001900D928A9599
:102CA000E1F72696E5E00C94362140910B019AE07D
:102CB000499FA00111244217530728F68F5F809384
:102CC000A60202C08F3FD1F7FB80FF2059F00E947F
:102CD0005A1491E01F140CF09FEF899F802D11244E
:102CE0008093AA02FC80FF2059F00E945A1491E0C0
:102CF0001F140CF09FEF899F802D11248093AB024D
:102D00008091AA02882309F49ECFF090AB02FF20A5
:102D100009F499CF0E944C14811101C081E0809385
:102D2000AA028F2D0E944C14882319F08093AB02C5
:102D30008ACF81E0FBCF409107019AE0499FA00133
:102D400011244217530708F096CF8F5F8093A50296
:102D500002C08F3FD1F7FD80FF2059F00E94A214DE
:102D600091E01F140CF09FEF899F802D1124809318
:102D7000AC02FE80FF2059F00E94A21491E01F14C3
:102D80000CF09FEF899F802D11248093AD028091DC
:102D9000AC02882309F46FCFF090AD02FF2009F454
:102DA0006ACF0E944C14811101C081E08093AC0273
:102DB0008F2D0E944C14882319F08093AD025BCFB5
:102DC00081E0FBCF0F931F93CF93DF93C42FD22FBC
:102DD000FC0185818823C9F04093B0020E94DF196D
:102DE0009093AF028093AE0280E28C0F883040F463
:102DF000C77081E001C0880FCA95EAF70E942804D5
:102E0000DF91CF911F910F9108951091B00214138B
:102E10003CC08091AE029091AF020E94081A883C9B
:102E2000910598F5C0E2CD0F1D1741F180E2810FA9
:102E3000883040F4177081E001C0880F1A95EAF7D6
:102E40000E942F04C83020F0802F0E941F04D8CF8A
:102E500091E08D2F877001C0990F8A95EAF7892F2D
:102E60000E942804802F0E941F04D77081E001C0B7
:102E7000880FDA95EAF70E942F04C2CF802F0E94B4
:102E80001F04C83008F0BCCFF0CF80E28C0F883030
:102E900008F0B6CFC77081E001C0880FCA95EAF785
:102EA000EACF0F93FC01CB01E851FC47E730F10575
:102EB00090F5EE5FFD4D0C94072106E221EE41EE08
:102EC0006AE17CE70E94E21680E00F91089507E234
:102ED00025EE45EE6BE17CE7F5CF06E221EE40EE14
:102EE00068E17CE7EFCF07E225EE44EE69E17CE79D
:102EF000E9CF06E221EE42EE6CE17CE7E3CF07E2A8
:102F000025EE46EE6DE17CE7DDCF08E221E045EEFF
:102F10006EE17CE7D7CFFB01858181111092B00271
:102F200081E0D3CF9093B6028093B5020895E091EB
:102F3000B502F091B602309729F00190F081E02DB2
:102F40000995089580E00895E091B502F091B602E8
:102F5000309721F00280F381E02D09950895DC017E
:102F6000E091B502F091B602309739F086E08C938B
:102F70000480F581E02DCD0109950895DC01E091F3
:102F8000B502F091B602309739F082E08C9306805A
:102F9000F781E02DCD0109950895A3E0B0E0E3EDC0
:102FA000F7E10C941D219C018091B3029091B40231
:102FB00082179307A1F03093B4022093B302E091FB
:102FC000B502F091B602309751F083E089833B83DC
:102FD0002A830084F185E02DCE0101960995239680
:102FE000E2E00C943921A3E0B0E0E9EFF7E10C94C2
:102FF0001D219C018091B1029091B202821793072A
:10300000A1F03093B2022093B102E091B502F091A9
:10301000B602309751F084E089833B832A83008491
:10302000F185E02DCE01019609952396E2E00C94FE
:10303000392120910201309103012E5F3F4F809191
:1030400016018823A9F08091C30287FF11C0209147
:103050000001309101012E5F3F4F9DE180E0F901B9
:1030600040812F5F3F4F41118F5F9150C0F708950E
:1030700095E0F4CF882321F190911601992311F165
:103080009091C30297FF1EC0982F9695969596959E
:10309000803FB0F4E0910001F0910101E90FF11DD2
:1030A000228130E0877041E050E0BA0102C0660F33
:1030B000771F8A95E2F72623372381E0232B91F4AB
:1030C00080E008952091020130910301F9013296C8
:1030D000285F3F4F9191981721F0E217F307D1F73E
:1030E000EFCF81E008959C01FC0132968FEF90E0D4
:1030F0004191461751F08F3F19F4411101C0892FBA
:103100009F5F9630A9F78F3F09F40895280F311D6E
:1031100087FD3A95F901628308959C01FC0132967E
:10312000285F3F4F8191861303C0DF0111971C92E6
:10313000E217F307B9F70895FC01862F8695869567
:103140008695603F60F4E80FF11D677021E030E084
:1031500001C0220F6A95EAF78281822B828308954B
:10316000FC01862F869586958695603F80F4E80F52
:10317000F11D677081E090E09C0102C0220F331FB7
:103180006A95E2F7B90160958281682362830895A8
:10319000682F80911601882359F08091C30287FF20
:1031A00007C080910001909101010E949C18089530
:1031B00080910201909103010E9473180895682F75
:1031C00080911601882359F08091C30287FF07C0C0
:1031D00080910001909101010E94B01808958091A2
:1031E0000201909103010E948D18089580911601AB
:1031F000882379F08091C30287FF0BC0E091000122
:10320000F091010132968EE1DF011D928A95E9F776
:103210000895E0910201F0910301329686E0F4CF27
:10322000DC01FB0111969C9111978181981322C0BA
:1032300012968C911297882319F0928189131AC0E3
:1032400013968C911397882319F09381891312C0D8
:1032500015968C911597882319F0958189130AC0CA
:1032600014969C91992321F081E02481291303C0B5
:1032700080E001C081E08170089508950E943D19A9
:1032800008958F5F8093B7020E943E19089583E0EE
:103290008093B7020E943E1908950E944119089533
:1032A00081E08093B7020E943E1908950E94501950
:1032B0000895089508950E945A190895089508954B
:1032C0000E9459190895CF930E945E190E94EF1031
:1032D0000E945F19C0E08C2F0E942610892B31F4C8
:1032E000CF5FC730C1F780E0CF91089581E0FCCF78
:1032F00085B7806885BF85B7806885BF08951F92B0
:103300001FB61F9211248F939F93AF93BF93809109
:10331000B802811113C08091E1029091E202A09164
:10332000E302B091E4024196A11DB11D8093E10238
:103330009093E202A093E302B093E402BF91AF91B5
:103340009F918F911F901FBE1F9018958091E90249
:10335000843031F10E9400031092B80288E190E0BD
:1033600020E40FB6F894A895809360000FBE2093D8
:10337000600083B7817F846083BF83B7816083BF30
:103380007894889583B78E7F83BF0FB6F894A895FD
:1033900080916000886180936000109260000FBE91
:1033A00008950E9488060E940503089582E084BD66
:1033B00093E095BD9AEF97BD80936E0008952FB767
:1033C000F8948091E1029091E202A091E302B09121
:1033D000E4022FBF0895A4E0B0E0E1EFF9E10C941E
:1033E0001D218FB7F8942091E1023091E2024091C3
:1033F000E3025091E40229833A834B835C838FBFBD
:1034000069817A818B819C812496E2E00C94392138
:103410009C014FB7F8948091E1029091E202A09153
:10342000E302B091E4024FBF821B930B089578949E
:103430001F921FB61F9211248F939F93AF93BF9338
:103440008091E1029091E202A091E302B091E40246
:103450000196A11DB11D8093E1029093E202A09319
:10346000E302B093E402BF91AF919F918F911F90BF
:103470001FBE1F90189581E08093E00080E280934A
:10348000D8001092C9008FE19EE40197F1F700C0C7
:10349000000087E090EBDC018093F2029093F3024E
:1034A000A093F402B093F50288E19CE00FB6F89483
:1034B000A895809360000FBE90936000FFCF88E1D5
:1034C0009CE00FB6F894A895809360000FBE90938F
:1034D0006000FFCF8091C1020895282FCB01BA016F
:1034E0003091E9023430E1F42F702093E9002FEF9E
:1034F0003091E80035FD07C035ED3A95F1F7000051
:1035000021502111F5CF2091E80025FF09C040E0AE
:1035100050E00E94711C8091E8008E778093E80053
:103520000895BC0143E050E082E00E946D1A0895C6
:10353000BC0146E050E082E00E946D1A0895BC0193
:1035400040E250E082E00E946D1A0895CF93DF932D
:10355000D82FC92F48E050E0682F792F81E00E94D2
:103560006D1A88E0ED2FFC2FA9EBB2E001900D92CF
:103570008A95E1F7DF91CF9108958091E80281115A
:1035800009C00E94F91D0E94561E8091E2008460CD
:103590008093E20008951092E80208950E94501965
:1035A00008956091E50281E0611101C080E00E9410
:1035B000471908959091E90281E0943009F080E084
:1035C0006091E5020E944D19089542E061EC81E0AE
:1035D0000E94751D42E261EC82E00E94751D90918F
:1035E000E90281E0943009F080E06091E5020E94F8
:1035F000411908958091EB02893089F148F48230B5
:1036000009F4A0C0833009F45AC0813041F0089514
:103610008A3009F487C08B3009F46CC0089580911A
:10362000EA02813A09F04AC08091E800877F8093DE
:10363000E8008091EE029091EF02892B61F060E04A
:1036400080E090E070E00E94C01C8091E8008B77E1
:103650008093E800089568E089EB92E0F3CF8091D1
:10366000EA02813259F58091EE029091EF020297C1
:1036700028F58091E800877F8093E8008091E8003A
:1036800082FF18C09091F3008091F200029731F40C
:103690008091F100813011F0863021F48091F100A9
:1036A0008093C1028091E8008B778093E8000E94AC
:1036B000A91D04C08091E9028111E0CF0895809195
:1036C000EA02813AD9F78091EE029091EF02892BBC
:1036D000A9F78091E800877F8093E8008091E80057
:1036E00080FFFCCF809116018093F1008091E8006B
:1036F0008E77DBCF8091EA02813201F78091EE0272
:103700009091EF02892BD1F68091E800877F80931A
:10371000E8000E94A91D8091EC02809316010E948E
:10372000880608958091EA02813241F68091E8008E
:10373000877F8093E8000E94A91D8091ED0280930D
:10374000C20208958091EA02813A09F0B7CF8091D0
:10375000E800877F8093E8008091E80080FFFCCF3D
:103760008091C202C1CF84B7877F84BF0FB6F8941F
:10377000A89580916000886180936000109260003D
:103780000FBE80E890E00FB6F894809361009093AC
:1037900061000FBE0E94561908950E94F91D0E94F3
:1037A000561EE2EEF0E080818460808378940E946F
:1037B000D92008958CE091E00E949217089580919D
:1037C000E902853031F48091E902853019F00E94D8
:1037D000D11908950E94A6198091E702882399F3D0
:1037E0000E946319882379F30E945B1C0E9488065B
:1037F000EACF08959A014091F0025091F1020E949F
:10380000021C0895AC01CB01D901252F33272330A9
:103810003105E1F058F421303105C9F1223031058C
:10382000D9F180E090E020E030E01EC02132310587
:1038300021F122323105A9F7892BC1F161307105DF
:1038400081F786EB90E02DE532E00EC0CA019927A2
:10385000413069F08230910569F0ECE0F2E0892BAB
:1038600001F7849190E09F012D933C930895E6EF3A
:10387000F1E0F7CFE4EDF1E0F4CF892B91F0613086
:10388000710579F689E090E02BE332E0EDCF82E13B
:1038900090E02BE432E0E8CF8BE390E020E132E0EF
:1038A000E3CF89E090E022E232E0DECF84E490E0F2
:1038B00023E133E0D9CF80E189BD82E189BD09B43C
:1038C00000FEFDCF8091D8008F7D8093D80080913D
:1038D000E00082608093E0008091E00081FDFCCFF9
:1038E0000895AF92BF92CF92DF92FF920F931F93F2
:1038F000CF93DF936C01EB018A010E94C81DF82E63
:10390000811123C00115110539F0F80180819181E1
:10391000C81BD90BC80ED91EA12CB12C2097A9F019
:103920008091E80085FD22C08091E8008E77809329
:10393000E80001151105A1F0F801808191818A0D3F
:103940009B1D9183808385E0F82E8F2DDF91CF9191
:103950001F910F91FF90DF90CF90BF90AF9008958F
:103960000E94C81D8823E1F2F82EEFCFF601819165
:103970006F018093F1002197FFEFAF1ABF0ACECFFE
:10398000FC019B018091F0029091F102861797074C
:1039900018F0672B61F0C90140E0009771F4411104
:1039A0000CC08091E80082FF35C080E008958091CE
:1039B000E8008E778093E800EECF2091E902222381
:1039C000A9F12530A9F12091E80023FD2DC0209117
:1039D000E80022FDE6CF2091E80020FFDECF309105
:1039E000F3002091F200009719F02830310558F0CB
:1039F00041E02830310509F040E02091E8002E77C1
:103A00002093E800CACF41914093F10001972F5FC6
:103A10003F4FE9CF8091E902882341F0853041F0A2
:103A20008091E80083FFBDCF81E0089582E0089592
:103A300083E00895FC019B018091F0029091F102D6
:103A40008617970718F0672B61F0C90140E00097CF
:103A500071F441110CC08091E80082FF36C080E013
:103A600008958091E8008E778093E800EECF209152
:103A7000E9022223B1F12530B1F12091E80023FDC4
:103A80002EC02091E80022FDE6CF2091E80020FF23
:103A9000DECF3091F3002091F200009719F028302A
:103AA000310558F041E02830310509F040E020911F
:103AB000E8002E772093E800CACF44914093F100AC
:103AC000319601972F5F3F4FE8CF8091E90288231D
:103AD00041F0853041F08091E80083FFBCCF81E068
:103AE000089582E0089583E00895982F973028F094
:103AF0008F708093E90081E008959093E900242F6E
:103B0000762F50E0981731F07091EC002091ED0085
:103B10005091F00021FD02C09F5FE8CF3091EB0093
:103B20003E7F3093EB003091ED003D7F3093ED0010
:103B30003091EB0031603093EB007093EC002093F8
:103B4000ED005093F0002091EE0027FDE5CF80E0DE
:103B500008958091EA0287FF13C08091E80082FFF8
:103B600006C08091E8008B778093E80004C08091C4
:103B7000E9028111F2CF08958091E9028823D9F3F7
:103B80008091E80080FFF8CF8091E8008E77ECCF3D
:103B90002091E4003091E50095E6A9018091EC00C8
:103BA0008170882331F08091E80080FF06C080E0BA
:103BB00008952091E80022FD1BC08091E90288232E
:103BC00091F0853091F08091EB0085FD10C020913F
:103BD000E4003091E5004217530701F39150911131
:103BE000DCCF84E0089582E0089583E0089581E0C9
:103BF00008950E94681E0E94701EE0EEF0E0808131
:103C000081608083E8EDF0E080818F77808319BC4C
:103C1000A7EDB0E08C918E7F8C9380818F7E808326
:103C20001092E80208950F931F93CF93DF930E94A1
:103C3000681E0E94701EC8EDD0E088818F7788834F
:103C400088818068888388818F7D888319BC1092E1
:103C5000E9021092E5021092E7021092E60200EEED
:103C600010E0F80180818B7F808388818160888368
:103C700042E060E080E00E94751DE1EEF0E08081AE
:103C80008E7F8083E2EEF0E080818160808380819E
:103C900088608083F80180818E7F80838881806145
:103CA0008883DF91CF911F910F910895E8EDF0E0A7
:103CB00080818F7E8083E7EDF0E08081816080836A
:103CC00084E082BF81E08093E8020E94131E089581
:103CD000E8EDF0E080818E7F80831092E20008950D
:103CE0001092DA001092E10008951F920F920FB621
:103CF0000F9211242F933F934F935F936F937F9372
:103D00008F939F93AF93BF93EF93FF938091E100C5
:103D100082FF0BC08091E20082FF07C08091E1002A
:103D20008B7F8093E1000E94D8208091DA0080FF91
:103D300019C08091D80080FF15C08091DA008E7F75
:103D40008093DA008091D90080FF94C080E189BD22
:103D500082E189BD09B400FEFDCF81E08093E902D4
:103D60000E94BD1A8091E10080FF19C08091E2009D
:103D700080FF15C08091E2008E7F8093E2008091E9
:103D8000E20080618093E2008091D800806280939D
:103D9000D80019BC85E08093E9020E94D11A809175
:103DA000E10084FF29C08091E20084FF25C080E10A
:103DB00089BD82E189BD09B400FEFDCF8091D800A4
:103DC0008F7D8093D8008091E1008F7E8093E10009
:103DD0008091E2008F7E8093E2008091E20081601A
:103DE0008093E2008091E502882309F449C084E0D1
:103DF0008093E9020E94DA1A8091E10083FF29C0D2
:103E00008091E20083FF25C08091E100877F80934D
:103E1000E10082E08093E9021092E5028091E100E6
:103E20008E7F8093E1008091E2008E7F8093E2009C
:103E30008091E20080618093E20042E060E080E0F7
:103E40000E94751D8091F00088608093F0000E94B0
:103E5000CE1AFF91EF91BF91AF919F918F917F917A
:103E60006F915F914F913F912F910F900FBE0F90E7
:103E70001F90189519BC1092E9020E94CB1A72CFBC
:103E80008091E30087FF02C083E0B2CF81E0B0CF32
:103E90001F920F920FB60F921124FF920F931F9350
:103EA0002F933F934F935F936F937F938F939F9342
:103EB000AF93BF93CF93DF93EF93FF9309EE10E09F
:103EC000F8018081C091EC00C795CC27C7958F7011
:103ED000FC2EF82A1082C0EFD0E08881877F88838B
:103EE00078940E94911FF8011082888188608883ED
:103EF000CF2DCF70C083FF91EF91DF91CF91BF9114
:103F0000AF919F918F917F916F915F914F913F9171
:103F10002F911F910F91FF900F900FBE0F901F9048
:103F20001895AAE2B0E0E7E9FFE10C941C218AEEC3
:103F300092E0FC0101962091F100208322E0823F73
:103F40009207B9F70E94FA1A8091E80083FF38C0FF
:103F50008091EA029091EB029A3090F5E92FF0E01F
:103F6000E75FFD4D0C940721803889F0823841F5D8
:103F70008091EE028F70873018F58093E900809170
:103F8000EB0085FB882780F91092E90006C080913C
:103F9000E6029091E702911182609091E800977F8C
:103FA0009093E8008093F1001092F1008091E80076
:103FB0008E7723C0811116C08091EC02813011F1FF
:103FC0008091E80083FF0AC08091E800877F80939A
:103FD000E8008091EB0080628093EB00AA96E3E01A
:103FE0000C943821823061F78091EC02882389F0AB
:103FF0001092E9008091E800877F8093E8000E949A
:10400000A91DDECF81E0933009F080E08093E702C4
:10401000EFCF8091EE028F702FEF280F263080F6C1
:104020008093E9002091EB0020FFE2CF933031F440
:104030008091EB0080628093EB00DACF9091EB00EF
:1040400090619093EB0021E030E0A90102C0440FA1
:10405000551F8A95E2F74093EA001092EA0080919A
:10406000EB008860E8CF8111ABCF1091EC021F7795
:104070008091E3008078812B8093E3008091E800B9
:10408000877F8093E8000E94A91D8091E80080FF4F
:10409000FCCF8091E30080688093E30083E01111FE
:1040A00001C082E08093E9028BCF8058823008F013
:1040B00087CF8091EC029091ED028C3D53E0950703
:1040C00099F583E08A838AE289834FB7F894DE0109
:1040D000139620E03EE051E2E32FF0E050935700CA
:1040E000849120FF03C082958F703F5F8F708A306C
:1040F000C8F0895C90E08D939D932F5F243161F728
:104100004FBF8091E800877F8093E8006AE270E00B
:10411000CE0101960E94C01C8091E8008B778093AD
:10412000E8004ECF805DE6CF6091EE027091EF0225
:10413000AE014F5F5F4F0E94FA1BBC01892B09F44F
:104140003FCF8091E800877F8093E80089819A8142
:104150000E941A1DE1CF803809F032CF8091E8002B
:10416000877F8093E8008091E5028093F1001ECF65
:10417000811126CF9091EC02923008F021CF8091EE
:10418000E800877F8093E8009093E5020E94A91DD4
:104190008091E502882331F084E08093E9020E9457
:1041A000E51A0ECF8091E30087FDF6CF81E0F5CFD1
:1041B0000895CF938091E902882399F08091E900D6
:1041C000C091EC00C795CC27C7958F70C82B109273
:1041D000E9008091E80083FD0E94911FCF70C09399
:1041E000E900CF91089597FB072E16F4009407D0AD
:1041F00077FD09D00E94442107FC05D03EF490953C
:1042000081959F4F0895709561957F4F0895EE0FAA
:10421000FF1F0590F491E02D09942F923F924F9249
:104220005F926F927F928F929F92AF92BF92CF9246
:10423000DF92EF92FF920F931F93CF93DF93CDB74F
:10424000DEB7CA1BDB0B0FB6F894DEBF0FBECDBFC7
:1042500009942A88398848885F846E847D848C8498
:104260009B84AA84B984C884DF80EE80FD800C81A1
:104270001B81AA81B981CE0FD11D0FB6F894DEBF84
:104280000FBECDBFED010895AA1BBB1B51E107C0B6
:10429000AA1FBB1FA617B70710F0A61BB70B881FD6
:1042A000991F5A95A9F780959095BC01CD01089565
:1042B000FB01DC0104C08D910190801921F4415073
:1042C0005040C8F7881B990B0895FB01DC0102C020
:1042D00001900D9241505040D8F70895F999FECFC2
:1042E00092BD81BDF89A992780B50895A8E1B0E004
:1042F00042E050E00C94B221DC01A40FB51F415004
:10430000504048F0CB01840F951F2E910E948D21C3
:1043100041505040D0F70895262FF999FECF92BD15
:1043200081BDF89A019700B4021639F01FBA20BD7A
:104330000FB6F894FA9AF99A0FBE08950396272FAC
:104340000E948D210E948C21252F0E948D21242FD7
:104350000C948D210196272F0E948D210C948C2185
:10436000DC01CB01FC01F999FECF06C0F2BDE1BD35
:10437000F89A319600B40D9241505040B8F7089524
:10438000F894FFCF74047404BB04BB0420053D05FE
:10439000A304A3044205B905CA05CA05C8133C1401
:1043A000D0139A139E13D413A213D813E413AE138D
:1043B0003514B213E813B613EC131414BA13F01334
:1043C0001B14C013F613FE13A613DC13AA13E01379
:1043D000C413FA130A14241433149413CC1343147F
:1043E000021505150B152015201520152015201573
:1043F0002015201520150E15131517151D152E1532
:10440000341538156D1773175D17671779177F17F0
:104410008517B41FDA1FE01FDA1FE01F3320552075
:06442000E01FAB20B820F4
:1044260048026802280850011E0A14016A1AA61AD0
:104436009F1A981A911A01E200E900EA00B500B63F
:1044460000B700CD008301CC008A019201940121BE
:1044560002230224022502260227022A02B300B4FE
:10446600006F0070009F01CB019F02A002E200E9ED
:1044760000EA00B500B600B700CD008301CC008A83
:104486000192019401210223022402250226022719
:10449600022A02B300B4006F0070009F01CB019F97
:1044A60002A002C63435379567F1F0363033F7315E
:1044B60032F5F6F400FF0100010000FFFF000001E5
:0844C6000001FF0094936692CF
:00000001FF
