:100000000C94AC010C94E4010C94E4010C94E40114
:100010000C94E4010C94E4010C94E4010C94E401CC
:100020000C94E4010C94E4010C94301F0C94032014
:100030000C94421A0C94E4010C94E4010C94E40135
:100040000C94E4010C94E4010C94E4010C94E4019C
:100050000C94E4010C94CB1A0C94E4010C94E4018C
:100060000C94E4010C94E4010C94E4010C94E4017C
:100070000C94E4010C94E4010C94E4010C94E4016C
:100080000C94E4010C94E4010C94E4010C94E4015C
:100090000C94E4010C94E4010C94E4010C94E4014C
:1000A0000C94E4010C94E4010C94E401AB00AC006A
:1000B000A900AA004F005000510052001D001B0073
:1000C0000600190005001100100036003700380046
:1000D0001E001F00200021002200230029002B0009
:1000E0003900E10024002500260027002D002E0005
:1000F000E000E300E2002C0014001A0008001500E4
:1001000017001C002A0031002800E50018000C0030
:10011000120013002F0030004C00350065002C0049
:1001200004001600070009000A000B00E641E40085
:10013000500051000D000E000F003300340000008D
:10014000000000004F00520001000100010001000A
:10015000010001000100010001002C003A003B00F9
:100160003C003D003E003F00007C0100010001001A
:1001700040004100420043004400450001000100EE
:100180000100010001000100010001000100010067
:100190000100010001000100010001000100010057
:1001A00001000100460001004800010001000100BB
:1001B0000100010001000100010049004A004E0059
:1001C000010001000100010001000000000000002A
:1001D0004D004B002003730061006D006D006F0047
:1001E00074006800780063005F00360037006B0021
:1001F0006500790000001403730061006D006D005C
:100200006F007400680078006300000004030904B4
:1002100009023B00020100A0FA09040000010301E9
:100220000100092111010001224400070581030892
:10023000000109040100010300000009211101006F
:100240000122B6000705820320000112010002000E
:10025000000008EDFE000000010102000105010997
:1002600002A10185020901A100050919012908154A
:100270000025019508750181020501093009311534
:1002800081257F95027508810609381581257F959E
:100290000175088106050C0A38021581257F950134
:1002A00075088106C0C005010980A10185031901F7
:1002B0002AB700150126B700950175108100C00509
:1002C0000C0901A101850419012AA002150126A02B
:1002D00002950175108100C005010906A10185067E
:1002E000050719E029E71500250195087501810228
:1002F0000507190029EF1500250195F07501810208
:1003000005081901290595057501910295017503E7
:100310009101C005010906A101050719E029E715AA
:100320000025019508750181029501750881010577
:1003300007190029FF150026FF00950675088100A2
:10034000050819012905150025019505750191027A
:10035000950175039101C00011241FBECFEFDAE0B3
:10036000DEBFCDBF04B603FE18C08091FC029091A1
:10037000FD02A091FE02B091FF028730904BA74092
:10038000B04B59F41092FC021092FD021092FE0242
:100390001092FF02E0E0F8E3099511E0A0E0B1E07F
:1003A000E6EFF4E402C005900D92AE3AB107D9F73A
:1003B00022E0AEEAB1E001C01D92AC3FB207E1F726
:1003C0000E9497110C9479220C940000811105C0B1
:1003D000662319F08EEA0E94280481E00895823095
:1003E000B8F46730A8F44A3098F4E42FF0E09AE0CB
:1003F000699FE00DF11D112496E4899FE00DF11D28
:100400001124EE0FFF1FE454FF4F8591949108953E
:1004100081E090E008950E94EF0108958230B8F4E1
:100420006230A8F4E82FF0E0EE0FFF1F6E0F7F2F71
:10043000711D660F771FE1E0E427E60FF72FF11D2E
:10044000EE0FFF1FE455FF4F85919491089581E0D1
:1004500090E008950E940E02089581E008950E94A0
:100460002D02089581E008950E942D0208950E94B2
:100470003402089508950E943A020895A6E0B0E07B
:10048000E4E4F2E00C94D52149835A839E833091B1
:10049000B50189819A8131111AC03E81332399F0C7
:1004A000222389F00E94FD07182F682F89819A81E5
:1004B0000E94CA0769817A81812F0E94290F26969E
:1004C000E3E00C94F1210E94E407182FF3CF0E947F
:1004D000FD0769817A81F1CFFC01262F408151818E
:1004E00062817381848195810E943E020895CF9339
:1004F000DF93EC0161E00E946C02BE010E942F02BA
:10050000DF91CF910895CF93DF93EC0160E00E94DB
:100510006C02BE010E943B02DF91CF91089581E001
:1005200008950E948F020895CF93C82F0E94A006BD
:100530008C2F0E9491022FEF84E39CE02150804099
:100540009040E1F700C00000CF91089581E00E9443
:1005500094020E94F11A089580E00E9494020E9481
:10056000151B08950F931F93CF93DF938C0161E0C8
:100570000E946C02EC01B8010E943702811106C092
:1005800080E0DF91CF911F910F910895B801CE01C6
:100590000E9412188823A1F3B801CE010E9405140D
:1005A000882371F3B801CE010E94DB13882341F345
:1005B000F8018581882361F0C330FCE7DF07E9F0AB
:1005C00058F4C115ECE7DE07A9F0C130DC47B9F0FB
:1005D000C8010E943202D5CFCB358CE7D807A9F0ED
:1005E000CC35ECE7DE0771F0CA35DC4789F70E94AD
:1005F000450CEECF0E94A602C3CF0E944D0C0E9474
:10060000AC02BECF0E943B0CE3CF0E94490CE0CF6E
:100610000E941E1A0E942F0308950E9433030E9415
:10062000231A0895089581E008950895CF93DF93E4
:10063000D82F0E941303C82F882319F08D2F0E94F2
:1006400015038C2FDF91CF9108950895CF93C82F74
:100650000E9412038C2F0E941603CF91089580E010
:100660000E94260308950E9462180E94260308959E
:10067000CF930E946218C82F8091B0018C1779F037
:10068000C093B0010E94B01A6093B1017093B2019F
:100690008093B3019093B4018C2F0E942603CF91D5
:1006A0000895ADE0B0E0E7E5F3E00C94D62148878B
:1006B00059876A877B878C879D8791110E944B0B96
:1006C0001F8286E0FE013896DE01119601900D92A0
:1006D0008A95E1F78D8181110DC029813A814B8185
:1006E0005C816D817E818F810E94930A2D96E2E06C
:1006F0000C94F221CE0101960E9477028111EDCF78
:10070000F5CFFC012481213021F4808191810E9468
:100710002F080895662329F00E948B150E947716F2
:1007200008950E94FB15FACFCF938823A1F0C82F1C
:100730008CEF8C0F813A88F48C2F0E94FE1888234E
:1007400029F08C2F0E949E190E94DF0B8C2F0E9493
:1007500087190E94DF0BCF91089580E28C0F8830BB
:1007600048F4C77081E001C0880FCA95EAF70E947B
:100770002C0BEFCFEBE5EC0FE33040F4F0E0E35B64
:10078000FE4F808190E00E949618E5CFE8E5EC0FDF
:10079000EB3150F4F0E0EE0FFF1FE95EFE4F808179
:1007A00091810E94BB18D7CF83E38C0F833198F6D9
:1007B00061E08C2F0E948A03CECF882381F19CEFC9
:1007C000980F913A28F40E949E190E94DF0B089519
:1007D00090E2980F983050F4877091E001C0990F23
:1007E0008A95EAF7892F0E94320BEFCF9BE5980F8D
:1007F000933028F490E080E00E949618089598E5E0
:10080000980F9B3128F490E080E00E94BB18089577
:1008100093E3980F933118F460E00E948A030895DF
:100820001F93CF93DF93182FEB010E94940320971F
:1008300039F4812F0E94DD03DF91CF911F9108953C
:100840008FE99FE00197F1F700C000002197EFCFFB
:1008500070E060E0893311F460E570E00E941004FC
:100860000895882321F00E942C0B0E94DF0B08952D
:10087000882321F00E94320B0E94DF0B0895B0E024
:10088000A0E0E5E4F4E00C94D0216C01D62FC72F52
:10089000FC011581068102950F700E94220BE82E43
:1008A0008823F9F0E12E1123E1F08C2F807F803432
:1008B00061F080E28D0F883070F18C2F807E803265
:1008C00021F4D23040F1002331F18091CE0282FF39
:1008D00022C082E00E940F0C0E94220B91E0E82EC1
:1008E000E926FC2EF2949FE0F922FBE0FF1508F4C4
:1008F00043C0EF2DF0E0E158FB4F0C94C0218D0474
:100900008D04D404D40439055A05BC04BC045F0525
:10091000D305E405E405E12CE4CF0C2F0F70C07F74
:1009200011F00295007F112399F0002359F080E225
:100930008D0F883010F0D11107C0802F0E942C0B32
:100940000E94DF0B8D2F51C0802F0E943D0BF8CFEE
:100950008D2F0E94DD03002379F080E28D0F883017
:1009600010F0D11104C0802F0E94320B03C0802FE1
:100970000E94430B0E94DF0BEE2089F00E941E0BA9
:1009800080FD0DC0F60115820E94180B0E942807F9
:10099000C6010E9467060E94180B0E943807CDB757
:1009A000DEB7E8E00C94EC212C2F2F70F22EC07FE4
:1009B000C03219F0F29480EFF822DD2341F0D130FB
:1009C000D1F1112309F444C00023F1F0BBCF809191
:1009D000CE0282FD15C0112359F0FF2029F08F2D82
:1009E0000E942C0B0E94DF0B80E00E949403C4CF76
:1009F00080E00E94DD03FF2009F4BECF8F2DB4CF2D
:100A0000112369F0011104C08F2D0E943104B4CF6D
:100A1000013009F0B1CF8F2D0E94620BADCF0111D3
:100A2000ABCF8F2D0E9438048F2D0E946E0B8F2D1F
:100A30000E94520BA1CF112321F0063008F09CCF69
:100A4000E3CF053008F098CF8F2D0E94380494CF63
:100A50000023D1F3D93349F48FEF97EEE3E08150CF
:100A60009040E040E1F700C000008D2F0E94DD03C0
:100A700083CF8C2F86958695837041F0813081F0ED
:100A800088EF8F0D843008F077CF46C08D2F9C2FD4
:100A90009370111102C080E090E00E9496186CCF14
:100AA0008D2F9C2F9370111102C080E090E00E9466
:100AB000BB1862CF612F8D2F0E948A035DCF8C2FD0
:100AC0008370C1F5111128C04D2F4295469547708E
:100AD000440F440F2D2F2F7030E0042E02C0220F40
:100AE000331F0A94E2F790E080E0D4FF09C08FE062
:100AF00090E002C0880F991F4A95E2F78095909583
:100B0000822B932BC695C695C370C23069F078F4DA
:100B1000C13039F00E94F8060E9462180E94260334
:100B20002BCF0E94EF06F8CF0E940107F5CF0E945D
:100B3000EC06F2CF8695112311F08C2F817088235B
:100B400059F34D2F429546954770440F440F2D2F72
:100B50002F7030E0042E02C0220F331F0A94E2F7F8
:100B600090E080E0D4FF09C08FE090E002C0880FE1
:100B7000991F4A95E2F780959095822B932BC69505
:100B8000C695C370C23049F058F4C13019F00E94C4
:100B90006307C2CF0E945A07BFCF0E946C07BCCF29
:100BA0000E941007B9CFCF70112339F08C2F0E940B
:100BB00028078D2F0E943104AFCF8D2F0E9438045B
:100BC0008C2F0E943807A8CFD23F61F170F4D03F3C
:100BD000D9F0D13F91F0112309F44DC0002309F45D
:100BE00047C08D2F0E9494034BCFD33F11F1D43FC8
:100BF00091F78091CE0282FD26C08C2F8F71112338
:100C0000A9F00E9428073CCF112341F0053008F0DD
:100C100037CF8C2F8F710E944A0732CF063008F0F1
:100C20002FCFF7CF8C2F8F71112359F30E943807E4
:100C300027CF112329F08C2F8F710E941C0720CF02
:100C40000E9417071DCF112349F0CF718C2F0E94EE
:100C5000280763E08C2F0E94F10B12CF81E00E94E5
:100C60000F0C023008F40CCF82E00E940F0C08CF6A
:100C70008C2F8F71C6CF002379F0D93349F4FFEF61
:100C800027EE83E0F15020408040E1F700C00000F3
:100C90008D2F0E94DD03F4CE8C2F8F71C7CF0F9361
:100CA0001F93CF93DF93EC01688179818D810E943E
:100CB0003A088C010E9475070E94EB06B801CE012C
:100CC0000E943F04DF91CF911F910F910895CF9320
:100CD000DF93FC012481222399F0EC010E94B202EF
:100CE000811111C00E94220B882351F08D8188232D
:100CF00039F08091CE0282FF03C082E00E940F0C87
:100D0000DF91CF910895CE010E944F06CE010E943F
:100D10008302F6CF90E080E00E94961890E080E099
:100D20000E94BB180E944B0B0E94DF0B0E9496167C
:100D30000E94771608950E94B5190E948A060895A8
:100D40000E943A0B0E949B06089592959F709630E0
:100D500089F050F49250923058F4803F19F030F4FA
:100D6000883E30F481E008959A50F5CF843FD1F366
:100D700080E00895883EB0F3813FD1F7F3CFFC01C6
:100D80002481222339F0808191810E942F080E94C2
:100D9000A506089580E00895A6E0B0E0E2EDF6E053
:100DA0000C94D6212696E2E00C94F221A7E0B0E064
:100DB000ECEDF6E00C94D6212796E2E00C94F221BB
:100DC00008950E94E00608950E94E1069093E101D3
:100DD0008093E001089508950E94E406089520910B
:100DE000E0013091E101822B932B0E94E4060895EB
:100DF0002091E0013091E101822393230E94E406D7
:100E000008952091E0013091E101822793270E940B
:100E1000E40608950E94E00608950E940A070895D6
:100E20000E940D079093DF018093DE01089590E00A
:100E300080E00E941007089521E030E0A90102C07F
:100E4000440F551F8A95E2F7CA010E9410070895C2
:100E500021E030E002C0220F331F8A95E2F7809133
:100E6000DE019091DF01822B932B0E9410070895E1
:100E700021E030E002C0220F331F8A95E2F720956F
:100E800030958091DE019091DF01822393230E94AF
:100E90001007089521E030E002C0220F331F8A9529
:100EA000E2F78091DE019091DF01822793270E9473
:100EB000100708952091DE013091DF01822B932BE2
:100EC0000E94100708952091DE013091DF018223F6
:100ED00093230E94100708952091DE013091DF01D5
:100EE000822793270E94100708950895262F2770C0
:100EF00091E001C0990F2A95EAF723E0769567956E
:100F00002A95E1F7660F771F660F771FFA01E60F44
:100F1000F71F50E040E0682F70E08191DF011197EA
:100F20009B01042E02C0369527950A94E2F72170A2
:100F300021952827292328272C934F5F5F4F443082
:100F4000510559F70895A82FA77023E09695879526
:100F50002A95E1F7880F991F880F991FFB01E80F69
:100F6000F91F50E040E080E0219130E00A2E02C0FD
:100F7000369527950A94E2F721703327042E01C095
:100F8000220F0A94EAF7822B4F5F5F4F44305105DE
:100F900059F70895282F862F973070F42A3060F47F
:100FA000622F70E02AE0929F600D711D11244AEBC0
:100FB00051E00E94760708959C5F9230E0F7622F1F
:100FC00070E046EB51E0F5CF292F973068F48A3076
:100FD00058F490E06AEB71E03AE0239F800D911D98
:100FE00011240E94A30708952C5F223020F466EBA1
:100FF00071E090E0F6CF80E00895B0E0A0E0E3E09B
:10100000F8E00C94CF217C010091DE011091DF010A
:101010008091E0019091E101082B192BCFE0D0E005
:10102000CC24C394D12CBC2EC6010C2E02C0880F38
:10103000991F0A94E2F780239123892B49F4219781
:1010400090F7B12C8B2DCDB7DEB7E9E00C94EB21F6
:10105000B7018C2F0E94420F019789F3F3CFCF93F2
:10106000DF93EC010E94FD07BE010E94420FDF9159
:10107000CF9108951F93CF93DF93EB019091B5012A
:10108000992339F0CB010E942F08DF91CF911F9156
:101090000895882369F0CB010E94FD07182F682F5F
:1010A000CE010E94CA07BE01812F0E94420FEDCFE0
:1010B000CB010E94E407182FF6CF1F93CF93DF9345
:1010C000C091E20117E08091E3018C1304C0DF912D
:1010D000CF911F910895D0E01C9FF0011D9FF00D4E
:1010E0001124EC51FE4F2081318142815381648172
:1010F000758186810E94D6062196C770E4CF209123
:101100001C0230911D0240911E0250911F026091FD
:10111000200270912102809122020E94D606089539
:10112000CF93DF9380912202807F09F04DC08091A0
:101130002102882309F448C0E091E2015091E301C3
:10114000C0911D02D0911C0260911E0270911F027D
:1011500047E05E17C9F18E2F90E0E49FF001112463
:10116000EC51FE4F2481222391F1489FF001499FC9
:10117000F00D1124DF01AC51BE4F11962C91119747
:101180002C1325C02C912D1322C015962C91159748
:1011900021111DC012962D913C91261B370B283C26
:1011A0003105A8F4809122028F7080618093220221
:1011B000E651FE4F80818F70806180838CE192E0E8
:1011C0000E9467060E945D08DF91CF910895FC019F
:1011D0003196E770BECF482F2091E2019091E30154
:1011E00057E0291302C080E0089530E0529FF001DB
:1011F000539FF00D1124EC51FE4F8181681306C0FE
:101200008081481303C085818111EECF2F5F3F4F4E
:101210002770E7CFA4E1B0E0E0E1F9E00C94CC2145
:101220008C0186E0F801DE011F9601900D928A95EF
:10123000E1F7F8018481E5809CE1A92E92E0B92EC6
:101240009091200291111FC08823D1F0EE20A9F0C7
:10125000C8010E94BF06F82E882379F087E0F801C4
:10126000D50101900D928A95E1F7C5010E94810395
:101270000E9490080E947F085FC0C8010E94670614
:10128000FF24F39459C0C080D18082809380F09075
:10129000210220911E0230911F02A401421B530B18
:1012A000FF2009F4F8C0483C510508F0A6C0882387
:1012B00009F442C090911D0280912202282F207FC4
:1012C00009F05BC0D91216C090911C02C91212C05D
:1012D000E1104DC08F708061809322020E947F08D0
:1012E0008CE192E00E94670680912202F8018683D9
:1012F000F12C22C0E1103BC06D2D8C2D0E94EB081B
:101300006D2D8C2D0E94EB08E82E8111F1CFCF8638
:10131000D88A8F8598890E942F08292F22952F70AF
:10132000243078F49F702230A0F09923B1F0F801B6
:101330009681907F91F4FE2C8F2D6496ECE00C94B6
:10134000E8212A50223068F0C8010E946706EF2C7D
:10135000F2CF992311F0882371F3805E8830A0F7D3
:10136000EACF803F40F3815F833070F7E4CF809114
:101370002202816080932202BBCFD91213C09091C8
:101380001C02C9120FC0E1100DC08683C8010E9463
:10139000670687E0F801ACE1B2E001900D928A9512
:1013A000E1F768CFC8010E94BF06882309F465CF22
:1013B000EE2009F462CF80912202803288F02091E1
:1013C0001C0230911D02398728879B868A8690915E
:1013D00020029C871D868E87CE0108960E94670694
:1013E00087E0F801ACE1B2E001900D928A95E1F757
:1013F0000E9490080E947F0843CF90912202292FDB
:10140000207FA1F4682D9A8A898AA6017A899E2D67
:101410000E94CC068CE192E00E94670687E0F5010D
:1014200011928A95E9F70E947F0862CF882309F418
:1014300083CF80911D028D1110C080911C02C812B3
:101440000CC0E1100AC09683C8010E94670687E0BD
:10145000F50111928A95E9F76FCFC8010E94BF0686
:10146000882309F40ACFEE2009F407CF80912202E5
:10147000803208F4B5CF20911C0230911D023A83CE
:1014800029839C828B82909120029D831E828F8370
:10149000CE010196A3CF483C5105B8F5882309F445
:1014A000EFCEFE2CEE2009F4E8CE80911D028D11C6
:1014B0001EC080911C02C8121AC08091220280FDB9
:1014C0000DC0982F907F51F08683903F09F45ECF36
:1014D000982F907F905F8F70892B57CF87E0F8010E
:1014E000ACE1B2E001900D928A95E1F725CFC801F9
:1014F0000E94BF06811174CF809122028160809387
:101500002202C8010E94670617CF682D9A8A898A2D
:10151000A6017A899E2D0E94CC0687E0F5011192E2
:101520008A95E9F7A7CEAEE0B0E0E9E9FAE00C94DD
:10153000D521288739874A875B876C877D878E8787
:10154000CE0108960E940A098823B1F16C856623B2
:1015500041F0288539854A855B857D858E850E9489
:10156000D60617E08091E2019091E301891709F412
:101570005BC0819FC00111248C519E4F0E940A09BB
:10158000882309F451C0E091E2011E9FF00111246B
:10159000EC51FE4F208131814281538164817581FC
:1015A00086810E94D6068091E20190E001968770C4
:1015B00099278093E201D6CF87E0FE013896DE01BD
:1015C000119601900D928A95E1F78C85882349F256
:1015D0002091E30130E0C90101968770992740917D
:1015E000E2014817190699F097E0929FD001939F66
:1015F000B00D1124AC51BE4FFE01319601900D92F9
:101600009A95E1F78093E3010E945D08AACF0E94BA
:10161000A0061092E3011092E20187E0ECE1F2E013
:10162000DF011D928A95E9F72E96E3E00C94F121F3
:1016300080914B02869586958695089580914B0200
:101640008770089590914B02977081E009F480E0D3
:10165000089580917702089590917702892B809365
:1016600077020895982F909580917702892380932F
:101670007702089510927702089590917602892B4F
:10168000809376020895982F909580917602892311
:1016900080937602089510927602089508950E942C
:1016A0004E0B089590914C02292F282331F08095FC
:1016B000892380934C020E944F0B089508950E9445
:1016C0005E0B089590914D02292F2823281729F0A9
:1016D000982B90934D020E945F0B089590914D02BC
:1016E000292F282331F08095892380934D020E9471
:1016F0005F0B089580914D02882329F010924D02CE
:1017000080E00E945F0B0895CF93C0917702809193
:101710007602C82B80914D02882331F0C82B0E949D
:10172000E01881110E947A0B8C2FCF910895CF93EE
:10173000DF93C0910201D09103010E94840B888342
:10174000C0910201D091030148E050E063E472E0EF
:10175000CE010E941122892B59F088E0FE01A3E4FA
:10176000B2E001900D928A95E1F7CE010E946F18C8
:10177000DF91CF910895CF93DF93C0910001D09175
:1017800001010E94840B8983C0910001D091010165
:1017900040E250E063E272E0CE010E941122892B08
:1017A00059F080E2FE01A3E2B2E001900D928A9529
:1017B000E1F7CE010E947A18DF91CF9108958091D0
:1017C0001601882339F08091CD0287FF03C00E9463
:1017D000BB0B08950E94970B089508950E94ED0B8E
:1017E00008959091CE0292FF11C098E0899F9001D8
:1017F0001124622B60934B020E94280780914B02B8
:101800008695869586950E94EE0B08950E9428077E
:10181000089510924B0280E00E94EE0B0895909183
:101820004B028095892380934B02282F277069F4FF
:10183000891759F09091CE0292FF07C08695869540
:1018400086950E9438070E94090C08959091CE0257
:1018500092FB222720F9281769F080FB92F99093D8
:10186000CE028091CD029091CE020E946E0C82E059
:101870000E940F0C08958091CE0282FB882780F988
:1018800091E089270E94260C089581E00E94260C91
:10189000089580E00E94260C08956FEF7FEF90E09E
:1018A00080E00E946322089590E080E00E942F2251
:1018B00021E0863E9E4F09F020E0822F089582E0CD
:1018C00090E00E942722089583E090E00E94272262
:1018D000089584E090E00E942F220895BC0184E0E6
:1018E00090E00E9463220895AB01BC018FE090E07C
:1018F0000E9457220895AB01BC0183E190E00E9451
:101900005722089560E070E0CB010E947B0C08959F
:1019100060E070E0CB010E94740C0E94820C08957C
:10192000A8E0B0E0E6E9FCE00C94D62166EE7EEF9C
:1019300090E080E00E94632260E082E090E00E94FC
:10194000452281E090E09093E1018093E00161E025
:1019500083E090E00E94452260E074E184E090E042
:101960000E94632260E086E090E00E94452260E0F1
:1019700087E090E00E94452240E050E0BA0188E014
:1019800090E00E94572260E084E290E00E944522AD
:1019900060E087E190E00E94452260E08CE090E00A
:1019A0000E94452260E08DE090E00E94452219826D
:1019B0001A821B821C821D821E821F82188648E0AA
:1019C00050E068E170E0CE0101960E94352240E0CF
:1019D00050E0BA0180E290E00E9457220E94880CF9
:1019E0002896E2E00C94F2210E94900C0895682F52
:1019F0008EE090E00E9445220895A6E0B0E0E3E08A
:101A0000FDE00C94D4210E94A41A8C0180917802EC
:101A1000909179028017910781F019821A820E94B1
:101A2000A41A682F49815A81792F80E090E00E94A2
:101A3000510310937902009378022696E4E00C9407
:101A4000F0210E94B01A60939002709391028093EB
:101A500092029093930260938C0270938D02809314
:101A60008E0290938F0208950E94B01A60939002A4
:101A700070939102809392029093930260938802F4
:101A80007093890280938A0290938B02089508953F
:101A900008950E94470D089508950E944C0D0895E1
:101AA0008AE390E10E94A4110E94480D0E94490D12
:101AB000089581E008950E94590D08950E94590DDE
:101AC0000895089508950E94610D0E94620D089581
:101AD0000E94540C811102C00E94F40C0E945F0C01
:101AE000809394020E94690C9093CE028093CD0261
:101AF0000E9470130E94640C90E00E94EC0680919A
:101B0000DE019091DF010E940D0708950E949B1A4B
:101B10000E94AC110E94FC100E94680D0E942503D7
:101B20000E94CF130E944D0D0895A6E0B0E0EBE9AE
:101B3000FDE00C94CA210E945B0D811111C00E942E
:101B4000FD0C0E94D7130E94131281110E94340DC4
:101B50000E94B8160E9438032696EEE00C94E62107
:101B60000E9412112AE7822E22E0922E640110E0D8
:101B7000F601E190F1906F01812F0E9444101F5FE8
:101B8000173009F44BC0E816F90691F380919402DE
:101B900081FD0E944D100E945E0D782E10E066249B
:101BA0006394812F0E9444107C01F401A190B190B4
:101BB0004F018A159B0561F100E0CC24C394D12C20
:101BC000AE24BF24C5018C219D21892BC1F0772033
:101BD000B1F009831A830E94A41A9C838B836D82BF
:101BE00021E0C7018C219D21892B09F420E0498146
:101BF0005A816B817C818D81922F0E9451030F5FEE
:101C0000CC0CDD1C0A30F1F6F4013297F182E0824F
:101C10001F5F173031F60E94210D93CFE816F906A9
:101C200009F0B4CF8CCF1F93CF93DF930E94470F5F
:101C3000EC01C11580E5D807E8F5C11580E4D807A7
:101C400008F09BC0C03ED10518F5CD3CD10508F089
:101C500081C0C83AD10570F4C53AD10508F072C008
:101C6000C130D10511F118F0C430D105F0F4D0E045
:101C7000C0E01BC0C33CD105D0F7C85AD0E0CC0FA0
:101C8000DD1FC05BDE4F0990D881C02DD4640DC02C
:101C9000C11580E2D80708F0CBC0C11581E0D80794
:101CA00008F05AC0C83ED10510F7CE01DF91CF91A0
:101CB0001F910895C03682E5D80718F5C03482E533
:101CC000D80708F069C0C03282E5D80708F05DC0C7
:101CD000C11582E5D80708F493C02C2F26952695C8
:101CE00080E2289F900111248C2F8370C1E0D0E006
:101CF00002C0CC0FDD1F8A95E2F7C22BD32BDD6823
:101D0000D4CFC03A82E5D80760F4C03882E5D8075E
:101D100008F457C0CF71D0E0DC2FCC27C46FD06A55
:101D2000C4CFC03C82E5D80708F45EC0C03E82E55F
:101D3000D80708F09CCFDC2FCC27CC27DF71C06FF1
:101D4000D06AB3CFC55AD0E0CA57DE4FC881D0E0C1
:101D5000D064ABCFD065A9CF8D2F0E94EB0F182F89
:101D6000CE0199270E94470FC12FD0E0DC2FCC274E
:101D7000CC27DF71C82BD92B98CFCE0199270E9491
:101D8000470FCC27DF70D06AF5CFCF71D0E0DC2FC2
:101D9000CC27C16FD06A89CF2C2F26952695277026
:101DA00080E2289F900111248C2F8370C1E0D0E045
:101DB00002C0CC0FDD1F8A95E2F7DC68C22BD32B63
:101DC00074CF2C2F26952695277080E2289F9001AE
:101DD00011248C2F8370C1E0D0E002C0CC0FDD1F36
:101DE0008A95E2F7DA68EACF8C2F8F710E94EB0FA9
:101DF000C82FD0E0DC2FCC27CC27DF71D06255CFA5
:101E00008C2F8F710E94EB0F55E0D695C7955A9590
:101E1000E1F7CF70D0E0DC2FCC27282F30E084FF13
:101E200005C044E0220F331F4A95E1F7D069C6CFC1
:101E30008D2F8F710E94EB0F182FCE0199270E94D2
:101E4000470FC12FD0E0DC2FCC27CC27DF71906269
:101E500091CF773038F46A3050F4462F672F0E94C4
:101E60000B0208957D3F31F441E0623040F090E094
:101E700080E008957C3FD9F76230C8F740E00E94C7
:101E80002A0208950E94290F0E94130E0895823895
:101E90009105B9F1B0F48133910509F47DC048F49E
:101EA0008932910509F46DC08A32910509F479C02F
:101EB00008958533910509F45FC08933910509F1CF
:101EC0000895833E9105D9F138F4803E910529F1BA
:101ED000823E910579F10895863E9105D9F1873EBC
:101EE000910509F43EC0843E910541F52091CE0252
:101EF00021FF24C08091CD0284FD19C087EE90E0BF
:101F000008952091CD02237009F056C02091CE0291
:101F100023FF14C089E290E008952091CD0220FDB6
:101F200038C03091CE0230FF09C024FF3FC090E09E
:101F300080E008952091CD0222FDF7CF08952091F1
:101F4000CD0222FD36C03091CE0230FD35C024FDD9
:101F5000EECFF4CF2091CD0223FFF0CF24FDE7CFC9
:101F6000CDCF2091CD0223FD2AC03091CE0231FF8A
:101F7000EECF84EE90E008952091CD0225FDCACFEA
:101F800008952091CD0225FD1DC02091CE0223FF92
:101F9000D5CF89E390E008952091CD0226FD15C0AC
:101FA00008952091CD0226FD13C0089583EE90E0A0
:101FB000089582EE90E0089580EE90E0089586EE18
:101FC00090E0089585E390E008958AE290E0089516
:101FD00081E390E0B3CF9091CD0292FF10C041E039
:101FE000282F2471243009F040E031E0282F287197
:101FF000283009F030E0431711F02CE0822793FFDE
:1020000010C041E0282F2471243109F040E031E074
:10201000282F2871283109F030E0431711F02CE007
:1020200082273091CE0230FF10C051E0282F21715D
:10203000213009F050E041E0282F2871283009F0C4
:1020400040E0541711F029E0822731FF10C041E031
:10205000282F2171213109F040E031E0282F28712B
:10206000283109F030E0431711F029E0822794FD70
:10207000877E089580E0089508950E943C10089599
:1020800008950E9440100895E82FF0E0EE0FFF1F22
:10209000E352FD4F808191810895089580EA8A95E9
:1020A000F1F7089500C008950E944E100895F89425
:1020B000E82FE295EF70F0E031A1282F2F7081E03A
:1020C00090E001C0880F2A95EAF7982F9095932306
:1020D00091A392A1892B82A3789408950F931F93C3
:1020E000CF93DF93C3E9D1E089918F3F11F00E9434
:1020F000571081E0CA39D807B9F7C9E8D1E003E938
:1021000011E089918F3F11F00E9457100C171D07A5
:10211000C1F7DF91CF911F910F910895AF92BF92B8
:10212000DF92EF92FF920F931F93CF93DF93EC0117
:10213000062F10E0C8018D569E4F7C01FC01908156
:102140009F3F09F44CC0D62EF894E92FE295EF702A
:10215000F0E081A19F7021E030E001C0220F9A954C
:10216000EAF7822B81A382A12095282322A37894C9
:102170000E945210E9E8F1E041E050E0B12CA12CBE
:1021800021912F3FB1F1A22FA295AF70B0E09096B0
:102190008C9190E02F7002C0959587952A95E2F773
:1021A00080FD27C0CA01A82AB92A440F551F81E023
:1021B000E339F80729F7F70180818F3F11F00E947A
:1021C000571061E0A114B10409F460E08D2D0E9464
:1021D0005410000F111FC00FD11FB982A882DF91C8
:1021E000CF911F910F91FF90EF90DF90BF90AF9034
:1021F000089590E080E0D7CF0E946E108EE0EDED64
:10220000F2E0DF01982F1D929A95E9F7EFECF2E0EA
:10221000DF011D928A95E9F787E00E944D110E9427
:102220003D100895AEE0B0E0E8E1F1E10C94D32177
:102230008E010F5F1F4F8EE0F80111928A95E9F72A
:10224000F12C6F2DC8010E948E10F394F7E0FF125D
:10225000F8CF4EE050E0B8018FEC92E00E941122DE
:1022600021E0009709F420E0892B41F08EE0F8018D
:10227000AFECB2E001900D928A95E1F747E06DED89
:1022800072E08FEC92E00E944E11182F0E944110D4
:10229000812F2E96E5E00C94EF210895B0E0A0E0A8
:1022A000E4E5F1E10C94D0216C017B01042FC22FF5
:1022B000222379F081E0809397020E94A41A9093E0
:1022C00096028093950280E0CDB7DEB7E8E00C94EB
:1022D000EC21D0919702DD23B1F38091950290918A
:1022E00096020E94BC1A059770F310E0000F111FB0
:1022F000A801B601C7010E941122892B31F0A80163
:10230000B601C7010E941E22CD2F109297028C2F7A
:10231000DBCF0E94841C0E94860D0E94911C0895B0
:102320000E94961C0E94950D0E94B01C08950E9468
:102330003B1A0E946A1C0E94500D0E9489110E9443
:1023400090110E94630DFBCF9093AF018093AE017B
:1023500008950E94590D0895E9E9F2E088E0DF014F
:102360001D928A95E9F70E94F9120895FC012281D5
:1023700030E02F5F3F4F23703327938181E0921726
:10238000130609F080E008950F931F93CF93DF9316
:10239000EC01162F042F0E94B611811117C08A81FB
:1023A000FE01E80FF11D1F7764816078612B00FB4F
:1023B00067F964838F5F83708A8388818F5F8883E6
:1023C00081E0DF91CF911F910F91089580E0F9CFC7
:1023D000FC01A38182818A17B1F0AE0FBF2FB11D1E
:1023E00014968C9187FB992790F98F77DB018C935A
:1023F000DA019C9383818F5F8370838381818F5FF8
:10240000818381E0089580E00895462F682F89E94F
:1024100092E00E94C4110895AB01BC0189E992E0E9
:102420000E94E8110895AEE0B0E0E9E1F2E10C9419
:10243000CF2180919802882351F0109298028091C8
:102440009B0280939C028091990280939A020E9441
:1024500038130E94A911182F882309F43FC010E0F7
:102460008CEFF82E93E0E92EDD24D3942DEFC22ECD
:1024700032E0B32E29C01E858D858823A1F10E94EC
:10248000A41A1983CA829C838B83BD82DE82498110
:102490005A816B817C818D819E810E9451038D8543
:1024A0001E85882341F10E94A41A1F83C8869A873B
:1024B0008987BB861C864F81588569857A858B857F
:1024C0009C850E945103102FBE01635F7F4FCE0198
:1024D0000E960E940C12082F8111CDCF812F2E96BF
:1024E000E9E00C94EB210E94A41A1983FA829C83E0
:1024F0008B83ED82CBCF0E94A41A1F83F8869A8724
:102500008987EB86D7CF8FE891E00197F1F700C07C
:102510000000089590E06623E9F086559E4FFC0187
:1025200080818F3FB1F0E82FE295EF70F0E041A19C
:102530008F7021E030E0B90102C0660F771F8A95E5
:10254000E2F7CB01962F9095942391A392A1892B2A
:1025500082A3089584559E4FE2CF90E06623A1F0B8
:1025600086559E4FFC0120812F3F89F0E22FE29596
:10257000EF70F0E080A190E02F7002C095958795F4
:102580002A95E2F78170089584559E4FEBCF80E045
:1025900008950895CF93DF93C0E08091A102C817FA
:1025A00060F00E948312C0E08091A102C81778F009
:1025B0000E94C912DF91CF91089560E08C2F0E9494
:1025C0008A1261E08C2F0E948A12CF5FE6CF60E012
:1025D0008C2F0E94AD12D82F61E08C2F0E94AD127B
:1025E000EC2FF0E0EC55FD4F880F8D2B8083CF5FF3
:1025F000DBCF82E08093A1020E94CA1208951F934C
:10260000CF93DF93E42FEE0F6E2BC82FD0E0DE01C7
:10261000AC55BD4FEC919E2F9370691729F1182F7F
:10262000EE0FEE0FE62BEC93EF70F0E0E656FE4F68
:10263000CE55DD4F80819881890F8883843024F0C6
:1026400060E0812F0E94051288818D3F24F461E0B3
:10265000812F0E9405128881082E000C990B64E0DE
:1026600070E00E94AC218883DF91CF911F91089583
:10267000CF93DF93C0E08091A102C81718F0DF91DB
:10268000CF91089561E08C2F0E94AD12D82F60E0A9
:102690008C2F0E94AD124D2F682F8C2F0E94FF129D
:1026A000CF5FE9CF0E944D0C089580E00E94441056
:1026B000817008950E9412112FEF86E791E021505A
:1026C00080409040E1F700C000000E9412110E947B
:1026D0005513882321F00E9452130E94F11A089585
:1026E0000E945A1308950E94E601089581E008951A
:1026F0000E9476130895CF92DF92EF92FF92CF93CC
:10270000C82F69B170E0660F672F661F770B7B01DA
:1027100081E0E8266095709561706093A8028091D1
:10272000A602681781F180E00E94731321E089B14D
:1027300090E09595879580959095682F617060934E
:10274000A9026C01CC0CDD1C82E0C822DD24CE285D
:10275000DF280D2C000CEE08FF088091A7026813FB
:1027600002C0CC23A1F081E00E947313C701B6011F
:102770000E9478138091A8029091A9029093A702D9
:102780008093A60206C0C111CECF20E0D0CF211188
:10279000EDCFCF91FF90EF90DF90CF9008955798B5
:1027A0005F9A5198599A81E00E947B13089580E0C6
:1027B0000E947B130895CF93DF9386319C4719F5D0
:1027C000EB010E94290B9D81992399F08A7A91E06F
:1027D00009F490E09093AA02811109C089E20E9455
:1027E00087190E94DF0B80E0DF91CF91089585E388
:1027F000F6CF8091AA02811104C089E20E949E193D
:10280000F0CF85E3FBCF81E0EFCFCF93DF93EC01F7
:10281000FB018581882309F4F5C09E0130572332DE
:10282000310508F0D5C00E94690C9093CE028093C8
:10283000CD02FE01E150F047E232F10508F026C07A
:10284000EC5DFB4E0C94C0218014F41488145214D7
:1028500056148C145A1490149C146614ED146A14B3
:10286000A0146E14A414CC147214A814D3147814E5
:10287000AE14B6145E149414621498147C14B2143A
:10288000C214DC14EB144C148414FB148091CD029C
:1028900081608093CD0293C08091CE028860809346
:1028A000CE028DC08091CD028260F3CF8091CD02A7
:1028B0008460EFCF8091CD028860EBCF8091CE0213
:1028C0008160EDCF8091CE028260E9CF8091CD0210
:1028D0008061DFCF8091CD028062DBCF8091CD021D
:1028E0008064D7CF0E94A0068091CD028068D1CFAE
:1028F0008091CD028860DCCF8091CE028260E0CFF3
:102900008091CD028E7FC5CF8091CE02877FC7CFC9
:102910008091CD028D7FBDCF8091CD028B7FB9CFCD
:102920008091CD02877FB5CF8091CE028E7FB7CFC9
:102930008091CE028D7FB3CF8091CD028F7EA9CFC3
:102940008091CD028F7DA5CF8091CD028F7BA1CFCD
:102950000E94A0068091CD028F779BCF8091CD02FF
:10296000877FDCCF8091CE028D7FE0CF8091CD023A
:1029700082FB992790F921E0922790FB82F990FB46
:1029800083F987CF8091CE02982F909591708E7F9A
:10299000892B90FB81F983CF9091CD02892F8F7B7A
:1029A00096FF806476CF0E94A0069091CD02892F79
:1029B00097FB87F980586DCF81E00E94F70C8091DA
:1029C000CD029091CE020E946E0C0E94A00680E083
:1029D000DF91CF91089580E0F0CF9091CD02892FC3
:1029E0008F7E94FF806155CF9091CD02892F8E7F8D
:1029F00090FF81604ECF9091CE02892F877F93FF09
:102A000088604DCF81E0E4CF282F35EB2303C00150
:102A1000112497FF04C080589109892F0895805888
:102A20009F4FFBCF8091B10280FF0DC060910901E3
:102A300070E0660F771F6038710580F561157105CC
:102A400079F1862F089581FF07C06091090184E024
:102A5000689FB0011124EFCF82FF04C0609109018B
:102A600088E0F6CF2091B0022223A9F090910801CE
:102A70006091090188E0689FB00111242917D8F6F8
:102A8000269FA001279F500D1124692F70E0CA01D5
:102A90000E94AC21D0CF68E070E0D3CF8FE70895DB
:102AA00081E008958091B10280FF0CC06091050122
:102AB00070E075956795759567956115710549F194
:102AC000862F089581FF06C06091050170E075951D
:102AD0006795F3CF6091050182FD0BC09091AF0225
:102AE0009923A1F06091040180910501961738F0B7
:102AF000682F70E06038710500F38FE70895899FB3
:102B0000C001112470E00E94AC21F4CF61E070E0BC
:102B1000D7CF81E008959091B40291110CC09091AB
:102B2000B502911108C09091B702911104C0909123
:102B3000B602992331F098E09093B00291E090931F
:102B4000AF028D3C31F40E94121581958093B5023D
:102B500008958E3C19F40E941215F8CF8F3C31F481
:102B60000E94121581958093B4020895803D19F456
:102B70000E941215F8CF893D29F40E9452158093C6
:102B8000B60208958A3D21F40E9452158195F7CF2F
:102B90008B3D31F40E94521581958093B7020895C0
:102BA0008C3D19F40E945215F8CF9FE2980F98308F
:102BB00070F4815D990B21E030E001C0220F8A950D
:102BC000EAF78091B302822B8093B30208958D3D82
:102BD00031F48091B10281608093B10208958E3DFD
:102BE00021F48091B1028260F7CF8F3DB9F78091D7
:102BF000B1028460F1CF8D3CD9F49091B50297FF7A
:102C00001DC01092B5028091B402811106C080915E
:102C1000B502811102C01092B0028091B6028111FA
:102C200006C08091B702811102C01092AF020895D0
:102C30008E3CD9F49091B50219161CF39FE2980FBF
:102C4000983008F03FC0815D990B21E030E0A90188
:102C500002C0440F551F8A95E2F7CA0180959091F2
:102C6000B30289238093B302CECF9091B4028F3CFC
:102C700029F497FFE3CF1092B402C5CF803D19F439
:102C80001916CCF3DBCF9091B602893D29F41916C1
:102C9000ACF61092B602B7CF8A3D19F497FFCECFAB
:102CA000F8CF8B3D39F49091B70297FFC7CF1092C0
:102CB000B702A9CF8C3D09F0C1CF9091B702191688
:102CC000B4F3BCCF8D3D31F48091B1028E7F8093FF
:102CD000B10299CF8E3D21F48091B1028D7FF7CF63
:102CE0008F3D09F090CF8091B1028B7FF0CF0E9491
:102CF000A41A2091B402211104C02091B50222230C
:102D000021F09093AE028093AD022091B602211182
:102D100004C02091B702222321F09093AC0280934B
:102D2000AB0282EB92E00E948818089586E0E2EB05
:102D3000F2E0DF011D928A95E9F71092B00210923D
:102D4000AF021092B1020895FC01828181110EC080
:102D5000838181110BC08481811108C091E085813C
:102D6000811101C090E0892F8170089581E0FCCF2E
:102D7000A6E0B0E0EEEBF6E10C94D52186E0E2EBC4
:102D8000F2E0DE01119601900D928A95E1F7109222
:102D9000B4021092B5021092B6021092B7028B8163
:102DA000811103C08C81882389F08091AD029091BC
:102DB000AE020E94BC1AAC019091B0029923D9F1E5
:102DC00080910A018417150608F442C08D81811193
:102DD00003C08E81882391F08091AB029091AC0268
:102DE0000E94BC1AAC019091AF02992309F46AC009
:102DF000809106018417150608F472C0BE016F5F4A
:102E00007F4F82EB92E00E94CF19811105C082EBC7
:102E100092E00E94A41681110E94771686E0FE01BE
:102E20003196A2EBB2E001900D928A95E1F72696D9
:102E3000E3E00C94F12120910B018AE0289F90019E
:102E400011242417350710F69F5F9093B00202C03B
:102E50009F3FD1F71B81112359F00E9412159FEF5C
:102E600011160CF491E0899F802D11248093B402F7
:102E70001C81112359F00E9412159FEF11160CF4BA
:102E800091E0899F802D11248093B5028091B40236
:102E9000882309F49BCF1091B502112309F496CF32
:102EA0000E940415882351F08093B402812F0E9460
:102EB0000415882329F08093B50288CF81E0F4CFF0
:102EC00081E0F9CF209107018AE0289F9001112429
:102ED0002417350708F092CF9F5F9093AF0202C08E
:102EE0009F3FD1F71D81112359F00E9452159FEF8A
:102EF00011160CF491E0899F802D11248093B60265
:102F00001E81112359F00E9452159FEF11160CF4E7
:102F100091E0899F802D11248093B7028091B602A1
:102F2000882309F46BCF1091B702112309F466CFFF
:102F30000E940415882351F08093B602812F0E94CD
:102F40000415882329F08093B70258CF81E0F4CF8D
:102F500081E0F9CF0F931F93CF93DF93C42FD22F2C
:102F6000FC0185818823C9F04093BA020E94A41A0B
:102F70009093B9028093B80280E28C0F883040F4BD
:102F8000C77081E001C0880FCA95EAF70E9431043A
:102F9000DF91CF911F910F9108951091BA021413F0
:102FA00032C08091B8029091B9020E94BC1A883C4C
:102FB000910548F5C0E2CD0F1D17B9F080E2810FF1
:102FC000883040F4177081E001C0880F1A95EAF745
:102FD0000E943804C83010F581E09D2F977001C021
:102FE000880F9A95EAF70E943104802F0E942804E6
:102FF000C83070F6D77081E001C0880FDA95EAF723
:103000000E943804C5CF80E28C0F883008F6C77064
:1030100081E001C0880FCA95EAF7F2CF802F0E94A5
:103020002804B6CF0F93FC01E851FC47E730F105C7
:1030300008F03AC0CB01E15EF74E0C94C02136187F
:103040003C1826183018421848184E1806E221EE8F
:1030500041EE6AE17CE70E94AA1780E00F91089593
:1030600007E225EE45EE6BE17CE7F5CF06E221EEC7
:1030700040EE68E17CE7EFCF07E225EE44EE69E140
:103080007CE7E9CF06E221EE42EE6CE17CE7E3CF9C
:1030900007E225EE46EE6DE17CE7DDCF08E221E0B8
:1030A00045EE6EE17CE7D7CFFB018581882319F0DF
:1030B0001092BA02D3CF81E0D1CF9093C002809317
:1030C000BF020895E091BF02F091C002309729F04D
:1030D0000190F081E02D0995089580E00895E09138
:1030E000BF02F091C002309721F00280F381E02D01
:1030F00009950895E091BF02F091C002309739F030
:1031000026E0DC012C930480F581E02D09950895DB
:10311000E091BF02F091C002309739F022E0DC016B
:103120002C930680F781E02D09950895A3E0B0E087
:10313000ECE9F8E10C94D6212091BD023091BE0259
:1031400028173907A1F09093BE028093BD02E09149
:10315000BF02F091C002309751F023E029839B8396
:103160008A830084F185E02DCE010196099523968E
:10317000E2E00C94F221A3E0B0E0E1ECF8E10C9481
:10318000D6212091BB023091BC0228173907A1F04B
:103190009093BC028093BB02E091BF02F091C00209
:1031A000309751F024E029839B838A830084F18542
:1031B000E02DCE01019609952396E2E00C94F221D0
:1031C000E0910201F091030132968091160188236B
:1031D00071F08091CD0287FF0AC0E0910001F0916B
:1031E000010132969EE180E0915018F4089596E036
:1031F000FACF21912223C1F38F5FF6CF882321F1EB
:1032000090911601992311F19091CD0297FF1EC064
:10321000E82FE695E695E695EE31B0F420910001B1
:1032200030910101E20FF32FF11D228130E0877010
:1032300041E050E002C0440F551F8A95E2F7242375
:10324000352381E0232B91F480E008952091020141
:1032500030910301F9013296285F3F4F9191981701
:1032600021F0E217F307D1F7EFCF81E008959C0139
:10327000FC0132969FEF80E04191461751F09F3F4D
:1032800019F4411101C0982F8F5F8630A9F79F3F35
:1032900009F40895290F311D97FD3A95F9016283CC
:1032A0000895FC01329608962191261303C0DF0190
:1032B00011971C92E817F907B9F70895E62FE695DC
:1032C000E695E695EE3168F4E80FF92FF11D677089
:1032D00021E030E001C0220F6A95EAF78281822B5B
:1032E00082830895E62FE695E695E695EE3170F433
:1032F000E80FF92FF11D677021E030E001C0220FC7
:103300006A95EAF720958281282322830895682F01
:1033100080911601882359F08091CD0287FF07C064
:1033200080910001909101010E945E1908958091A1
:103330000201909103010E9437190895682F80912E
:103340001601882359F08091CD0287FF07C0809134
:103350000001909101010E9472190895809102016B
:10336000909103010E9451190895809116018823BC
:1033700079F08091CD0287FF0BC0E0910001F091C0
:10338000010132968EE1DF011D928A95E9F70895D9
:10339000E0910201F0910301329686E0F4CFDC0166
:1033A000FB0111969C9111978181981322C012966E
:1033B0008C911297882319F0928189131AC0139661
:1033C0008C911397882319F09381891312C0159655
:1033D0008C911597882319F0958189130AC014964A
:1033E0009C91992321F081E02481291303C080E07E
:1033F00001C081E08170089508950E94FC1908952C
:10340000811106C081E08093C1020E94FD190895D8
:1034100082E0F9CF83E08093C1020E94FD190895F4
:103420000E94001A089581E08093C1020E94FD1954
:1034300008950E94131A0895089508950E941D1A70
:103440000895089508950E941C1A0895CF930E942C
:10345000211A0E9412110E94221AC0E08C2F0E9491
:103460004410892B31F4CF5FC730C1F780E0CF9192
:10347000089581E0FCCF85B7806885BF85B78068F7
:1034800085BF08951F920F920FB60F9211248F934C
:103490009F93AF93BF938091C202811113C080911B
:1034A000EB029091EC02A091ED02B091EE024196F8
:1034B000A11DB11D8093EB029093EC02A093ED024D
:1034C000B093EE02BF91AF919F918F910F900FBE7D
:1034D0000F901F9018958091F302843031F10E9473
:1034E00008031092C20288E190E020E40FB6F8943D
:1034F000A895809360000FBE2093600083B7817F02
:10350000846083BF83B7816083BF7894889583B7D5
:103510008E7F83BF0FB6F894A89580916000886174
:1035200080936000109260000FBE08950E94A00674
:103530000E940D03089582E084BD93E095BD9AEF4B
:1035400097BD80936E0008952FB7F8948091EB0299
:103550009091EC02A091ED02B091EE022FBF089580
:103560002FB7F8946091EB027091EC028091ED021C
:103570009091EE022FBF08959C014FB7F89480916F
:10358000EB029091EC02A091ED02B091EE024FBFE0
:10359000821B930B089578941F920F920FB60F928F
:1035A00011248F939F93AF93BF938091EB029091DF
:1035B000EC02A091ED02B091EE020196A11DB11DA9
:1035C0008093EB029093EC02A093ED02B093EE0295
:1035D000BF91AF919F918F910F900FBE0F901F9051
:1035E000189581E08093E00080E28093D8001092EB
:1035F000C9008FE19EE40197F1F700C0000087E069
:1036000090EBDC018093FC029093FD02A093FE02FC
:10361000B093FF0288E19CE00FB6F894A8958093E0
:1036200060000FBE90936000FFCF88E19CE00FB672
:10363000F894A895809360000FBE90936000FFCF30
:103640008091CB0208959B019091F3029430F1F4A4
:103650008F708093E9008FEF9091E800815095FD85
:1036600006C095ED9A95F1F700008111F5CF809194
:10367000E80085FF0BC0BA01C90150E040E00E949C
:10368000241D8091E8008E778093E800089543E040
:1036900050E0BC0182E00E94231B089546E050E008
:1036A000BC0182E00E94231B089540E250E0BC016F
:1036B00082E00E94231B0895CF93DF93EC0148E042
:1036C00050E0BC0181E00E94231B88E0FE01A3ECD6
:1036D000B2E001900D928A95E1F7DF91CF910895C4
:1036E0008091F202811109C00E94B41E0E94111F34
:1036F0008091E20084608093E20008951092F202CB
:1037000008950E94131A08956091EF0281E06111FB
:1037100001C080E00E940A1A08959091F30281E0AE
:10372000943009F080E06091EF020E94101A089531
:1037300042E061EC81E00E94321E42E261EC82E0F4
:103740000E94321E9091F30281E0943009F080E0F3
:103750006091EF020E94001A08958091F502833073
:1037600009F464C030F48130E9F1823009F4A1C079
:1037700008958A3009F48DC08B3009F472C0893005
:1037800009F053C08091F402813209F04EC080915B
:10379000F8029091F902029708F047C08091E80082
:1037A000877F8093E8008091E80082FF3AC0809193
:1037B000F3009091F200892798278927029731F426
:1037C0008091F100813011F0863021F48091F10078
:1037D0008093CB028091E8008B778093E8000E9471
:1037E000661E23C08091F402813AF9F48091E800CA
:1037F000877F8093E8008091F8029091F902892BED
:1038000061F468E083EC92E070E00E94731D8091A7
:10381000E8008B778093E800089560E090E080E016
:10382000F3CF8091F3028111BECF08958091F4020D
:10383000813AD9F78091F8029091F902892BA9F782
:103840008091E800877F8093E8008091E80080FF06
:10385000FCCF809116018093F1008091E8008E7773
:10386000BCCF8091F402813201F78091F8029091EF
:10387000F902892BD1F68091E800877F8093E800D8
:103880000E94661E8091F602809316010E94A00697
:1038900008958091F402813241F68091E800877F9B
:1038A0008093E8000E94661E8091F7028093CC020C
:1038B00008958091F402813A09F0B7CF8091E80031
:1038C000877F8093E8008091E80080FFFCCF8091A3
:1038D000CC02C1CF84B7877F84BF0FB6F894A89578
:1038E00080916000886180936000109260000FBE3C
:1038F00080E890E00FB6F8948093610090936100A7
:103900000FBE0E94191A08950E94B41E0E94111F32
:10391000E2EEF0E080818460808378940E949021C0
:1039200008958CE091E00E945D1808958091F30263
:10393000853031F48091F302853019F00E94961A97
:1039400008950E946B1A8091F102882399F30E94D6
:10395000261A882379F30E940E1D0E94A006EACF42
:1039600008959A014091FA025091FB020E94B91CFD
:103970000895492F55274330510571F158F44130CE
:103980005105E9F04230510511F190E080E050E03E
:1039900040E019C04132510591F142325105A9F779
:1039A00084E490E043E153E06115710561F086EB3A
:1039B00090E04DE552E06130710529F0E6CF82E1FB
:1039C00090E04BE452E0F9015183408308958BE38A
:1039D00090E040E152E0F7CF99278130910561F006
:1039E00028F0029791F6E4EDF1E002C0ECE0F2E09D
:1039F000849190E0AF01E7CFE6EFF1E0F9CF89E005
:103A000090E042E252E061157105E9F289E090E050
:103A10004BE352E061307105B1F2B7CF80E189BD6F
:103A200082E189BD09B400FEFDCF8091D8008F7D71
:103A30008093D8008091E00082608093E0008091C4
:103A4000E00081FDFCCF0895AF92BF92CF92DF924C
:103A5000FF920F931F93CF93DF936C01EB018A01C9
:103A60000E94851EF82E811123C00115110539F021
:103A7000F80180819181C81BD90BC80ED91EB12CC9
:103A8000A12C2097A9F08091E80085FD22C08091AB
:103A9000E8008E778093E80001151105A1F0F80188
:103AA00080819181A80EB91EB182A08285E0F82E96
:103AB0008F2DDF91CF911F910F91FF90DF90CF90CD
:103AC000BF90AF9008950E94851E8823D1F2F82EF2
:103AD000EFCFF60181916F018093F1002197FFEF05
:103AE000AF1ABF0ACECFFC018091FA029091FB027F
:103AF00086179707A0F06115710529F49091E800E9
:103B00009E779093E80090E06115710551F4911152
:103B100008C08091E80082FF35C080E00895BC01B4
:103B2000F2CF8091F3028823C9F18530C9F18091E9
:103B3000E80083FD31C08091E80082FDEACF8091EA
:103B4000E80080FFE1CF2091F3008091F200322F56
:103B5000282F6115710519F02830310558F091E0D2
:103B60002830310509F090E02091E8002E7720936D
:103B7000E800CACF81918093F100615071092F5FF5
:103B80003F4FE7CF8091F302882341F0853041F029
:103B90008091E80083FFBDCF81E0089582E0089521
:103BA00083E00895FC018091FA029091FB02861750
:103BB0009707A0F06115710529F48091E8008E77D0
:103BC0008093E80090E06115710551F4911108C0EF
:103BD0008091E80082FF36C080E00895BC01F2CFFA
:103BE0008091F3028823D1F18530D1F18091E800F2
:103BF00083FD32C08091E80082FDEACF8091E80029
:103C000080FFE1CF2091F3008091F200322F282F26
:103C10006115710519F02830310558F091E0283010
:103C2000310509F090E08091E8008E778093E800FC
:103C3000CACF84918093F1003196615071092F5F52
:103C40003F4FE6CF8091F302882341F0853041F069
:103C50008091E80083FFBCCF81E0089582E0089561
:103C600083E00895982F973028F08F708093E900B3
:103C700081E008959093E900242F762F50E0981763
:103C800031F07091EC002091ED005091F00021FD99
:103C900002C09F5FE8CF3091EB003E7F3093EB0096
:103CA0003091ED003D7F3093ED003091EB003160BD
:103CB0003093EB007093EC002093ED005093F000F4
:103CC0002091EE0027FDE5CF80E008958091F40279
:103CD00087FF13C08091E80082FF06C08091E80052
:103CE0008B778093E80004C08091F3028111F2CFBA
:103CF00008958091F3028823D9F38091E80080FF32
:103D0000F8CF8091E8008E77ECCF2091E4003091DD
:103D1000E50085E69091EC0090FF06C09091E800E8
:103D200090FF06C080E008959091E80092FDFACFE0
:103D30009091F302992391F0953091F09091EB00DE
:103D400095FD10C04091E4005091E500241735071F
:103D500009F381509A01F1F684E0089582E0089514
:103D600083E0089581E008950E94231F0E942B1F85
:103D7000E0EEF0E0808181608083E8EDF0E080811A
:103D80008F77808319BCA7EDB0E08C918E7F8C93E8
:103D900080818F7E80831092F20208950F931F938B
:103DA000CF93DF930E94231F0E942B1FC8EDD0E00A
:103DB00088818F77888388818068888388818F7DD8
:103DC000888319BC1092F3021092EF021092F10254
:103DD0001092F00200EE10E0F80180818B7F80836A
:103DE00088818160888342E060E080E00E94321E2A
:103DF000E1EEF0E080818E7F8083E2EEF0E0808172
:103E000081608083808188608083F80180818E7FDB
:103E10008083888180618883DF91CF911F910F918A
:103E20000895E8EDF0E080818F7E8083E7EDF0E09B
:103E300080818160808384E082BF81E08093F20290
:103E40000E94CE1E0895E8EDF0E080818E7F808391
:103E50001092E20008951092DA001092E1000895A5
:103E60001F920F920FB60F9211242F933F934F93EF
:103E70005F936F937F938F939F93AF93BF93EF93D2
:103E8000FF938091E10082FF0BC08091E20082FFEE
:103E900007C08091E1008B7F8093E1000E948F2119
:103EA0008091DA0080FF19C08091D80080FF15C092
:103EB0008091DA008E7F8093DA008091D90080FFB4
:103EC00094C080E189BD82E189BD09B400FEFDCFC7
:103ED00081E08093F3020E94701B8091E10080FFDB
:103EE00019C08091E20080FF15C08091E2008E7FB2
:103EF0008093E2008091E20080618093E2008091F3
:103F0000D80080628093D80019BC85E08093F302CA
:103F10000E94841B8091E10084FF29C08091E2000F
:103F200084FF25C080E189BD82E189BD09B400FE1E
:103F3000FDCF8091D8008F7D8093D8008091E100E3
:103F40008F7E8093E1008091E2008F7E8093E2007B
:103F50008091E20081608093E2008091EF028823EB
:103F600009F449C084E08093F3020E948D1B809184
:103F7000E10083FF29C08091E20083FF25C080918A
:103F8000E100877F8093E10082E08093F30210924A
:103F9000EF028091E1008E7F8093E1008091E2004A
:103FA0008E7F8093E2008091E20080618093E20046
:103FB00042E060E080E00E94321E8091F000886064
:103FC0008093F0000E94811BFF91EF91BF91AF9110
:103FD0009F918F917F916F915F914F913F912F9121
:103FE0000F900FBE0F901F90189519BC1092F302FE
:103FF0000E947E1B72CF8091E30087FD02C081E0AA
:10400000B2CF83E0B0CF1F920F920FB60F92112460
:104010002F933F934F935F936F937F938F939F93D0
:10402000AF93BF93CF93EF93FF93C091E900CF700D
:104030008091EC001092E9008091F000877F8093DE
:10404000F00078940E943F201092E9008091F000E7
:1040500088608093F000C093E900FF91EF91CF91C9
:10406000BF91AF919F918F917F916F915F914F9190
:104070003F912F910F900FBE0F901F901895AAE2BD
:10408000B0E0E5E4F0E20C94D521E4EFF2E08091B9
:10409000F100819322E0EC3FF207C9F70E94AD1BCB
:1040A0008091E80083FF44C08091F4029091F50272
:1040B0009A3008F03DC0E92FF0E0EF59FF4D0C9425
:1040C000C0216B209120982091209820E9200B217D
:1040D000982062216F21803889F0823849F58091DB
:1040E000F8028F70873020F58093E9008091EB0013
:1040F00085FB882780F91092E90006C08091F002C4
:104100009091F102911182609091E800977F9093D5
:10411000E8008093F1001092F1008091E8008E7722
:1041200027C0282F2D7F21F48823A1F0823029F188
:104130008091E80083FF0AC08091E800877F809328
:10414000E8008091EB0080628093EB00AA96E3E0A8
:104150000C94F1218091F602813051F7933009F0EF
:1041600080E08093F1021092E9008091E800877F5F
:104170008093E8000E94661EDBCF8091F6028111D9
:10418000F2CF8091F8028F702FEF280F263080F643
:104190008093E9002091EB0020FFE5CF933031F4CC
:1041A0008091EB0080628093EB00DDCF9091EB007B
:1041B00090619093EB0021E030E001C0220F8A95DE
:1041C000EAF72093EA001092EA008091EB00886001
:1041D000EACF8111ADCF1091F6021F778091E300F5
:1041E0008078812B8093E3008091E800877F809323
:1041F000E8000E94661E8091E80080FFFCCF80915D
:10420000E30080688093E30083E0111101C082E045
:104210008093F3028DCF8058823008F089CF80914F
:10422000F6029091F7028C3D23E09207A1F583E01E
:104230008A838AE289834FB7F894DE01139620E0DF
:104240003EE051E2E32FF0E050935700E49120FF6D
:1042500003C0E295EF703F5FEF708E2F90E0EA3081
:10426000C0F0C7968D939D932F5F243159F74FBFB0
:104270008091E800877F8093E8006AE270E0CE01D9
:1042800001960E94731D8091E8008B778093E8006F
:104290004FCFC096E7CF6091F8027091F902AE015E
:1042A0004F5F5F4F0E94B11CBC01892B09F440CFC6
:1042B0009091E800977F9093E80089819A810E940D
:1042C000D21DE1CF803809F033CF8091E800877F9D
:1042D0008093E8008091EF028093F1001ECF81115E
:1042E00027CF9091F602923008F022CF8091E8001B
:1042F000877F8093E8009093EF020E94661E809172
:10430000EF02882331F084E08093F3020E94981B2F
:104310000FCF8091E30087FDF6CF81E0F5CF0895C0
:10432000CF938091F302882399F0C091E900CF7078
:104330008091EC0080FD0EC080E0C82B1092E90057
:104340008091E80083FD0E943F20CF70C093E90078
:10435000CF91089580E8F1CF97FB072E16F40094D3
:1043600007D077FD09D00E94FD2107FC05D03EF45F
:10437000909581959F4F0895709561957F4F089511
:10438000EE0FFF1F0590F491E02D09942F923F92BC
:104390004F925F926F927F928F929F92AF92BF9255
:1043A000CF92DF92EF92FF920F931F93CF93DF9301
:1043B000CDB7DEB7CA1BDB0B0FB6F894DEBF0FBE5E
:1043C000CDBF09942A88398848885F846E847D84AB
:1043D0008C849B84AA84B984C884DF80EE80FD80AD
:1043E0000C811B81AA81B981CE0FD11D0FB6F89423
:1043F000DEBF0FBECDBFED010895AA1BBB1B51E16F
:1044000007C0AA1FBB1FA617B70710F0A61BB70B44
:10441000881F991F5A95A9F780959095BC01CD01E9
:104420000895FB01DC0104C08D910190801921F4F5
:1044300041505040C8F7881B990B0895FB01DC01DF
:1044400002C001900D9241505040D8F70895F9995B
:10445000FECF92BD81BDF89A992780B50895A8E155
:10446000B0E042E050E00C946B22DC01A40FB51FD9
:104470004150504048F0CB01840F951F2E910E946F
:10448000462241505040D0F70895262FF999FECF8B
:1044900092BD81BDF89A019700B4021639F01FBA97
:1044A00020BD0FB6F894FA9AF99A0FBE08950396B4
:1044B000272F0E9446220E944522252F0E94462235
:1044C000242F0C9446220196272F0E9446220C94FA
:1044D0004522DC01CB01FC01F999FECF06C0F2BDFB
:1044E000E1BDF89A319600B40D9241505040B8F7B2
:0644F0000895F894FFCFCF
:1044F6004E026E02280850011E0A1401201B5C1B86
:10450600551B4E1B471B01E200E900EA00B500B649
:1045160000B700CD008301CC008A019201940121ED
:1045260002230224022502260227022A02B300B42D
:10453600006F0070009F01CB019F02A00281828361
:10454600E200E900EA00B500B600B700CD0083013D
:10455600CC008A0192019401210223022402250241
:10456600260227022A02B300B4006F0070009F01E2
:10457600CB019F02A002818283C63435379567F14D
:10458600F0363033F73132F5F6F400FF0100010062
:0E45960000FFFF0000010001FF0094936692F9
:00000001FF
